{
  "_format": "hh-sol-artifact-1",
  "contractName": "ORMakerDeposit",
  "sourceName": "contracts/ORMakerDeposit.sol",
  "abi": [
    {
      "anonymous": false,
      "inputs": [
        {
          "indexed": true,
          "internalType": "bytes32",
          "name": "challengeId",
          "type": "bytes32"
        },
        {
          "components": [
            {
              "internalType": "uint256",
              "name": "sourceTxFrom",
              "type": "uint256"
            },
            {
              "internalType": "uint64",
              "name": "sourceTxTime",
              "type": "uint64"
            },
            {
              "internalType": "address",
              "name": "freezeToken",
              "type": "address"
            },
            {
              "internalType": "uint64",
              "name": "challengeUserRatio",
              "type": "uint64"
            },
            {
              "internalType": "uint256",
              "name": "freezeAmount0",
              "type": "uint256"
            },
            {
              "internalType": "uint256",
              "name": "freezeAmount1",
              "type": "uint256"
            },
            {
              "internalType": "uint64",
              "name": "challengeTime",
              "type": "uint64"
            },
            {
              "internalType": "uint64",
              "name": "abortTime",
              "type": "uint64"
            },
            {
              "internalType": "uint64",
              "name": "sourceTxBlockNum",
              "type": "uint64"
            },
            {
              "internalType": "uint64",
              "name": "sourceTxIndex",
              "type": "uint64"
            },
            {
              "internalType": "uint128",
              "name": "challengerVerifyTransactionFee",
              "type": "uint128"
            }
          ],
          "indexed": false,
          "internalType": "struct IORMakerDeposit.ChallengeStatement",
          "name": "statement",
          "type": "tuple"
        },
        {
          "components": [
            {
              "internalType": "address",
              "name": "winner",
              "type": "address"
            },
            {
              "internalType": "uint64",
              "name": "verifiedTime0",
              "type": "uint64"
            },
            {
              "internalType": "uint64",
              "name": "verifiedTime1",
              "type": "uint64"
            },
            {
              "internalType": "bytes32",
              "name": "verifiedDataHash0",
              "type": "bytes32"
            }
          ],
          "indexed": false,
          "internalType": "struct IORMakerDeposit.ChallengeResult",
          "name": "result",
          "type": "tuple"
        }
      ],
      "name": "ChallengeInfoUpdated",
      "type": "event"
    },
    {
      "anonymous": false,
      "inputs": [
        {
          "indexed": true,
          "internalType": "address",
          "name": "impl",
          "type": "address"
        },
        {
          "indexed": false,
          "internalType": "bytes32",
          "name": "columnArrayHash",
          "type": "bytes32"
        },
        {
          "indexed": false,
          "internalType": "address[]",
          "name": "dealers",
          "type": "address[]"
        },
        {
          "indexed": false,
          "internalType": "address[]",
          "name": "ebcs",
          "type": "address[]"
        },
        {
          "indexed": false,
          "internalType": "uint64[]",
          "name": "chainIds",
          "type": "uint64[]"
        }
      ],
      "name": "ColumnArrayUpdated",
      "type": "event"
    },
    {
      "anonymous": false,
      "inputs": [
        {
          "indexed": true,
          "internalType": "address",
          "name": "impl",
          "type": "address"
        },
        {
          "indexed": false,
          "internalType": "uint256[]",
          "name": "responseMakers",
          "type": "uint256[]"
        }
      ],
      "name": "ResponseMakersUpdated",
      "type": "event"
    },
    {
      "anonymous": false,
      "inputs": [
        {
          "indexed": true,
          "internalType": "address",
          "name": "impl",
          "type": "address"
        },
        {
          "indexed": false,
          "internalType": "address",
          "name": "ebc",
          "type": "address"
        },
        {
          "components": [
            {
              "internalType": "bytes32",
              "name": "root",
              "type": "bytes32"
            },
            {
              "internalType": "uint32",
              "name": "version",
              "type": "uint32"
            }
          ],
          "indexed": false,
          "internalType": "struct RuleLib.RootWithVersion",
          "name": "rootWithVersion",
          "type": "tuple"
        }
      ],
      "name": "RulesRootUpdated",
      "type": "event"
    },
    {
      "anonymous": false,
      "inputs": [
        {
          "indexed": true,
          "internalType": "address",
          "name": "impl",
          "type": "address"
        },
        {
          "indexed": false,
          "internalType": "uint64",
          "name": "chainId",
          "type": "uint64"
        },
        {
          "indexed": false,
          "internalType": "address",
          "name": "spv",
          "type": "address"
        }
      ],
      "name": "SpvUpdated",
      "type": "event"
    },
    {
      "anonymous": false,
      "inputs": [
        {
          "indexed": false,
          "internalType": "uint256",
          "name": "requestAmount",
          "type": "uint256"
        },
        {
          "indexed": false,
          "internalType": "uint64",
          "name": "requestTimestamp",
          "type": "uint64"
        },
        {
          "indexed": false,
          "internalType": "address",
          "name": "requestToken",
          "type": "address"
        }
      ],
      "name": "WithdrawRequested",
      "type": "event"
    },
    {
      "inputs": [
        {
          "internalType": "uint64",
          "name": "sourceTxTime",
          "type": "uint64"
        },
        {
          "internalType": "uint64",
          "name": "sourceChainId",
          "type": "uint64"
        },
        {
          "internalType": "uint64",
          "name": "sourceTxBlockNum",
          "type": "uint64"
        },
        {
          "internalType": "uint64",
          "name": "sourceTxIndex",
          "type": "uint64"
        },
        {
          "internalType": "bytes32",
          "name": "sourceTxHash",
          "type": "bytes32"
        },
        {
          "internalType": "address",
          "name": "freezeToken",
          "type": "address"
        },
        {
          "internalType": "uint256",
          "name": "freezeAmount1",
          "type": "uint256"
        },
        {
          "internalType": "uint256",
          "name": "lastChallengeIdentNum",
          "type": "uint256"
        }
      ],
      "name": "challenge",
      "outputs": [],
      "stateMutability": "payable",
      "type": "function"
    },
    {
      "inputs": [
        {
          "internalType": "uint64",
          "name": "sourceChainId",
          "type": "uint64"
        },
        {
          "internalType": "bytes32",
          "name": "sourceTxHash",
          "type": "bytes32"
        },
        {
          "internalType": "uint256[]",
          "name": "verifiedData0",
          "type": "uint256[]"
        },
        {
          "internalType": "address[]",
          "name": "challenger",
          "type": "address[]"
        }
      ],
      "name": "checkChallenge",
      "outputs": [],
      "stateMutability": "nonpayable",
      "type": "function"
    },
    {
      "inputs": [],
      "name": "columnArrayHash",
      "outputs": [
        {
          "internalType": "bytes32",
          "name": "",
          "type": "bytes32"
        }
      ],
      "stateMutability": "view",
      "type": "function"
    },
    {
      "inputs": [
        {
          "internalType": "address",
          "name": "token",
          "type": "address"
        },
        {
          "internalType": "uint256",
          "name": "amount",
          "type": "uint256"
        }
      ],
      "name": "deposit",
      "outputs": [],
      "stateMutability": "payable",
      "type": "function"
    },
    {
      "inputs": [
        {
          "internalType": "address",
          "name": "token",
          "type": "address"
        }
      ],
      "name": "freezeAssets",
      "outputs": [
        {
          "internalType": "uint256",
          "name": "",
          "type": "uint256"
        }
      ],
      "stateMutability": "view",
      "type": "function"
    },
    {
      "inputs": [
        {
          "internalType": "uint256",
          "name": "challengeIdentNum",
          "type": "uint256"
        }
      ],
      "name": "getCanChallengeContinue",
      "outputs": [
        {
          "internalType": "bool",
          "name": "",
          "type": "bool"
        }
      ],
      "stateMutability": "view",
      "type": "function"
    },
    {
      "inputs": [],
      "name": "getVersionAndEnableTime",
      "outputs": [
        {
          "internalType": "uint128",
          "name": "version",
          "type": "uint128"
        },
        {
          "internalType": "uint64",
          "name": "blockNumber",
          "type": "uint64"
        },
        {
          "internalType": "uint64",
          "name": "enableTime",
          "type": "uint64"
        }
      ],
      "stateMutability": "view",
      "type": "function"
    },
    {
      "inputs": [
        {
          "internalType": "address",
          "name": "targetToken",
          "type": "address"
        }
      ],
      "name": "getWithdrawRequestInfo",
      "outputs": [
        {
          "components": [
            {
              "internalType": "uint256",
              "name": "requestAmount",
              "type": "uint256"
            },
            {
              "internalType": "uint64",
              "name": "requestTimestamp",
              "type": "uint64"
            },
            {
              "internalType": "address",
              "name": "requestToken",
              "type": "address"
            }
          ],
          "internalType": "struct IORMakerDeposit.WithdrawRequestInfo",
          "name": "",
          "type": "tuple"
        }
      ],
      "stateMutability": "view",
      "type": "function"
    },
    {
      "inputs": [
        {
          "internalType": "address",
          "name": "owner_",
          "type": "address"
        }
      ],
      "name": "initialize",
      "outputs": [],
      "stateMutability": "nonpayable",
      "type": "function"
    },
    {
      "inputs": [],
      "name": "mdcFactory",
      "outputs": [
        {
          "internalType": "address",
          "name": "",
          "type": "address"
        }
      ],
      "stateMutability": "view",
      "type": "function"
    },
    {
      "inputs": [],
      "name": "owner",
      "outputs": [
        {
          "internalType": "address",
          "name": "",
          "type": "address"
        }
      ],
      "stateMutability": "view",
      "type": "function"
    },
    {
      "inputs": [
        {
          "internalType": "bytes",
          "name": "proofData",
          "type": "bytes"
        }
      ],
      "name": "parsePublicInput",
      "outputs": [
        {
          "components": [
            {
              "internalType": "uint64",
              "name": "sourceChainId",
              "type": "uint64"
            },
            {
              "internalType": "bytes32",
              "name": "sourceTxHash",
              "type": "bytes32"
            },
            {
              "internalType": "uint256",
              "name": "txIndex",
              "type": "uint256"
            },
            {
              "internalType": "uint256",
              "name": "from",
              "type": "uint256"
            },
            {
              "internalType": "uint256",
              "name": "to",
              "type": "uint256"
            },
            {
              "internalType": "address",
              "name": "freezeToken",
              "type": "address"
            },
            {
              "internalType": "uint256",
              "name": "freezeAmount",
              "type": "uint256"
            },
            {
              "internalType": "uint256",
              "name": "nonce",
              "type": "uint256"
            },
            {
              "internalType": "uint64",
              "name": "timestamp",
              "type": "uint64"
            },
            {
              "internalType": "uint256",
              "name": "dest",
              "type": "uint256"
            },
            {
              "internalType": "uint256",
              "name": "destToken",
              "type": "uint256"
            },
            {
              "internalType": "bytes32",
              "name": "L1TXBlockHash",
              "type": "bytes32"
            },
            {
              "internalType": "uint256",
              "name": "L1TBlockNumber",
              "type": "uint256"
            },
            {
              "internalType": "address",
              "name": "mdcContractAddress",
              "type": "address"
            },
            {
              "internalType": "address",
              "name": "managerContractAddress",
              "type": "address"
            },
            {
              "internalType": "uint256",
              "name": "ruleRootSlot",
              "type": "uint256"
            },
            {
              "internalType": "uint256",
              "name": "ruleVersionSlot",
              "type": "uint256"
            },
            {
              "internalType": "uint256",
              "name": "enableTimeSlot",
              "type": "uint256"
            },
            {
              "internalType": "bytes32",
              "name": "RulePreRootHash",
              "type": "bytes32"
            }
          ],
          "internalType": "struct ORMakerDeposit.PublicInputData",
          "name": "",
          "type": "tuple"
        }
      ],
      "stateMutability": "pure",
      "type": "function"
    },
    {
      "inputs": [],
      "name": "responseMakersHash",
      "outputs": [
        {
          "internalType": "bytes32",
          "name": "",
          "type": "bytes32"
        }
      ],
      "stateMutability": "view",
      "type": "function"
    },
    {
      "inputs": [
        {
          "internalType": "address",
          "name": "ebc",
          "type": "address"
        }
      ],
      "name": "rulesRoot",
      "outputs": [
        {
          "components": [
            {
              "internalType": "bytes32",
              "name": "root",
              "type": "bytes32"
            },
            {
              "internalType": "uint32",
              "name": "version",
              "type": "uint32"
            }
          ],
          "internalType": "struct RuleLib.RootWithVersion",
          "name": "",
          "type": "tuple"
        }
      ],
      "stateMutability": "view",
      "type": "function"
    },
    {
      "inputs": [
        {
          "internalType": "uint64",
          "name": "chainId",
          "type": "uint64"
        }
      ],
      "name": "spv",
      "outputs": [
        {
          "internalType": "address",
          "name": "",
          "type": "address"
        }
      ],
      "stateMutability": "view",
      "type": "function"
    },
    {
      "inputs": [
        {
          "internalType": "uint64",
          "name": "enableTime",
          "type": "uint64"
        },
        {
          "internalType": "address[]",
          "name": "dealers",
          "type": "address[]"
        },
        {
          "internalType": "address[]",
          "name": "ebcs",
          "type": "address[]"
        },
        {
          "internalType": "uint64[]",
          "name": "chainIds",
          "type": "uint64[]"
        }
      ],
      "name": "updateColumnArray",
      "outputs": [],
      "stateMutability": "nonpayable",
      "type": "function"
    },
    {
      "inputs": [
        {
          "internalType": "uint64",
          "name": "enableTime",
          "type": "uint64"
        },
        {
          "internalType": "bytes[]",
          "name": "responseMakerSignatures",
          "type": "bytes[]"
        }
      ],
      "name": "updateResponseMakers",
      "outputs": [],
      "stateMutability": "nonpayable",
      "type": "function"
    },
    {
      "inputs": [
        {
          "internalType": "uint64",
          "name": "enableTime",
          "type": "uint64"
        },
        {
          "internalType": "address",
          "name": "ebc",
          "type": "address"
        },
        {
          "components": [
            {
              "internalType": "uint64",
              "name": "chainId0",
              "type": "uint64"
            },
            {
              "internalType": "uint64",
              "name": "chainId1",
              "type": "uint64"
            },
            {
              "internalType": "uint8",
              "name": "status0",
              "type": "uint8"
            },
            {
              "internalType": "uint8",
              "name": "status1",
              "type": "uint8"
            },
            {
              "internalType": "uint256",
              "name": "token0",
              "type": "uint256"
            },
            {
              "internalType": "uint256",
              "name": "token1",
              "type": "uint256"
            },
            {
              "internalType": "uint128",
              "name": "minPrice0",
              "type": "uint128"
            },
            {
              "internalType": "uint128",
              "name": "minPrice1",
              "type": "uint128"
            },
            {
              "internalType": "uint128",
              "name": "maxPrice0",
              "type": "uint128"
            },
            {
              "internalType": "uint128",
              "name": "maxPrice1",
              "type": "uint128"
            },
            {
              "internalType": "uint128",
              "name": "withholdingFee0",
              "type": "uint128"
            },
            {
              "internalType": "uint128",
              "name": "withholdingFee1",
              "type": "uint128"
            },
            {
              "internalType": "uint32",
              "name": "tradingFee0",
              "type": "uint32"
            },
            {
              "internalType": "uint32",
              "name": "tradingFee1",
              "type": "uint32"
            },
            {
              "internalType": "uint32",
              "name": "responseTime0",
              "type": "uint32"
            },
            {
              "internalType": "uint32",
              "name": "responseTime1",
              "type": "uint32"
            },
            {
              "internalType": "uint32",
              "name": "compensationRatio0",
              "type": "uint32"
            },
            {
              "internalType": "uint32",
              "name": "compensationRatio1",
              "type": "uint32"
            }
          ],
          "internalType": "struct RuleLib.Rule[]",
          "name": "rules",
          "type": "tuple[]"
        },
        {
          "components": [
            {
              "internalType": "bytes32",
              "name": "root",
              "type": "bytes32"
            },
            {
              "internalType": "uint32",
              "name": "version",
              "type": "uint32"
            }
          ],
          "internalType": "struct RuleLib.RootWithVersion",
          "name": "rootWithVersion",
          "type": "tuple"
        },
        {
          "internalType": "uint64[]",
          "name": "sourceChainIds",
          "type": "uint64[]"
        },
        {
          "internalType": "uint256[]",
          "name": "pledgeAmounts",
          "type": "uint256[]"
        }
      ],
      "name": "updateRulesRoot",
      "outputs": [],
      "stateMutability": "payable",
      "type": "function"
    },
    {
      "inputs": [
        {
          "internalType": "uint64",
          "name": "enableTime",
          "type": "uint64"
        },
        {
          "internalType": "address",
          "name": "ebc",
          "type": "address"
        },
        {
          "components": [
            {
              "internalType": "uint64",
              "name": "chainId0",
              "type": "uint64"
            },
            {
              "internalType": "uint64",
              "name": "chainId1",
              "type": "uint64"
            },
            {
              "internalType": "uint8",
              "name": "status0",
              "type": "uint8"
            },
            {
              "internalType": "uint8",
              "name": "status1",
              "type": "uint8"
            },
            {
              "internalType": "uint256",
              "name": "token0",
              "type": "uint256"
            },
            {
              "internalType": "uint256",
              "name": "token1",
              "type": "uint256"
            },
            {
              "internalType": "uint128",
              "name": "minPrice0",
              "type": "uint128"
            },
            {
              "internalType": "uint128",
              "name": "minPrice1",
              "type": "uint128"
            },
            {
              "internalType": "uint128",
              "name": "maxPrice0",
              "type": "uint128"
            },
            {
              "internalType": "uint128",
              "name": "maxPrice1",
              "type": "uint128"
            },
            {
              "internalType": "uint128",
              "name": "withholdingFee0",
              "type": "uint128"
            },
            {
              "internalType": "uint128",
              "name": "withholdingFee1",
              "type": "uint128"
            },
            {
              "internalType": "uint32",
              "name": "tradingFee0",
              "type": "uint32"
            },
            {
              "internalType": "uint32",
              "name": "tradingFee1",
              "type": "uint32"
            },
            {
              "internalType": "uint32",
              "name": "responseTime0",
              "type": "uint32"
            },
            {
              "internalType": "uint32",
              "name": "responseTime1",
              "type": "uint32"
            },
            {
              "internalType": "uint32",
              "name": "compensationRatio0",
              "type": "uint32"
            },
            {
              "internalType": "uint32",
              "name": "compensationRatio1",
              "type": "uint32"
            }
          ],
          "internalType": "struct RuleLib.Rule[]",
          "name": "rules",
          "type": "tuple[]"
        },
        {
          "components": [
            {
              "internalType": "bytes32",
              "name": "root",
              "type": "bytes32"
            },
            {
              "internalType": "uint32",
              "name": "version",
              "type": "uint32"
            }
          ],
          "internalType": "struct RuleLib.RootWithVersion",
          "name": "rootWithVersion",
          "type": "tuple"
        },
        {
          "internalType": "uint64[]",
          "name": "sourceChainIds",
          "type": "uint64[]"
        },
        {
          "internalType": "uint256[]",
          "name": "pledgeAmounts",
          "type": "uint256[]"
        },
        {
          "internalType": "address",
          "name": "token",
          "type": "address"
        }
      ],
      "name": "updateRulesRootERC20",
      "outputs": [],
      "stateMutability": "nonpayable",
      "type": "function"
    },
    {
      "inputs": [
        {
          "internalType": "uint64",
          "name": "enableTime",
          "type": "uint64"
        },
        {
          "internalType": "address[]",
          "name": "spvs",
          "type": "address[]"
        },
        {
          "internalType": "uint64[]",
          "name": "chainIds",
          "type": "uint64[]"
        }
      ],
      "name": "updateSpvs",
      "outputs": [],
      "stateMutability": "nonpayable",
      "type": "function"
    },
    {
      "inputs": [
        {
          "internalType": "address",
          "name": "spvAddress",
          "type": "address"
        },
        {
          "internalType": "address",
          "name": "challenger",
          "type": "address"
        },
        {
          "internalType": "bytes",
          "name": "proof",
          "type": "bytes"
        },
        {
          "internalType": "bytes32[2]",
          "name": "spvBlockHashs",
          "type": "bytes32[2]"
        },
        {
          "components": [
            {
              "internalType": "uint256[]",
              "name": "data",
              "type": "uint256[]"
            },
            {
              "components": [
                {
                  "internalType": "address",
                  "name": "account",
                  "type": "address"
                },
                {
                  "internalType": "bytes32",
                  "name": "key",
                  "type": "bytes32"
                },
                {
                  "internalType": "uint256",
                  "name": "value",
                  "type": "uint256"
                }
              ],
              "internalType": "struct IORChallengeSpv.VerifyInfoSlot[]",
              "name": "slots",
              "type": "tuple[]"
            }
          ],
          "internalType": "struct IORChallengeSpv.VerifyInfo",
          "name": "verifyInfo",
          "type": "tuple"
        },
        {
          "internalType": "uint256[]",
          "name": "verifiedData0",
          "type": "uint256[]"
        },
        {
          "internalType": "bytes",
          "name": "rawDatas",
          "type": "bytes"
        },
        {
          "internalType": "uint64",
          "name": "sourceChainId",
          "type": "uint64"
        }
      ],
      "name": "verifyChallengeDest",
      "outputs": [],
      "stateMutability": "nonpayable",
      "type": "function"
    },
    {
      "inputs": [
        {
          "internalType": "address",
          "name": "spvAddress",
          "type": "address"
        },
        {
          "internalType": "address",
          "name": "challenger",
          "type": "address"
        },
        {
          "internalType": "bytes",
          "name": "proof",
          "type": "bytes"
        },
        {
          "components": [
            {
              "internalType": "uint256[]",
              "name": "data",
              "type": "uint256[]"
            },
            {
              "components": [
                {
                  "internalType": "address",
                  "name": "account",
                  "type": "address"
                },
                {
                  "internalType": "bytes32",
                  "name": "key",
                  "type": "bytes32"
                },
                {
                  "internalType": "uint256",
                  "name": "value",
                  "type": "uint256"
                }
              ],
              "internalType": "struct IORChallengeSpv.VerifyInfoSlot[]",
              "name": "slots",
              "type": "tuple[]"
            }
          ],
          "internalType": "struct IORChallengeSpv.VerifyInfo",
          "name": "verifyInfo",
          "type": "tuple"
        },
        {
          "internalType": "bytes",
          "name": "rawDatas",
          "type": "bytes"
        }
      ],
      "name": "verifyChallengeSource",
      "outputs": [],
      "stateMutability": "nonpayable",
      "type": "function"
    },
    {
      "inputs": [
        {
          "internalType": "uint64",
          "name": "enableTime",
          "type": "uint64"
        }
      ],
      "name": "versionIncreaseAndEnableTime",
      "outputs": [],
      "stateMutability": "nonpayable",
      "type": "function"
    },
    {
      "inputs": [
        {
          "internalType": "address",
          "name": "token",
          "type": "address"
        }
      ],
      "name": "withdraw",
      "outputs": [],
      "stateMutability": "nonpayable",
      "type": "function"
    },
    {
      "inputs": [
        {
          "internalType": "address",
          "name": "requestToken",
          "type": "address"
        },
        {
          "internalType": "uint256",
          "name": "requestAmount",
          "type": "uint256"
        }
      ],
      "name": "withdrawRequest",
      "outputs": [],
      "stateMutability": "nonpayable",
      "type": "function"
    },
    {
      "stateMutability": "payable",
      "type": "receive"
    }
  ],
  "bytecode": "0x6080806040523461003457786400000000000000010000000000000000000000000000000160005561592e90816200003a8239f35b600080fdfe608080604052600436101561001d575b50361561001b57600080fd5b005b60003560e01c90816302f17ed314613f2b575080631dbe6d8914613d3b57806334bc98de14613bcf57806337eb044314613b89578063470623261461345057806347e7ef241461341b57806349c4bb76146133d95780634b4c85c4146133bb5780634c20cb241461339257806350a357ac146132fd57806351cff8d9146130cc578063539cb3a514612e135780635bcb403714612dd957806363c9036814612cc1578063671ecbfe14612c4a5780636a859e7214611b9c5780636d9437b1146119e75780638da5cb5b146119be5780638f2c4068146110215780638f5520d914610c61578063a531ffd814610c45578063b315019c14610a18578063c4d66de814610972578063c816702c1461016a5763dfdd18041461013d573861000f565b3461016557602036600319011261016557602061015b600435614cdd565b6040519015158152f35b600080fd5b34610165576003196101203682011261016557610185613f46565b61018d613f5c565b6044356001600160401b038111610165576101ac903690600401614011565b9290933660a411610165576001600160401b0360a435116101655760409060a435360301126101655760c4356001600160401b038111610165576101f4903690600401613fe1565b909390929060e4356001600160401b03811161016557610218903690600401614011565b969093610104356001600160401b03811690036101655760405160208082015260221960a43536030160a435600401351215610165576001600160401b03600460a435818101350101351161016557600460a43581810135019081013560051b3603602490910113610165576040818101526102a860808201600460a435818101350190810135906024016150bc565b60221960a435360301602460a43501351215610165576001600160401b03600460a43560248101350101351161016557602460a43581810135016004810135606002360391011361016557818103603f19016060830152602460a435818101350160048101358352602092909201949392869290910160005b600460a435602460a4350135010135811061092e5750508061035260a492602097601f198282030182520382614112565b8051908601206040516390c80a5560e01b8152608060048201526084810184905296879586948593918585013760008483850101526040606460248501376064830152601f01601f191681010301916001600160a01b03165afa908115610922576000916108f3575b50156108c9576103d0600460a4350180615506565b1561079b576103e4600460a4350180615506565b6001101561079b576040805192356001600160401b0316602084810191825292909201358382015282529061041881614089565b51902060008181526009602052604090206001015490959060a01c6001600160401b03161561089e57600086815260096020526040902060020154610466906001600160401b031615615088565b60008681526009602090815260408083206001600160a01b0386168452909152902060018101546005909101546104c9916104c4916104bf9160c082901c9160801c6001600160401b03908116916101043591166156d2565b614cdd565b615056565b6020838281010312610165578235906001600160401b03821161016557808401601f838601011215610165578184013591610503836141de565b946105116040519687614112565b8386526020860192810160208560051b8484010101116101655780820160200192915b60208560051b8284010101841061088a5750505050506040516020810190602082526105768161056860408201888a6150bc565b03601f198101835282614112565b5190208560005260096020526003604060002001540361085f5760405160208101906105a6816105688685614444565b519020836007101561079b5760e0850135036108345760008581526009602090815260408083206001600160a01b03909416835292905220600101546105f5906001600160401b0316426148dc565b821561079b5761060884358210156153e2565b826001101561079b576106219060208501351015615417565b610630600460a4350180615506565b1561079b57826003101561079b57606084013590350361080957610659600460a4350180615506565b6002929192101561079b5760406106729201359061566a565b156107de57806004101561079b5761068f600460a4350180615506565b6003101561079b57606001356080830135036107b157806005101561079b576106bd600460a4350180615506565b6004101561079b5760806106d891013560a08401351461553b565b806006101561079b576002101561079b578060c060406106fc9301359101356148dc565b61070b600460a4350180615506565b6005929192101561079b5760a06107249201351461553b565b60008181526009602081815260408084206002810180546001600160401b031916426001600160401b03161790553385528083528185209486905292909152516000805160206158a2833981519152926101e0926107989160019091019061078d908490614e9c565b610160830190614f32565ba2005b634e487b7160e01b600052603260045260246000fd5b60405162461bcd60e51b81526020600482015260056024820152642220a2222960d91b6044820152606490fd5b60405162461bcd60e51b81526020600482015260036024820152624d494360e81b6044820152606490fd5b606460405162461bcd60e51b81526020600482015260046024820152631110d25160e21b6044820152fd5b60405162461bcd60e51b81526020600482015260036024820152620a49a960eb1b6044820152606490fd5b606460405162461bcd60e51b81526020600482015260046024820152630564448360e41b6044820152fd5b602080809486358152019401939250610534565b606460405162461bcd60e51b81526020600482015260046024820152632b2a182d60e11b6044820152fd5b60405162461bcd60e51b81526020600482015260026024820152612b2360f11b6044820152606490fd5b610915915060203d60201161091b575b61090d8183614112565b81019061416d565b866103bb565b503d610903565b6040513d6000823e3d90fd5b91939495600191935060608091838060a01b0361094a87613f72565b1681526020860135602082015260408601356040820152019301910190869295949391610321565b346101655760203660031901126101655761098b613f46565b600154906001600160a01b03908183166109ed571680156109c3576001600160a01b0319918216176001556002805490911633179055005b60405162461bcd60e51b815260206004820152600260248201526127ad60f11b6044820152606490fd5b606460405162461bcd60e51b81526020600482015260046024820152632fa7a72d60e11b6044820152fd5b3461016557604036600319011261016557610a31613f86565b6001600160401b0360243581811161016557610a51903690600401613fe1565b9290610a7260018060a01b0392610a6d8460015416331461403e565b61556c565b6040519360209485810190308252868152610a8c816140c0565b51902091610a99826141de565b94610aa76040519687614112565b828652601f199384610ab8856141de565b01368989013760005b848110610b8857876004888b89604051610aef8382019282610ae38986614444565b03908101835282614112565b51902060055580826002541660405194858092635c60da1b60e01b82525afa90811561092257600091610b45575b506000805160206158e28339815191529250610b40604051928392169482614444565b0390a2005b905082813d8311610b81575b610b5b8183614112565b8101031261016557610b7b6000805160206158e283398151915292614135565b84610b1d565b503d610b51565b7b0ca2ba3432b932bab69029b4b3b732b21026b2b9b9b0b3b29d05199960211b60005281601c52603c600020908060051b850135601e1986360301811215610165578501918235858111610165578b840190803603821361016557610bec81614415565b94610bfa6040519687614112565b8186528d82369201011161016557848b9360008f84610c2795610c2f9783610c409c013784010152614594565b91909161447f565b16610c3a828b614430565b526143d5565b610ac1565b346101655760203660031901126101655761001b610a6d613f86565b3461016557608036600319011261016557610c7a613f86565b6024356001600160401b03811161016557610c99903690600401613fe1565b6044356001600160401b03811161016557610cb8903690600401613fe1565b909290606435906001600160401b03821161016557610cde610cf6923690600401613fe1565b929096610a6d60018060a01b0360015416331461403e565b600a841080611017575b8061100d575b15610fe05760025460405163481c6a7560e01b81526001600160a01b039091169390602081600481885afa90811561092257600091610fa6575b5060005b838110610f25575060005b848110610e925750509060049291602086610ae3610dac8a8c6040519384918a610d9c610d888a86019960608b5260808701908d61434d565b8c601f19978888840301604089015261434d565b9185858403016060860152614391565b519020958660035560405195868092635c60da1b60e01b82525afa93841561092257600094610e34575b506000805160206158c283398151915296610b40949392610e0d610e1b93604051998a998a52608060208b015260808a019161434d565b91878303604089015261434d565b84810360608601526001600160a01b0390921696614391565b90929193506020813d602011610e8a575b81610e5260209383614112565b81010312610165576000805160206158c283398151915296610b4094610e0d610e7d610e1b94614135565b9650509293915096610dd6565b3d9150610e45565b610ea5610ea082878c614149565b6141b6565b60405163b288706d60e01b81526001600160401b039091166004820152906000826024816001600160a01b0387165afa91821561092257600192610efc91600091610f02575b50838060401b03905116151561431c565b01610d4f565b610f1f91503d806000833e610f178183614112565b8101906141f5565b8c610eeb565b610f38610f3382868b614149565b614159565b604051632edbe4ef60e21b81526001600160a01b03918216600482015291906020908390602490829087165afa91821561092257600192610f8191600091610f87575b50614185565b01610d44565b610fa0915060203d60201161091b5761090d8183614112565b8c610f7b565b90506020813d602011610fd8575b81610fc160209383614112565b8101031261016557610fd290614135565b88610d40565b3d9150610fb4565b60405162461bcd60e51b81526020600482015260056024820152642222a1a7a360d91b6044820152606490fd5b5060648210610d06565b50600a8110610d00565b346101655760803660031901126101655761103a613f86565b6044356001600160401b03811161016557611059903690600401613fe1565b906064356001600160401b038111610165578261107b85923690600401613fe1565b939092604051611095816105686024358560208401614dc8565b602081519101209384600052600960205260406000209460018060a01b03600187015416600052856020526110cd6040600020614f6b565b956110da6001820161500f565b946000966000986000975b8b8910611160578b8b8b81611137575b50506611c37937e08000908181029181830414901517156111215761111c90600d546148dc565b600d55005b634e487b7160e01b600052601160045260246000fd5b60018060a01b0316600052600860205261115760406000209182546148dc565b905581806110f5565b90919293949596979998508a611181610f338c60018060a01b03938b614149565b166000528460205260406000209860058a015460018060401b038116156119935760018b0154906111df6104c48260401c928d60c091821c600160401b600160801b038616019060801b01908560018060c01b0319911b1601614cdd565b6001600160401b031661196957604083015160049190611208906001600160401b031615615088565b60025460405163481c6a7560e01b81529260209184919082906001600160a01b03165afa9182156109225760009261192d575b5060208401516001600160401b03166113e6575060405163b288706d60e01b81526001600160401b038b16600482015290600090829060249082906001600160a01b03165afa908115610922576000916113cb575b506060015160018b01546001600160401b03916112b19183169083166150e0565b164211156113a057611333611393916112c98c614f6b565b9061130d8c6112e1608085015160a0860151906148a6565b60208501516101008601516101209096015191956001600160401b0392831693908316929091166156d2565b600052600b60205261132e60018060401b0342166001604060002001614e73565b6148a6565b9a876000805160206158a28339815191526101e08d6001808060a01b0391015460401c169d5b61136f426001600160401b031660058301614e4a565b61137c6040518092614e9c565b61138d610160820160018d01614f32565ba26143d5565b97969594939291906110e5565b606460405162461bcd60e51b81526020600482015260046024820152631590d4d560e21b6044820152fd5b6113e091503d806000833e610f178183614112565b8d611290565b9060405160208101906020825261140581610568604082018b8d6150bc565b5190206060850151036119025760408401516001600160401b03428116911611156118d757851561079b5760405163b288706d60e01b815287356001600160401b0316600482015290600090829060249082906001600160a01b03165afa80156109225761148d916000916118bc575b5060a001516001600160401b039283169083166150e0565b16421115611891576114a3610f338c8e8b614149565b906114ad8b614f6b565b6114c0608082015160a0830151906148a6565b84519093906001600160a01b038083169116036117735750608081015160608201516001600160401b0316808202929180159084049091141715611121576080810151620f42408304116117485761151d620f42408304856148dc565b916115538d60018060401b036020850151169060018060401b03610100860151169060018060401b0361012087015116926156d2565b600052600b60205261157460018060401b0342166001604060002001614e4a565b815160408301516001600160a01b039182169291168061169a57506000808093620f4240829404905af16115a6614791565b501561166a5784516001600160a01b0316906611c37937e08000830183116111215761014001516000928392839283926115f2916001600160801b0316906611c37937e08000016148a6565b905af16115fd614791565b501561163a5761139391611610916148a6565b9a876000805160206158a28339815191526101e08d6001808060a01b0391015460401c169d611359565b60405162461bcd60e51b815260206004820152600860248201526722aa241d1029a29960c11b6044820152606490fd5b60405162461bcd60e51b81526020600482015260086024820152674554483a2053453160c01b6044820152606490fd5b906116c2939492620f42406116b1920490836148e9565b86516001600160a01b0316906148e9565b8351610140909101516611c37937e08000916001600160a01b0316906001600160801b031682810183116111215760009283928392839201905af1611705614791565b50156117185761139391611610916148a6565b60405162461bcd60e51b81526020600482015260086024820152674554483a2053453360c01b6044820152606490fd5b606460405162461bcd60e51b81526020600482015260046024820152632aa0a7a360e11b6044820152fd5b90805186511480611873575b80611855575b80611837575b80611826575b15156001146117aa575b505061139391611610916148a6565b61014001516611c37937e0800091906001600160801b031682810183116111215760009283928392839201906001600160a01b03165af16117e9614791565b50156117f6578d8061179b565b60405162461bcd60e51b81526020600482015260086024820152671155120e8814d14d60c21b6044820152606490fd5b506080818101519087015114611791565b50606081810151908701516001600160401b0390811691161461178b565b50604081810151908701516001600160a01b03908116911614611785565b50602081810151908701516001600160401b0390811691161461177f565b606460405162461bcd60e51b81526020600482015260046024820152631590d11560e21b6044820152fd5b6118d191503d806000833e610f178183614112565b8f611475565b60405162461bcd60e51b815260206004820152600360248201526215911160ea1b6044820152606490fd5b60405162461bcd60e51b81526020600482015260036024820152620ac88960eb1b6044820152606490fd5b9091506020813d602011611961575b8161194960209383614112565b810103126101655761195a90614135565b908e61123b565b3d915061193c565b60405162461bcd60e51b8152602060048201526002602482015261434160f01b6044820152606490fd5b60405162461bcd60e51b8152602060048201526003602482015262434e4560e81b6044820152606490fd5b34610165576000366003190112610165576001546040516001600160a01b039091168152602090f35b60e0366003190112610165576119fb613f86565b611a03613f5c565b6001600160401b03919060443583811161016557611a25903690600401613fb0565b909360403660631901126101655760a43581811161016557611a4b903690600401613fe1565b9060c4359183831161016557611a6b611a90939692963690600401613fe1565b93909560018060a01b0399611a8a60019a610a6d8d8d5416331461403e565b8461498f565b611a9b838214614927565b60009760009216915b818110611ade57883410611ab457005b60405162461bcd60e51b815260206004820152600260248201526124ab60f11b6044820152606490fd5b611aec610ea082848a614149565b60405190602091878382019287845216604082015260606000818301528152611b14816140db565b51902090611b2383878a614149565b35908260005260079182825260406000205410611b5d575b90839291611b4b8c95898c614149565b35926000525260406000205501611aa4565b9a90611b91849392611b8b8e848f98611b78908f8e90614149565b35918760005252604060002054906148dc565b906148a6565b9b9091929350611b3b565b346101655760031960a03682011261016557611bb6613f46565b90611bbf613f5c565b906044356001600160401b03811161016557611bdf903690600401614011565b90916001600160401b03606435116101655760409060643536030112610165576084356001600160401b03811161016557611c1e903690600401614011565b925a92611c2b81836150f9565b6101c081015160025460405163481c6a7560e01b81529299926001600160a01b0392831692909160209183916004918391165afa90811561092257600091612c10575b506001600160a01b03161480612bf9575b15612bce576101c0880151885160405163b288706d60e01b81526001600160401b0390911660048201529290600090849060249082906001600160a01b03165afa92831561092257600094611ceb611ce68560e0899889968791612bb4575b5001516156a0565b6143e4565b826040519384928337810182815203925af1611d05614791565b5015612b8157845160208087015160405191820192611d3491839161056891906001600160401b031686614dc8565b51902094856000526009602052604060002060018060a01b038616600052602052611d626040600020614f6b565b866000526009602052611d7b600160406000200161500f565b60c08201516001600160401b031615612b5657602001516001600160401b0316612b295761010082015160208201516001600160401b03918216911603612aff5760808201516001546001600160a01b03918216911603612ad457604081015160a08301516001600160a01b03918216911603612aa9576080015160c082015103612a7e57610160810151610180820151400361016557610100810151611e2b906001600160401b0316426148dc565b611e3f6024606435016064356004016153ad565b1561079b57611e5d90604001356001600160401b03168210156153e2565b611e716024606435016064356004016153ad565b9190911561079b57611e9591604090810135901c6001600160401b03161015615417565b6102c0828581010312610165576001600160401b0382351161016557611ec08483018335840161544c565b506001600160401b0360208301351161016557611ee58483016020840135840161544c565b6040830135906001600160401b03821161016557858401601f8386010112156101655781840135611f15816141de565b92611f236040519485614112565b818452602084019088870160208460051b838a010101116101655790602082880101915b60208460051b828a0101018310612a6357505050506060840135956001600160a01b038716870361016557610240908501859003607f19011261016557604051936001600160401b036102408601908111908611176128765761024085016040526120dc6102a0611fba60808401613f9c565b92838852611fca60a08201613f9c565b6020890152611fdb60c082016154b2565b6040890152611fec60e082016154b2565b6060890152610100810135608089015261012081013560a089015261201461014082016154c0565b60c089015261202661016082016154c0565b60e089015261203861018082016154c0565b61010089015261204b6101a082016154c0565b61012089015261205e6101c082016154c0565b6101408901526120716101e082016154c0565b610160890152612084610200820161497e565b610180890152612097610220820161497e565b6101a08901526120aa610240820161497e565b6101c08901526120bd610260820161497e565b6101e08901526120d0610280820161497e565b6102008901520161497e565b6102208601526040519060018060401b0316602082015260018060401b03602086015116604082015260ff604086015116606082015260ff6060860151166080820152608085015160a082015260a085015160c082015260018060801b0360c08601511660e082015260018060801b0360e08601511661010082015260018060801b036101008601511661012082015260018060801b036101208601511661014082015260018060801b036101408601511661016082015260018060801b036101608601511661018082015263ffffffff610180860151166101a082015263ffffffff6101a0860151166101c082015263ffffffff6101c0860151166101e082015263ffffffff6101e08601511661020082015263ffffffff6102008601511661022082015263ffffffff610220860151166102408201526102408152612222816140f6565b6020815191012061024084015103612a3957604080516001600160a01b0388166020820190815260068284015291815261225b81614089565b5190206101e08401518103612a0e57600181018111611121576101e084015161228791600101146154d4565b612296610220840151156154d4565b60c08301516040516391032df360e01b81526004810191909152906060826024816001600160a01b038b165afa918215610922576000926129b8575b5060208201519081600019810111611121576001600160a01b03916122fd9160001990910190614430565b51166001600160a01b0387160361298d57604001805182511061296257518060001981011161112157612356916001600160401b03916123439160001990910190614430565b51169260018060401b03835116906156e6565b60c082810151604080516369bb8a9960e11b8152600481019290925283516001600160401b039081166024840152602085015116604483015283015160ff16606482015260608301516084820152608083015160a482015260a08301516001600160801b0390811660c483015291830151821660e482015260e083015190911661010482015261010082015163ffffffff908116610124830152610120830151811661014483015261014090920151909116610164820152600081610184816001600160a01b0389165afa908115610922576000916128d6575b5060209061245995604051808098819462b67b0b60e01b83528660048401526024830190614881565b03916001600160a01b03165afa938415610922576000946128a2575b50606081015160008781526009602081815260408084206001600160a01b038b1680865281845282862096909655938b9052919052600190910180546001600160e01b0319164260a01b600160a01b600160e01b03161790921790915551936001600160401b036101008601908111908611176128765761010085016040526125086024606435016064356004016153ad565b1561079b576040013560801c6001600160401b0316855261253260643560248101906004016153ad565b9390931561079b576080936040600180821b03910135851c16602087015260018060401b03835116604087015260608601526101208201518386015261014082015160a086015260c0850152015160e0830152604051916020830190816000905b6008821061288c5750506101008452506001600160401b0361012084019081119084111761287657826101206125f4940160405251902084600052600960205260036040600020015560018060801b035a16906001600160801b0316614de3565b60025460405163481c6a7560e01b81526001600160a01b0390911690602081600481855afa90811561092257600091612837575b5060405163163e006760e11b815290602090829060049082906001600160a01b03165afa908115610922576000916127f5575b5061267060049362ffffff6020931690614e15565b916040519384809263481c6a7560e01b82525afa918215610922576000926127b6575b5060405163127d8c8360e31b815291602090839060049082906001600160a01b03165afa80156109225760ff6126e0916126e694600091612787575b5016486001600160801b0316614e15565b90614e2e565b60008381526009602090815260408083206001600160a01b03861684529091529020600601805490916001600160801b039061272490828416614e15565b169060018060801b03191617905581600052600960205260406000209060018060a01b03166000526020526000805160206158a28339815191526101e06040600020836000526009602052610798600160406000200161078d6040518094614e9c565b6127a9915060203d6020116127af575b6127a18183614112565b810190614dfc565b876126cf565b503d612797565b91506020823d6020116127ed575b816127d160209383614112565b810103126101655760206127e6600493614135565b9250612693565b3d91506127c4565b90506020813d60201161282f575b8161281060209383614112565b8101031261016557519162ffffff83168303610165579161267061265b565b3d9150612803565b90506020813d60201161286e575b8161285260209383614112565b81010312610165576020612867600492614135565b9150612628565b3d9150612845565b634e487b7160e01b600052604160045260246000fd5b6020806001928551815201930191019091612593565b9093506020813d6020116128ce575b816128be60209383614112565b8101031261016557519286612475565b3d91506128b1565b90503d94856000833e6128e98683614112565b6020828781010312610165578151956001600160401b03871161016557808301601f88850101121561016557868301519661292388614415565b916129316040519384614112565b888352840160208983870101011161016557612459976020948561295a9381860192010161485e565b915094612430565b60405162461bcd60e51b815260206004820152600360248201526221a7a360e91b6044820152606490fd5b60405162461bcd60e51b8152602060048201526003602482015262454e4560e81b6044820152606490fd5b9091506060813d606011612a06575b816129d460609383614112565b810103126101655760408051916129ea83614089565b80518352602081015160208401520151604082015290896122d2565b3d91506129c7565b606460405162461bcd60e51b81526020600482015260046024820152635252534560e01b6044820152fd5b60405162461bcd60e51b81526020600482015260026024820152610a4960f31b6044820152606490fd5b6020808093612a7186613f9c565b8152019301929150611f47565b606460405162461bcd60e51b81526020600482015260046024820152632320a62b60e11b6044820152fd5b60405162461bcd60e51b8152602060048201526003602482015262232a2b60e91b6044820152606490fd5b606460405162461bcd60e51b8152602060048201526004602482015263544e454f60e01b6044820152fd5b60405162461bcd60e51b815260206004820152600260248201526114d560f21b6044820152606490fd5b60405162461bcd60e51b81526020600482015260056024820152642b2a18272d60d91b6044820152606490fd5b60405162461bcd60e51b815260206004820152600360248201526221aa2d60e91b6044820152606490fd5b60405162461bcd60e51b815260206004820152600b60248201526a1d995c9a599e4819985a5b60aa1b6044820152606490fd5b612bc891503d8089833e610f178183614112565b38611cde565b60405162461bcd60e51b81526020600482015260036024820152624d434560e81b6044820152606490fd5b506101a08801516001600160a01b03163014611c7f565b90506020813d602011612c42575b81612c2b60209383614112565b8101031261016557612c3c90614135565b8a611c6e565b3d9150612c1e565b3461016557602036600319011261016557612c63613f46565b60006020604051612c73816140c0565b828152015260018060a01b0316600052600660205260408060002060018251612c9b816140c0565b602083549384835263ffffffff9384910154169101908152835192835251166020820152f35b34610165576020366003190112610165576004356001600160401b0380821161016557612cfe612cf8610260933690600401614011565b906150f9565b604051918082511683526020820151602084015260408201516040840152606082015160608401526080820151608084015260018060a01b03908160a08401511660a085015260c083015160c085015260e083015160e08501526101009081840151169084015261012080830151908401526101408083015190840152610160808301519084015261018080830151908401526101a0818184015116908401526101c0908183015116908301526101e08082015190830152610200808201519083015261022080820151908301526102408091015190820152f35b34610165576020366003190112610165576001600160a01b03612dfa613f46565b1660005260086020526020604060002054604051908152f35b3461016557606036600319011261016557612e2c613f86565b6024356001600160401b03811161016557612e4b903690600401613fe1565b6044359291906001600160401b03841161016557612e70612e88943690600401613fe1565b949093610a6d60018060a01b0360015416331461403e565b60025460405163481c6a7560e01b815293906001600160a01b0316602085600481845afa9485156109225760009561308b575b50602060049160405192838092635c60da1b60e01b82525afa90811561092257600091613051575b5060005b868110612ef057005b612efe610ea0828986614149565b60405163b288706d60e01b81526001600160401b039091166004820152906000826024816001600160a01b038b165afa91821561092257611ce660e061303194612f7793600091613036575b508051612f61906001600160401b0316151561431c565b0151612f71610f33858a8c614149565b906156a0565b612f85610f33828789614149565b6001600160401b03612f9b610ea0848c89614149565b16600090815260046020526040902080546001600160a01b0319166001600160a01b03909216919091179055612fd5610ea0828a87614149565b612fe3610f3383888a614149565b604080516001600160401b0390931683526001600160a01b039182166020840152908516917f8f2bbe31353a40442717cf80cfd6882db22eae2e1ca9ffd699967549fd26fafc9190a26143d5565b612ee7565b61304b91503d806000833e610f178183614112565b8c612f4a565b90506020813d602011613083575b8161306c60209383614112565b810103126101655761307d90614135565b86612ee3565b3d915061305f565b9094506020813d6020116130c4575b816130a760209383614112565b810103126101655760206130bc600492614135565b959150612ebb565b3d915061309a565b3461016557602080600319360112610165576130e6613f46565b6001546001600160a01b03918291613101908316331461403e565b169081600052600a835260018060401b038060016040600020015416151590816132e8575b50156132bd576000828152600a8452604090206001810180546001600160401b03198116825591939091906132005750613178906131819247915460401c1660005260088552604060002054906148dc565b600d54906148dc565b90548091106131d157600080808093335af161319b614791565b50156131a357005b6064906040519062461bcd60e51b8252600482015260076024820152664554483a20534560c81b6044820152fd5b60405162461bcd60e51b815260048101839052600760248201526622aa241d1024a360c91b6044820152606490fd5b905060401c166040516370a0823160e01b81523060048201528381602481855afa80156109225760009061328e575b61324891508260005260088552604060002054906148dc565b915480921061325d5761001b925033906148e9565b60405162461bcd60e51b815260048101849052600960248201526822a92199181d1024a360b91b6044820152606490fd5b508381813d83116132b6575b6132a48183614112565b8101031261016557613248905161322f565b503d61329a565b60405162461bcd60e51b81526004810184905260036024820152622baa2760e91b6044820152606490fd5b90506001604060002001541642101584613126565b34610165576020366003190112610165576060613318613f46565b60006040805161332781614089565b828152826020820152015260018060a01b03809116600052600a60205260406000209060405161335681614089565b600183549384835201549060208101836040600180821b03938486168452019360401c1683526040519485525116602084015251166040820152f35b34610165576000366003190112610165576002546040516001600160a01b039091168152602090f35b34610165576000366003190112610165576020600554604051908152f35b34610165576020366003190112610165576001600160401b036133fa613f86565b166000526004602052602060018060a01b0360406000205416604051908152f35b6040366003190112610165576001600160a01b03613437613f46565b168061343f57005b61001b906024359030903390614651565b61010036600319011261016557613465613f86565b6024356001600160401b0381169003610165576044356001600160401b0381169003610165576064356001600160401b03811690036101655760a435906001600160a01b0382168203610165575a9160405160208101906134cf8161056860843560243586614dc8565b5190206000818152600960205260409020600101549093906001600160a01b0316613b5f576001600160401b038381164290911610613b345783600052600960205260406000203360005260205260018060401b0360056040600020015416613b0a576001600160a01b038216613ab65760c4356611c37937e080008101809111611121573403613a89575b600d546611c37937e0800081018111611121576611c37937e0800001600d55600c5480151580613a6b575b613a37575b60643560443560401b0160243560801b018460c01b01600052600b60205260018060401b0360016040600020015416156138b6575b506136116004916135d560c43560c4356148a6565b60018060a01b03851660005260086020526135f660406000209182546148a6565b90556001600160801b035a16906001600160801b0316614de3565b60025460405163481c6a7560e01b81529260209184919082906001600160a01b03165afa91821561092257600092613877575b5060405163127d8c8360e31b815291602090839060049082906001600160a01b03165afa80156109225760ff6126e09161369094600091613858575016486001600160801b0316614e15565b906040519261369e846140a4565b60008085526001600160401b0391821660208087019182526001600160a01b0394851660408089019182526060890185905260c43560808a0181905260a08a015242861660c08a015260e0890185905260443586166101008a015260643586166101208a01526001600160801b039790971661014089015288845260098252868420338552909152949091208551815590516001820180546001600160401b0319908116929094169190911781559351600694919361375f929116906148b3565b606084015160028301805483166001600160401b039283161790556080850151600384015560a0850151600484015560c085015160058401805490931690821617825560e08501516137b2911682614e4a565b6101008401516137cb906001600160401b031682614e73565b61012084015181549060018060c01b03199060c01b169060018060c01b0316179055019061014060018060801b039101511660018060801b03198254161790558060005260096020526040600020336000526020526000805160206158a28339815191526101e06040600020836000526009602052610798600160406000200161078d6040518094614e9c565b613871915060203d6020116127af576127a18183614112565b886126cf565b91506020823d6020116138ae575b8161389260209383614112565b810103126101655760206138a7600493614135565b9250613644565b3d9150613885565b6040600020906139055760c084901b60243560801b60443560401b606435010101600c5560010180546001600160401b031916426001600160401b0316179055600490613611905b91506135c0565b60e435806139585750600c8054825560019190910180546001600160401b031916426001600160401b031617905560c084901b60243560801b60443560401b6064350101019055600490613611906138fe565b918260005260406000209260018060401b0360018501541615159081613a18575b50806139f9575b156139ce578254825560019190910180546001600160401b031916426001600160401b031617905560c084901b60243560801b60443560401b606435010101909155600490613611906138fe565b606460405162461bcd60e51b81526020600482015260046024820152630564c4e560e41b6044820152fd5b50825460643560443560401b0160243560801b018660c01b0111613980565b905060643560443560401b0160243560801b018660c01b011087613979565b60e43561358b5760405162461bcd60e51b81526020600482015260056024820152644c43494e4560d81b6044820152606490fd5b5060643560443560401b0160243560801b018460c01b018111613586565b60405162461bcd60e51b815260206004820152600560248201526412518ad35160da1b6044820152606490fd5b6611c37937e080003403613ae057613adb60c43530336001600160a01b038616614651565b61355b565b60405162461bcd60e51b815260206004820152600260248201526124a360f11b6044820152606490fd5b60405162461bcd60e51b815260206004820152600260248201526110d560f21b6044820152606490fd5b606460405162461bcd60e51b815260206004820152600460248201526329aa27a360e11b6044820152fd5b60405162461bcd60e51b8152602060048201526002602482015261434560f01b6044820152606490fd5b3461016557600036600319011261016557600054604080516001600160801b0383168152608083901c6001600160401b0316602082015260c09290921c90820152606090f35b346101655761010036600319011261016557613be9613f86565b613bf1613f5c565b6001600160401b0360443581811161016557613c11903690600401613fb0565b939060403660631901126101655760a43583811161016557613c37903690600401613fe1565b93909160c43582811161016557613c52903690600401613fe1565b93909160e4359560018060a01b03998a8816809803610165578a92611a8a613c8793610a6d60019d979d9e8f5416331461403e565b613c92858814614927565b1660005b868110613c9f57005b80613caf610ea08b938a8c614149565b60405190602091878382019287845216604082015260608a818301528152613cd6816140db565b51902090613ce5838988614149565b35918060005260079283835260406000205410613d06575b50505001613c96565b613d3392613d2b92613d19868c8b614149565b359260005252604060002054906148dc565b30338a614651565b8a8080613cfd565b3461016557604036600319011261016557613d54613f46565b60243560018060a01b038092613d6f8260015416331461403e565b1680600052602092600a845260018060401b038060016040600020015416613f005760048583600254166040519283809263481c6a7560e01b82525afa9081156109225783918791600091613ec9575b5060046040518094819363c7715ffd60e01b8352165afa90811561092257600091613e7f575b7f8be6a6805a6d0644a1441caf6cd521d524d1678f15c122c02382b708b09b525e60608787878b613e6e8980613e2163ffffffff8c16426148a6565b1693604051613e2f81614089565b878152848101928684526001604083019289845289600052600a88526040600020905181550193511660018060401b03198454161783555116906148b3565b6040519384528301526040820152a1005b905085818196959493963d8311613ec2575b613e9b8183614112565b8101031261016557519463ffffffff86168603610165579492939192909190613e6e613de5565b503d613e91565b92505081813d8311613ef9575b613ee08183614112565b810103126101655785613ef38492614135565b88613dbf565b503d613ed6565b60405162461bcd60e51b815260048101869052600360248201526229242160e91b6044820152606490fd5b34610165576000366003190112610165576020906003548152f35b600435906001600160a01b038216820361016557565b602435906001600160a01b038216820361016557565b35906001600160a01b038216820361016557565b600435906001600160401b038216820361016557565b35906001600160401b038216820361016557565b9181601f84011215610165578235916001600160401b03831161016557602080850194610240850201011161016557565b9181601f84011215610165578235916001600160401b038311610165576020808501948460051b01011161016557565b9181601f84011215610165578235916001600160401b038311610165576020838186019501011161016557565b1561404557565b606460405162461bcd60e51b815260206004820152602060248201527f4f776e61626c653a2063616c6c6572206973206e6f7420746865206f776e65726044820152fd5b606081019081106001600160401b0382111761287657604052565b61016081019081106001600160401b0382111761287657604052565b604081019081106001600160401b0382111761287657604052565b608081019081106001600160401b0382111761287657604052565b61026081019081106001600160401b0382111761287657604052565b601f909101601f19168101906001600160401b0382119082101761287657604052565b51906001600160a01b038216820361016557565b919081101561079b5760051b0190565b356001600160a01b03811681036101655790565b90816020910312610165575180151581036101655790565b1561418c57565b60405162461bcd60e51b8152602060048201526002602482015261454960f01b6044820152606490fd5b356001600160401b03811681036101655790565b51906001600160401b038216820361016557565b6001600160401b0381116128765760051b60200190565b90602080838303126101655782516001600160401b039384821161016557019261010093848185031261016557604051948501858110838211176128765760405261423f816141ca565b8552808301516001600160c01b03811681036101655783860152614265604082016141ca565b6040860152614276606082016141ca565b6060860152614287608082016141ca565b608086015261429860a082016141ca565b60a086015260c081015160c086015260e081015191821161016557019180601f840112156101655782516142cb816141de565b936142d96040519586614112565b818552838086019260051b820101928311610165578301905b828210614305575050505060e082015290565b83809161431184614135565b8152019101906142f2565b1561432357565b60405162461bcd60e51b8152602060048201526002602482015261434960f01b6044820152606490fd5b91908082526020809201929160005b82811061436a575050505090565b909192938280600192838060a01b0361438289613f72565b1681520195019392910161435c565b91908082526020809201929160005b8281106143ae575050505090565b909192938280600192838060401b036143c689613f9c565b168152019501939291016143a0565b60001981146111215760010190565b156143eb57565b60405162461bcd60e51b8152602060048201526002602482015261534960f01b6044820152606490fd5b6001600160401b03811161287657601f01601f191660200190565b805182101561079b5760209160051b010190565b6020908160408183019282815285518094520193019160005b82811061446b575050505090565b83518552938101939281019260010161445d565b600581101561457e57806144905750565b600181036144d85760405162461bcd60e51b815260206004820152601860248201527745434453413a20696e76616c6964207369676e617475726560401b6044820152606490fd5b600281036145255760405162461bcd60e51b815260206004820152601f60248201527f45434453413a20696e76616c6964207369676e6174757265206c656e677468006044820152606490fd5b60031461452e57565b60405162461bcd60e51b815260206004820152602260248201527f45434453413a20696e76616c6964207369676e6174757265202773272076616c604482015261756560f01b6064820152608490fd5b634e487b7160e01b600052602160045260246000fd5b9060418151146000146145c2576145be916020820151906060604084015193015160001a906145cc565b9091565b5050600090600290565b9291906fa2a8918ca85bafe22016d0b997e4df60600160ff1b0383116146455791608094939160ff602094604051948552168484015260408301526060820152600093849182805260015afa156146385781516001600160a01b03811615614632579190565b50600190565b50604051903d90823e3d90fd5b50505050600090600390565b6040516323b872dd60e01b60208201526001600160a01b03928316602482015292909116604483015260648083019390935291815260a08101918183106001600160401b03841117612876576146a9926040526146ab565b565b604051614709916001600160a01b03166146c4826140c0565b6000806020958685527f5361666545524332303a206c6f772d6c6576656c2063616c6c206661696c656487860152868151910182855af1614703614791565b916147c1565b805190828215928315614779575b505050156147225750565b6084906040519062461bcd60e51b82526004820152602a60248201527f5361666545524332303a204552433230206f7065726174696f6e20646964206e6044820152691bdd081cdd58d8d9595960b21b6064820152fd5b614789935082018101910161416d565b388281614717565b3d156147bc573d906147a282614415565b916147b06040519384614112565b82523d6000602084013e565b606090565b9192901561482357508151156147d5575090565b3b156147de5790565b60405162461bcd60e51b815260206004820152601d60248201527f416464726573733a2063616c6c20746f206e6f6e2d636f6e74726163740000006044820152606490fd5b8251909150156148365750805190602001fd5b60405162461bcd60e51b81526020600482015290819061485a906024830190614881565b0390fd5b60005b8381106148715750506000910152565b8181015183820152602001614861565b9060209161489a8151809281855285808601910161485e565b601f01601f1916010190565b9190820180921161112157565b8054600160401b600160e01b03191660409290921b600160401b600160e01b0316919091179055565b9190820391821161112157565b60405163a9059cbb60e01b60208201526001600160a01b0390921660248301526044808301939093529181526146a991614922826140db565b6146ab565b1561492e57565b60405162461bcd60e51b815260206004820152600360248201526214d41360ea1b6044820152606490fd5b919081101561079b57610240020190565b356001600160801b03811681036101655790565b359063ffffffff8216820361016557565b9160005b818110614bd45750506002546040805163481c6a7560e01b8152936001600160a01b03935060209283908690600490829088165afa948515614b8a57600095614b95575b5082846024819385519485938492632edbe4ef60e21b845216998a6004840152165afa908115614b8a5790614a1391600091614b6d5750614185565b6064358015614b4457846000526006835263ffffffff928360018181866000200154160116608435948516809503610165578403614b1c579060049392918660005260068152600183600020838155018463ffffffff19825416179055808660025416845196878092635c60da1b60e01b82525afa948515614b1157600095614abb575b508251968752860152840152169060008051602061590283398151915290606090a2565b90948582813d8311614b0a575b614ad28183614112565b81010312614b07575091600080516020615902833981519152959391614afa60609694614135565b9550919395929092614a97565b80fd5b503d614ac8565b83513d6000823e3d90fd5b60649083519062461bcd60e51b825260048201526002602482015261564560f01b6044820152fd5b815162461bcd60e51b8152600481018490526002602482015261292d60f11b6044820152606490fd5b614b849150843d861161091b5761090d8183614112565b38610f7b565b82513d6000823e3d90fd5b90948382813d8311614bcd575b614bac8183614112565b81010312614b07575082846024614bc38294614135565b97935050506149d7565b503d614ba2565b614be2610ea0828486614959565b6020906001600160401b0380614c0384614bfd87898b614959565b016141b6565b1691161015614cb157614c23610140614c1d848688614959565b0161496a565b614c34610160614c1d858789614959565b620186a0916001600160801b0391908216839006614c86571606614c5b5750600101614993565b6064906040519062461bcd60e51b8252600490818301526024820152635746493160e01b6044820152fd5b60405162461bcd60e51b815260048082018690526024820152630574649360e41b6044820152606490fd5b6064906040519062461bcd60e51b82526004820152600560248201526443304c433160d81b6044820152fd5b6000908152600b602052604090818120906001835192614cfc846140db565b8054845201549260018060401b0391828516806020860152828501908487851c16825284606087019760801c16875215614d9e57518316159485614d92575b50835180614d4b57505050505090565b8152600b6020528260018383200154831c161593841594614d79575b5050505081614d74575090565b905090565b518152206001015460801c161515905038808080614d67565b51831615945038614d3b565b825162461bcd60e51b815260206004820152600360248201526255435960e81b6044820152606490fd5b6001600160401b039091168152602081019190915260400190565b6001600160801b03918216908216039190821161112157565b90816020910312610165575160ff811681036101655790565b6001600160801b03918216908216019190821161112157565b6001600160801b03918216908216029081169190820361112157565b8054600160401b600160801b03191660409290921b600160401b600160801b0316919091179055565b8054600160801b600160c01b03191660809290921b600160801b600160c01b0316919091179055565b8054825260018101546001600160401b0380821660208501526001600160a01b03604092831c16828501526002830154811660608501526003830154608080860191909152600484015460a0860152600584015480831660c0808801919091529381901c831660e08701529081901c909116610100850152901c610120830152600601546001600160801b031661014090910152565b80546001600160a01b038116835260a01c6001600160401b03908116602084015260018201541660408301526002015460609190910152565b90604051614f78816140a4565b8254815260018301546001600160401b038082166020840152604091821c6001600160a01b0316828401526002850154811660608401526003850154608080850191909152600486015460a0850152600586015480831660c0808701919091529381901c831660e08601529081901c909116610100840152901c6101208201526006909201546001600160801b0316610140830152565b9060405161501c816140db565b82546001600160a01b038116825260a01c6001600160401b0390811660208301526001840154166040820152600292909201546060830152565b1561505d57565b606460405162461bcd60e51b81526020600482015260046024820152632721a1a360e11b6044820152fd5b1561508f57565b60405162461bcd60e51b81526020600482015260056024820152642b2a18a72d60d91b6044820152606490fd5b81835290916001600160fb1b0383116101655760209260051b809284830137010190565b6001600160401b03918216908216019190821161112157565b90600061024060405161510b816140f6565b8281528260208201528260408201528260608201528260808201528260a08201528260c08201528260e08201528261010082015282610120820152826101408201528261016082015282610180820152826101a0820152826101c0820152826101e082015282610200820152826102208201520152806102401161016557806101e01161016557806102001161016557806102201161016557806102601161016557806102801161016557806102a01161016557806102c01161016557806102e01161016557806103001161016557806103201161016557806103401161016557806101a01161016557806101c01161016557806105a0116101655780610a20116101655780610a40116101655780610b20116101655780610b40116101655780610b60116101655780610b80116101655780610ba0116101655780610bc0116101655780610a601161016557610a8011610165576040519061526d826140f6565b60018060401b036102208201351682526101e08101356101c082013560801b17602083015261020081013560408301526102408101356060830152610260810135608083015260018060a01b036102808201351660a08301526102a081013560c08301526102c081013560e083015260018060401b036102e0820135166101008301526103008101356101208301526103208101356101408301526101a081013561018082013560801b1761016083015261058081013561018083015260018060a01b03610a00820135166101a083015260018060a01b03610a20820135166101c0830152610b20810135610b0082013560801b176101e0830152610b60810135610b4082013560801b17610200830152610ba0810135610b8082013560801b17610220830152610a40610a6082013591013560801b1761024082015290565b903590601e198136030182121561016557018035906001600160401b0382116101655760200191606082023603831361016557565b156153e957565b60405162461bcd60e51b815260206004820152600660248201526526a4a72a27a360d11b6044820152606490fd5b1561541e57565b60405162461bcd60e51b815260206004820152600660248201526526a0ac2a27a360d11b6044820152606490fd5b81601f8201121561016557803591615463836141de565b926154716040519485614112565b808452602092838086019260051b820101928311610165578301905b82821061549b575050505090565b8380916154a784613f72565b81520191019061548d565b359060ff8216820361016557565b35906001600160801b038216820361016557565b156154db57565b606460405162461bcd60e51b81526020600482015260046024820152635256534560e01b6044820152fd5b903590601e198136030182121561016557018035906001600160401b03821161016557602001918160051b3603831361016557565b1561554257565b60405162461bcd60e51b8152602060048201526002602482015261111560f21b6044820152606490fd5b4260780180607811611121576001600160401b0390828216908110159081615652575b81615643575b50156156185760005490808260801c1690431611156155ed576001600160801b0390811660010191818311611121576001600160c01b031960c09190911b169116600160801b600160c01b034360801b161717600055565b60405162461bcd60e51b8152602060048201526003602482015262424e4560e81b6044820152606490fd5b606460405162461bcd60e51b815260206004820152600460248201526313d1915560e21b6044820152fd5b905060005460c01c1038615595565b9050610708428101809111611121578111159061558f565b9060005b8251811015615698576156818184614430565b5182146156905760010161566e565b505050600190565b505050600090565b9060005b8251811015615698576001600160a01b03806156c08386614430565b511690831614615690576001016156a4565b92909160401b019060801b019060c01b0190565b6040908151906156f5826140a4565b600080835280602084015280848401528060608401528060808401528060a08401528060c08401528060e08401526101009381858501526101209180838601526101408095015260018060401b0395868085511691169081148015615892575b1561586857835187169081036157fe57508583511695602084015116948184015160ff16608085015160a086015190600160801b60019003918260c0890151169183868a015116938a8a0151169463ffffffff97886101808c01511698806101c08d0151169b6102000151169c81519e8f906157d0826140a4565b8152602001528d015260608c015260808b015260a08a015260c089015260e088015286015284015282015290565b949560208401511695606084015160ff1660a0850151608086015190600160801b60019003918260e0890151169183888a015116936101608a0151169463ffffffff97886101a08c01511698806101e08d0151169b6102200151169c81519e8f906157d0826140a4565b815162461bcd60e51b815260206004820152600360248201526253434960e81b6044820152606490fd5b5086602085015116811461575556feb896503c0eaad8d3bd7e8f2abdb176afd1aaf66635c3404913862b01bf9899243cb86960d27f10c36827a013566ea74ce60fe0402128cb82d020889177c124290b91b68f980e47803e7858fa5a270c37d18f436399f86db162b14fbd0f376d5414ebfe1d09c7ff607d095a4d8c41180cfc5ce6a29321b1b0b8ed086408acca4aa164736f6c6343000811000a",
  "linkReferences": {},
  "deployedLinkReferences": {}
}