{
  "_format": "hh-sol-artifact-1",
  "contractName": "ORMakerDeposit",
  "sourceName": "contracts/ORMakerDeposit.sol",
  "abi": [
    {
      "anonymous": false,
      "inputs": [
        {
          "indexed": true,
          "internalType": "bytes32",
          "name": "challengeId",
          "type": "bytes32"
        },
        {
          "components": [
            {
              "internalType": "uint256",
              "name": "sourceTxFrom",
              "type": "uint256"
            },
            {
              "internalType": "uint64",
              "name": "sourceTxTime",
              "type": "uint64"
            },
            {
              "internalType": "address",
              "name": "freezeToken",
              "type": "address"
            },
            {
              "internalType": "uint64",
              "name": "challengeUserRatio",
              "type": "uint64"
            },
            {
              "internalType": "uint256",
              "name": "freezeAmount0",
              "type": "uint256"
            },
            {
              "internalType": "uint256",
              "name": "freezeAmount1",
              "type": "uint256"
            },
            {
              "internalType": "uint64",
              "name": "challengeTime",
              "type": "uint64"
            },
            {
              "internalType": "uint64",
              "name": "abortTime",
              "type": "uint64"
            },
            {
              "internalType": "uint64",
              "name": "sourceTxBlockNum",
              "type": "uint64"
            },
            {
              "internalType": "uint64",
              "name": "sourceTxIndex",
              "type": "uint64"
            },
            {
              "internalType": "uint128",
              "name": "challengerVerifyTransactionFee",
              "type": "uint128"
            }
          ],
          "indexed": false,
          "internalType": "struct IORMakerDeposit.ChallengeStatement",
          "name": "statement",
          "type": "tuple"
        },
        {
          "components": [
            {
              "internalType": "address",
              "name": "winner",
              "type": "address"
            },
            {
              "internalType": "uint64",
              "name": "verifiedTime0",
              "type": "uint64"
            },
            {
              "internalType": "uint64",
              "name": "verifiedTime1",
              "type": "uint64"
            },
            {
              "internalType": "uint64",
              "name": "lastChallengeBlockNum",
              "type": "uint64"
            },
            {
              "internalType": "bytes32",
              "name": "verifiedDataHash0",
              "type": "bytes32"
            }
          ],
          "indexed": false,
          "internalType": "struct IORMakerDeposit.ChallengeResult",
          "name": "result",
          "type": "tuple"
        }
      ],
      "name": "ChallengeInfoUpdated",
      "type": "event"
    },
    {
      "anonymous": false,
      "inputs": [
        {
          "indexed": true,
          "internalType": "address",
          "name": "impl",
          "type": "address"
        },
        {
          "indexed": false,
          "internalType": "bytes32",
          "name": "columnArrayHash",
          "type": "bytes32"
        },
        {
          "indexed": false,
          "internalType": "address[]",
          "name": "dealers",
          "type": "address[]"
        },
        {
          "indexed": false,
          "internalType": "address[]",
          "name": "ebcs",
          "type": "address[]"
        },
        {
          "indexed": false,
          "internalType": "uint64[]",
          "name": "chainIds",
          "type": "uint64[]"
        }
      ],
      "name": "ColumnArrayUpdated",
      "type": "event"
    },
    {
      "anonymous": false,
      "inputs": [
        {
          "indexed": true,
          "internalType": "address",
          "name": "impl",
          "type": "address"
        },
        {
          "indexed": false,
          "internalType": "uint256[]",
          "name": "responseMakers",
          "type": "uint256[]"
        }
      ],
      "name": "ResponseMakersUpdated",
      "type": "event"
    },
    {
      "anonymous": false,
      "inputs": [
        {
          "indexed": true,
          "internalType": "address",
          "name": "impl",
          "type": "address"
        },
        {
          "indexed": false,
          "internalType": "address",
          "name": "ebc",
          "type": "address"
        },
        {
          "components": [
            {
              "internalType": "bytes32",
              "name": "root",
              "type": "bytes32"
            },
            {
              "internalType": "uint32",
              "name": "version",
              "type": "uint32"
            }
          ],
          "indexed": false,
          "internalType": "struct RuleLib.RootWithVersion",
          "name": "rootWithVersion",
          "type": "tuple"
        }
      ],
      "name": "RulesRootUpdated",
      "type": "event"
    },
    {
      "anonymous": false,
      "inputs": [
        {
          "indexed": true,
          "internalType": "address",
          "name": "impl",
          "type": "address"
        },
        {
          "indexed": false,
          "internalType": "uint64",
          "name": "chainId",
          "type": "uint64"
        },
        {
          "indexed": false,
          "internalType": "address",
          "name": "spv",
          "type": "address"
        }
      ],
      "name": "SpvUpdated",
      "type": "event"
    },
    {
      "anonymous": false,
      "inputs": [
        {
          "indexed": false,
          "internalType": "uint256",
          "name": "requestAmount",
          "type": "uint256"
        },
        {
          "indexed": false,
          "internalType": "uint64",
          "name": "requestTimestamp",
          "type": "uint64"
        },
        {
          "indexed": false,
          "internalType": "address",
          "name": "requestToken",
          "type": "address"
        }
      ],
      "name": "WithdrawRequested",
      "type": "event"
    },
    {
      "inputs": [
        {
          "internalType": "uint256",
          "name": "challengeIdentNum",
          "type": "uint256"
        }
      ],
      "name": "canChallengeContinue",
      "outputs": [
        {
          "internalType": "bool",
          "name": "",
          "type": "bool"
        }
      ],
      "stateMutability": "view",
      "type": "function"
    },
    {
      "inputs": [
        {
          "internalType": "uint64",
          "name": "sourceTxTime",
          "type": "uint64"
        },
        {
          "internalType": "uint64",
          "name": "sourceChainId",
          "type": "uint64"
        },
        {
          "internalType": "uint64",
          "name": "sourceTxBlockNum",
          "type": "uint64"
        },
        {
          "internalType": "uint64",
          "name": "sourceTxIndex",
          "type": "uint64"
        },
        {
          "internalType": "bytes32",
          "name": "sourceTxHash",
          "type": "bytes32"
        },
        {
          "internalType": "bytes32",
          "name": "ruleKey",
          "type": "bytes32"
        },
        {
          "internalType": "address",
          "name": "freezeToken",
          "type": "address"
        },
        {
          "internalType": "uint256",
          "name": "freezeAmount1",
          "type": "uint256"
        },
        {
          "internalType": "uint256",
          "name": "parentNodeNumOfTargetNode",
          "type": "uint256"
        }
      ],
      "name": "challenge",
      "outputs": [],
      "stateMutability": "payable",
      "type": "function"
    },
    {
      "inputs": [
        {
          "internalType": "uint64",
          "name": "sourceChainId",
          "type": "uint64"
        },
        {
          "internalType": "bytes32",
          "name": "sourceTxHash",
          "type": "bytes32"
        },
        {
          "internalType": "address[]",
          "name": "challengers",
          "type": "address[]"
        }
      ],
      "name": "checkChallenge",
      "outputs": [],
      "stateMutability": "nonpayable",
      "type": "function"
    },
    {
      "inputs": [],
      "name": "columnArrayHash",
      "outputs": [
        {
          "internalType": "bytes32",
          "name": "",
          "type": "bytes32"
        }
      ],
      "stateMutability": "view",
      "type": "function"
    },
    {
      "inputs": [
        {
          "internalType": "address",
          "name": "token",
          "type": "address"
        },
        {
          "internalType": "uint256",
          "name": "amount",
          "type": "uint256"
        }
      ],
      "name": "deposit",
      "outputs": [],
      "stateMutability": "payable",
      "type": "function"
    },
    {
      "inputs": [
        {
          "internalType": "address",
          "name": "token",
          "type": "address"
        }
      ],
      "name": "freezeAssets",
      "outputs": [
        {
          "internalType": "uint256",
          "name": "",
          "type": "uint256"
        }
      ],
      "stateMutability": "view",
      "type": "function"
    },
    {
      "inputs": [],
      "name": "getVersionAndEnableTime",
      "outputs": [
        {
          "internalType": "uint128",
          "name": "version",
          "type": "uint128"
        },
        {
          "internalType": "uint64",
          "name": "blockNumber",
          "type": "uint64"
        },
        {
          "internalType": "uint64",
          "name": "enableTime",
          "type": "uint64"
        }
      ],
      "stateMutability": "view",
      "type": "function"
    },
    {
      "inputs": [
        {
          "internalType": "address",
          "name": "targetToken",
          "type": "address"
        }
      ],
      "name": "getWithdrawRequestList",
      "outputs": [
        {
          "components": [
            {
              "internalType": "uint256",
              "name": "requestAmount",
              "type": "uint256"
            },
            {
              "internalType": "uint64",
              "name": "requestTimestamp",
              "type": "uint64"
            },
            {
              "internalType": "address",
              "name": "requestToken",
              "type": "address"
            }
          ],
          "internalType": "struct IORMakerDeposit.WithdrawRequestList",
          "name": "",
          "type": "tuple"
        }
      ],
      "stateMutability": "view",
      "type": "function"
    },
    {
      "inputs": [
        {
          "internalType": "address",
          "name": "owner_",
          "type": "address"
        }
      ],
      "name": "initialize",
      "outputs": [],
      "stateMutability": "nonpayable",
      "type": "function"
    },
    {
      "inputs": [],
      "name": "mdcFactory",
      "outputs": [
        {
          "internalType": "address",
          "name": "",
          "type": "address"
        }
      ],
      "stateMutability": "view",
      "type": "function"
    },
    {
      "inputs": [],
      "name": "owner",
      "outputs": [
        {
          "internalType": "address",
          "name": "",
          "type": "address"
        }
      ],
      "stateMutability": "view",
      "type": "function"
    },
    {
      "inputs": [],
      "name": "responseMakersHash",
      "outputs": [
        {
          "internalType": "bytes32",
          "name": "",
          "type": "bytes32"
        }
      ],
      "stateMutability": "view",
      "type": "function"
    },
    {
      "inputs": [
        {
          "internalType": "address",
          "name": "ebc",
          "type": "address"
        }
      ],
      "name": "rulesRoot",
      "outputs": [
        {
          "components": [
            {
              "internalType": "bytes32",
              "name": "root",
              "type": "bytes32"
            },
            {
              "internalType": "uint32",
              "name": "version",
              "type": "uint32"
            }
          ],
          "internalType": "struct RuleLib.RootWithVersion",
          "name": "",
          "type": "tuple"
        }
      ],
      "stateMutability": "view",
      "type": "function"
    },
    {
      "inputs": [
        {
          "internalType": "uint64",
          "name": "chainId",
          "type": "uint64"
        }
      ],
      "name": "spv",
      "outputs": [
        {
          "internalType": "address",
          "name": "",
          "type": "address"
        }
      ],
      "stateMutability": "view",
      "type": "function"
    },
    {
      "inputs": [
        {
          "internalType": "uint64",
          "name": "enableTime",
          "type": "uint64"
        },
        {
          "internalType": "address[]",
          "name": "dealers",
          "type": "address[]"
        },
        {
          "internalType": "address[]",
          "name": "ebcs",
          "type": "address[]"
        },
        {
          "internalType": "uint64[]",
          "name": "chainIds",
          "type": "uint64[]"
        }
      ],
      "name": "updateColumnArray",
      "outputs": [],
      "stateMutability": "nonpayable",
      "type": "function"
    },
    {
      "inputs": [
        {
          "internalType": "uint64",
          "name": "enableTime",
          "type": "uint64"
        },
        {
          "internalType": "bytes[]",
          "name": "responseMakerSignatures",
          "type": "bytes[]"
        }
      ],
      "name": "updateResponseMakers",
      "outputs": [],
      "stateMutability": "nonpayable",
      "type": "function"
    },
    {
      "inputs": [
        {
          "internalType": "uint64",
          "name": "enableTime",
          "type": "uint64"
        },
        {
          "internalType": "address",
          "name": "ebc",
          "type": "address"
        },
        {
          "components": [
            {
              "internalType": "uint64",
              "name": "chainId0",
              "type": "uint64"
            },
            {
              "internalType": "uint64",
              "name": "chainId1",
              "type": "uint64"
            },
            {
              "internalType": "uint8",
              "name": "status0",
              "type": "uint8"
            },
            {
              "internalType": "uint8",
              "name": "status1",
              "type": "uint8"
            },
            {
              "internalType": "uint256",
              "name": "token0",
              "type": "uint256"
            },
            {
              "internalType": "uint256",
              "name": "token1",
              "type": "uint256"
            },
            {
              "internalType": "uint128",
              "name": "minPrice0",
              "type": "uint128"
            },
            {
              "internalType": "uint128",
              "name": "minPrice1",
              "type": "uint128"
            },
            {
              "internalType": "uint128",
              "name": "maxPrice0",
              "type": "uint128"
            },
            {
              "internalType": "uint128",
              "name": "maxPrice1",
              "type": "uint128"
            },
            {
              "internalType": "uint128",
              "name": "withholdingFee0",
              "type": "uint128"
            },
            {
              "internalType": "uint128",
              "name": "withholdingFee1",
              "type": "uint128"
            },
            {
              "internalType": "uint32",
              "name": "tradingFee0",
              "type": "uint32"
            },
            {
              "internalType": "uint32",
              "name": "tradingFee1",
              "type": "uint32"
            },
            {
              "internalType": "uint32",
              "name": "responseTime0",
              "type": "uint32"
            },
            {
              "internalType": "uint32",
              "name": "responseTime1",
              "type": "uint32"
            },
            {
              "internalType": "uint32",
              "name": "compensationRatio0",
              "type": "uint32"
            },
            {
              "internalType": "uint32",
              "name": "compensationRatio1",
              "type": "uint32"
            }
          ],
          "internalType": "struct RuleLib.Rule[]",
          "name": "rules",
          "type": "tuple[]"
        },
        {
          "components": [
            {
              "internalType": "bytes32",
              "name": "root",
              "type": "bytes32"
            },
            {
              "internalType": "uint32",
              "name": "version",
              "type": "uint32"
            }
          ],
          "internalType": "struct RuleLib.RootWithVersion",
          "name": "rootWithVersion",
          "type": "tuple"
        },
        {
          "internalType": "uint64[]",
          "name": "sourceChainIds",
          "type": "uint64[]"
        },
        {
          "internalType": "uint256[]",
          "name": "pledgeAmounts",
          "type": "uint256[]"
        }
      ],
      "name": "updateRulesRoot",
      "outputs": [],
      "stateMutability": "payable",
      "type": "function"
    },
    {
      "inputs": [
        {
          "internalType": "uint64",
          "name": "enableTime",
          "type": "uint64"
        },
        {
          "internalType": "address",
          "name": "ebc",
          "type": "address"
        },
        {
          "components": [
            {
              "internalType": "uint64",
              "name": "chainId0",
              "type": "uint64"
            },
            {
              "internalType": "uint64",
              "name": "chainId1",
              "type": "uint64"
            },
            {
              "internalType": "uint8",
              "name": "status0",
              "type": "uint8"
            },
            {
              "internalType": "uint8",
              "name": "status1",
              "type": "uint8"
            },
            {
              "internalType": "uint256",
              "name": "token0",
              "type": "uint256"
            },
            {
              "internalType": "uint256",
              "name": "token1",
              "type": "uint256"
            },
            {
              "internalType": "uint128",
              "name": "minPrice0",
              "type": "uint128"
            },
            {
              "internalType": "uint128",
              "name": "minPrice1",
              "type": "uint128"
            },
            {
              "internalType": "uint128",
              "name": "maxPrice0",
              "type": "uint128"
            },
            {
              "internalType": "uint128",
              "name": "maxPrice1",
              "type": "uint128"
            },
            {
              "internalType": "uint128",
              "name": "withholdingFee0",
              "type": "uint128"
            },
            {
              "internalType": "uint128",
              "name": "withholdingFee1",
              "type": "uint128"
            },
            {
              "internalType": "uint32",
              "name": "tradingFee0",
              "type": "uint32"
            },
            {
              "internalType": "uint32",
              "name": "tradingFee1",
              "type": "uint32"
            },
            {
              "internalType": "uint32",
              "name": "responseTime0",
              "type": "uint32"
            },
            {
              "internalType": "uint32",
              "name": "responseTime1",
              "type": "uint32"
            },
            {
              "internalType": "uint32",
              "name": "compensationRatio0",
              "type": "uint32"
            },
            {
              "internalType": "uint32",
              "name": "compensationRatio1",
              "type": "uint32"
            }
          ],
          "internalType": "struct RuleLib.Rule[]",
          "name": "rules",
          "type": "tuple[]"
        },
        {
          "components": [
            {
              "internalType": "bytes32",
              "name": "root",
              "type": "bytes32"
            },
            {
              "internalType": "uint32",
              "name": "version",
              "type": "uint32"
            }
          ],
          "internalType": "struct RuleLib.RootWithVersion",
          "name": "rootWithVersion",
          "type": "tuple"
        },
        {
          "internalType": "uint64[]",
          "name": "sourceChainIds",
          "type": "uint64[]"
        },
        {
          "internalType": "uint256[]",
          "name": "pledgeAmounts",
          "type": "uint256[]"
        },
        {
          "internalType": "address",
          "name": "token",
          "type": "address"
        }
      ],
      "name": "updateRulesRootERC20",
      "outputs": [],
      "stateMutability": "nonpayable",
      "type": "function"
    },
    {
      "inputs": [
        {
          "internalType": "uint64",
          "name": "enableTime",
          "type": "uint64"
        },
        {
          "internalType": "address[]",
          "name": "spvs",
          "type": "address[]"
        },
        {
          "internalType": "uint64[]",
          "name": "chainIds",
          "type": "uint64[]"
        }
      ],
      "name": "updateSpvs",
      "outputs": [],
      "stateMutability": "nonpayable",
      "type": "function"
    },
    {
      "inputs": [
        {
          "internalType": "address",
          "name": "challenger",
          "type": "address"
        },
        {
          "internalType": "address",
          "name": "spvAddress",
          "type": "address"
        },
        {
          "internalType": "uint64",
          "name": "sourceChainId",
          "type": "uint64"
        },
        {
          "internalType": "bytes32",
          "name": "sourceTxHash",
          "type": "bytes32"
        },
        {
          "internalType": "bytes",
          "name": "proof",
          "type": "bytes"
        },
        {
          "components": [
            {
              "internalType": "uint256",
              "name": "minChallengeSecond",
              "type": "uint256"
            },
            {
              "internalType": "uint256",
              "name": "maxChallengeSecond",
              "type": "uint256"
            },
            {
              "internalType": "uint256",
              "name": "nonce",
              "type": "uint256"
            },
            {
              "internalType": "uint256",
              "name": "destChainId",
              "type": "uint256"
            },
            {
              "internalType": "uint256",
              "name": "from",
              "type": "uint256"
            },
            {
              "internalType": "uint256",
              "name": "destToken",
              "type": "uint256"
            },
            {
              "internalType": "uint256",
              "name": "destAmount",
              "type": "uint256"
            },
            {
              "internalType": "uint256",
              "name": "responseMakersHash",
              "type": "uint256"
            },
            {
              "internalType": "uint256",
              "name": "responseTime",
              "type": "uint256"
            }
          ],
          "internalType": "struct IORMakerDeposit.verifiedDataInfo",
          "name": "verifiedSourceTxData",
          "type": "tuple"
        },
        {
          "internalType": "bytes",
          "name": "rawDatas",
          "type": "bytes"
        }
      ],
      "name": "verifyChallengeDest",
      "outputs": [],
      "stateMutability": "nonpayable",
      "type": "function"
    },
    {
      "inputs": [
        {
          "internalType": "address",
          "name": "challenger",
          "type": "address"
        },
        {
          "internalType": "address",
          "name": "spvAddress",
          "type": "address"
        },
        {
          "internalType": "uint64",
          "name": "sourceChainId",
          "type": "uint64"
        },
        {
          "internalType": "bytes",
          "name": "proof",
          "type": "bytes"
        },
        {
          "internalType": "bytes",
          "name": "rawDatas",
          "type": "bytes"
        },
        {
          "internalType": "bytes",
          "name": "encodeRuleBytes",
          "type": "bytes"
        }
      ],
      "name": "verifyChallengeSource",
      "outputs": [],
      "stateMutability": "nonpayable",
      "type": "function"
    },
    {
      "inputs": [
        {
          "internalType": "uint64",
          "name": "enableTime",
          "type": "uint64"
        }
      ],
      "name": "versionIncreaseAndEnableTime",
      "outputs": [],
      "stateMutability": "nonpayable",
      "type": "function"
    },
    {
      "inputs": [
        {
          "internalType": "address",
          "name": "token",
          "type": "address"
        }
      ],
      "name": "withdraw",
      "outputs": [],
      "stateMutability": "nonpayable",
      "type": "function"
    },
    {
      "inputs": [
        {
          "internalType": "address",
          "name": "requestToken",
          "type": "address"
        },
        {
          "internalType": "uint256",
          "name": "requestAmount",
          "type": "uint256"
        }
      ],
      "name": "withdrawRequest",
      "outputs": [],
      "stateMutability": "nonpayable",
      "type": "function"
    },
    {
      "stateMutability": "payable",
      "type": "receive"
    }
  ],
  "bytecode": "0x60808060405234610034577864000000000000000100000000000000000000000000000001600055615d2f90816200003a8239f35b600080fdfe608080604052600436101561001d575b50361561001b57600080fd5b005b60003560e01c90816302f17ed314614685575080630e030d9814613cc55780631b33644914613c9d5780631dbe6d8914613aa557806320e8036714613a1057806334bc98de146138a457806337eb04431461385e57806347e7ef241461382957806349c4bb76146137e75780634b4c85c4146137c95780634c20cb24146137a05780634fdea68e1461301a57806351cff8d914612df6578063539cb3a514612b11578063541fb3c41461147757806355027e7514610a6b5780635bcb403714610a31578063671ecbfe146109ba5780636d9437b1146108055780638da5cb5b146107dc5780638f5520d91461040c578063a531ffd8146103f0578063b315019c146101dd5763c4d66de814610132573861000f565b346101d85760203660031901126101d85761014b6146a0565b600154906001600160a01b03908183166101ad57168015610183576001600160a01b0319918216176001556002805490911633179055005b60405162461bcd60e51b815260206004820152600260248201526127ad60f11b6044820152606490fd5b606460405162461bcd60e51b81526020600482015260046024820152632fa7a72d60e11b6044820152fd5b600080fd5b346101d85760403660031901126101d8576101f66146f6565b6001600160401b03906024358281116101d85761021790369060040161477e565b919061023860018060a01b0392610233846001541633146147ae565b615961565b604051906020918281019030825283815261025281614830565b5190209461025f85614964565b9461026d6040519687614882565b808652601f19928361027e83614964565b01368689013760005b82811061035a578760048888886040516102b583820192826102a98986614bd0565b03908101835282614882565b51902060055580826002541660405194858092635c60da1b60e01b82525afa90811561034e5760009161030b575b50600080516020615ce38339815191529250610306604051928392169482614bd0565b0390a2005b905082813d8311610347575b6103218183614882565b810103126101d857610341600080516020615ce3833981519152926148a5565b846102e3565b503d610317565b6040513d6000823e3d90fd5b7b0ca2ba3432b932bab69029b4b3b732b21026b2b9b9b0b3b29d05199960211b60005288601c52603c600020908060051b830135601e19843603018112156101d8578301918235928684116101d85788019280360384136101d8576103d28a926103cc6103eb966103da943691614b85565b90614d20565b919091614c0b565b166103e5828b614bbc565b52614b5b565b610287565b346101d85760203660031901126101d85761001b6102336146f6565b346101d85760803660031901126101d8576104256146f6565b6024356001600160401b0381116101d85761044490369060040161477e565b6044356001600160401b0381116101d85761046390369060040161477e565b909290606435906001600160401b0382116101d8576104896104a192369060040161477e565b92909661023360018060a01b036001541633146147ae565b60648410806107d2575b806107c8575b1561079b5760025460405163481c6a7560e01b81526001600160a01b039091169390602081600481885afa90811561034e57600091610761575b5060005b8381106106d0575060005b84811061063d57505090600492916020866102a96105578a8c6040519384918a6105476105338a86019960608b5260808701908d614ad3565b8c601f199788888403016040890152614ad3565b9185858403016060860152614b17565b519020958660035560405195868092635c60da1b60e01b82525afa93841561034e576000946105df575b50600080516020615ca3833981519152966103069493926105b86105c693604051998a998a52608060208b015260808a0191614ad3565b918783036040890152614ad3565b84810360608601526001600160a01b0390921696614b17565b90929193506020813d602011610635575b816105fd60209383614882565b810103126101d857600080516020615ca383398151915296610306946105b86106286105c6946148a5565b9650509293915096610581565b3d91506105f0565b61065061064b82878c6148b9565b61493c565b60405163b288706d60e01b81526001600160401b039091166004820152906000826024816001600160a01b0387165afa91821561034e576001926106a7916000916106ad575b50838060401b039051161515614aa2565b016104fa565b6106ca91503d806000833e6106c28183614882565b81019061497b565b8c610696565b6106e36106de82868b6148b9565b6148df565b604051632edbe4ef60e21b81526001600160a01b03918216600482015291906020908390602490829087165afa91821561034e5760019261072c91600091610732575b5061490b565b016104ef565b610754915060203d60201161075a575b61074c8183614882565b8101906148f3565b8c610726565b503d610742565b90506020813d602011610793575b8161077c60209383614882565b810103126101d85761078d906148a5565b886104eb565b3d915061076f565b60405162461bcd60e51b81526020600482015260056024820152642222a1a7a360d91b6044820152606490fd5b50606482106104b1565b50600a81106104ab565b346101d85760003660031901126101d8576001546040516001600160a01b039091168152602090f35b60e03660031901126101d8576108196146f6565b6108216146b6565b6001600160401b0391906044358381116101d85761084390369060040161474d565b909360403660631901126101d85760a4358181116101d85761086990369060040161477e565b9060c435918383116101d8576108896108ae93969296369060040161477e565b93909560018060a01b03996108a860019a6102338d8d541633146147ae565b8461512c565b6108b98382146150d5565b60009760009216915b8181106108fc578834106108d257005b60405162461bcd60e51b815260206004820152600260248201526124ab60f11b6044820152606490fd5b61090a61064b82848a6148b9565b6040519060209187838201928784521660408201526060600081830152815261093281614867565b5190209061094183878a6148b9565b3590826000526007918282526040600020541061097b575b908392916109698c95898c6148b9565b359260005252604060002055016108c2565b9a906109af8493926109a98e848f98610996908f8e906148b9565b3591876000525260406000205490615079565b90615043565b9b9091929350610959565b346101d85760203660031901126101d8576109d36146a0565b600060206040516109e381614830565b828152015260018060a01b0316600052600660205260408060002060018251610a0b81614830565b602083549384835263ffffffff9384910154169101908152835192835251166020820152f35b346101d85760203660031901126101d8576001600160a01b03610a526146a0565b1660005260086020526020604060002054604051908152f35b346101d85760603660031901126101d857610a846146f6565b6044356001600160401b0381116101d857610aa390369060040161477e565b906040516020810190610acb81610abd6024358886615527565b03601f198101835282614882565b5190209081600052600960205260406000209360018060a01b036001860154166000528460205260406000209460405195610b05876147f9565b805487526001808201546001600160401b0380821660208b0152604091821c6001600160a01b0316828b01526002840154811660608b015260038401546080808c0191909152600485015460a08c0152600585015480831660c0808e01919091529381901c831660e08d01529081901c9091166101008b0152901c6101208901526006909101546001600160801b0316610140880152610ba690820161567e565b60025460405163481c6a7560e01b815291929190602090829060049082906001600160a01b03165afa90811561034e57600091611438575b5060405163b288706d60e01b81526001600160401b038516600482015290600090829060249082906001600160a01b03165afa90811561034e5760009161141d575b5060005b6001600160a01b03610c3a6106de838b8a6148b9565b1660005282602052604060002060405190610c54826147f9565b8054825260018101546001600160401b038082166020850152604091821c6001600160a01b0316828501526002830154811660608501526003830154608080860191909152600484015460a0860152600584015480831660c08088018290529482901c841660e08801529181901c909216610100860152911c6101208401526006909101546001600160801b0316610140830152156113f25760e08101516001600160401b03166113c8576001600160a01b03610d156106de848c8b6148b9565b1660005283602052610d3660018060401b0342166005604060002001615542565b602081015161010082015160018060401b036101208401511690600160401b600160801b039060401b16018760801b019060018060c01b03199060c01b160180600052600b60205260ff60016040600020015460401c1615611390575b60408601516001600160401b031615610f4657610daf9061593d565b60408101516001600160a01b0316610ed957610dd4608082015160a083015190615043565b906611c37937e0800082018211610ec357604060018060a01b03910151166000526008602052610e136611c37937e08000604060002092018254615079565b90555b6001600160a01b03610e2c6106de838b8a6148b9565b166000528260205286600080516020615c838339815191526102006040600020610e596040518092615586565b87516001600160a01b031661016082015260208801516001600160401b03908116610180830152604089015181166101a08301526060890151166101c082015260808801516101e0820152a287600019810111610ec3576000198801811461001b57600101610c24565b634e487b7160e01b600052601160045260246000fd5b610eec608082015160a083015190615043565b90604060018060a01b039101511660005260089081602052610f146040600020918254615079565b90556000805260205260406000208054806611c37937e07fff19810111610ec3576611c37937e07fff19019055610e16565b60208601516001600160401b0316156113335760a084015160208701516001600160401b0391610f7a9183169083166156da565b1642111561130857610f906106de848c8b6148b9565b86516001600160a01b038281169116036111e6575060a082015160011c60018060401b0360608401511690818102918183041481151715610ec35780620f42408304116111bb57620f4240610fe59204615043565b61100181610ffc608086015160a087015190615043565b615079565b6000928352600b602052604092839020600101805460ff60401b1916600160401b17905583519284015190926001600160a01b039081169116806111155750600080809381935af1611051614f1d565b50156110e55785516101408301516001600160a01b039091169161107e916001600160801b031690615043565b6611c37937e0800081018111610ec35760008080936611c37937e08000829401905af16110a9614f1d565b50156110b5575b610daf565b60405162461bcd60e51b815260206004820152600860248201526722aa241d1029a29960c11b6044820152606490fd5b60405162461bcd60e51b81526020600482015260086024820152674554483a2053453160c01b6044820152606490fd5b9061113693926111259183615086565b87516001600160a01b031690615086565b84516101408201516611c37937e08000916001600160a01b0316906001600160801b03168281018311610ec357600080939261117b8294839460a08901519101615043565b905af1611186614f1d565b506110b05760405162461bcd60e51b81526020600482015260086024820152674554483a2053453360c01b6044820152606490fd5b606460405162461bcd60e51b81526020600482015260046024820152632aa0a7a360e11b6044820152fd5b602083810151908d01519192506001600160401b03918216911614806112ea575b806112cb575b806112ac575b8061129b575b1515600114611229575b50610daf565b60a0820151906611c37937e08000918083018311610ec35760009283928392839201906001600160a01b03165af161125f614f1d565b501561126b578a611223565b60405162461bcd60e51b81526020600482015260086024820152671155120e8814d14d60c21b6044820152606490fd5b5060a082810151908c015114611219565b5061012082810151908c01516001600160401b03908116911614611213565b5061010082810151908c01516001600160401b0390811691161461120d565b50604082810151908c01516001600160a01b03908116911614611207565b606460405162461bcd60e51b81526020600482015260046024820152631590d4d560e21b6044820152fd5b606084015160208301516001600160401b03916113549183169083166156da565b16421115611365576110b09061593d565b606460405162461bcd60e51b8152602060048201526004602482015263159114d560e21b6044820152fd5b6113998161547a565b610d9357606460405162461bcd60e51b81526020600482015260046024820152632721a1a360e11b6044820152fd5b60405162461bcd60e51b8152602060048201526002602482015261434160f01b6044820152606490fd5b60405162461bcd60e51b8152602060048201526003602482015262434e4560e81b6044820152606490fd5b61143291503d806000833e6106c28183614882565b88610c20565b90506020813d60201161146f575b8161145360209383614882565b810103126101d85760006114686024926148a5565b9150610bde565b3d9150611446565b346101d85760c03660031901126101d8576114906146a0565b6114986146b6565b6114a06146e0565b916064356001600160401b0381116101d8576114c0903690600401614720565b90939091906084356001600160401b0381116101d8576114e4903690600401614720565b60a435956001600160401b0387116101d85761150560049736908901614720565b9490985a60025460405163481c6a7560e01b81529a9199916020918c919082906001600160a01b03165afa998a1561034e5760009a612ad5575b5060405163b288706d60e01b81526001600160401b03841660048201526000816024816001600160a01b038f165afa90811561034e578560e06115959361159093600091612aba575b500151615a95565b6156f3565b60405163c0b71b7b60e01b815293602085806115b5858760048401615725565b038160006001600160a01b0386165af192831561034e576115e36000946115ff978691612a9b575b5061574d565b60405180968194829363b6d4c1d360e01b845260048401615725565b03916001600160a01b03165afa91821561034e57600092612827575b5060005b6040516315edfbf960e11b81526020816004816001600160a01b038e165afa90811561034e576000916127ed575b50602061165f836103a0870151614bbc565b51604051631da4b94960e21b8152600481019190915291829060249082906001600160a01b03165afa801561034e576000906127b9575b6116a2915015156157dc565b6103a08301515180600019810111610ec3576000190181146116c65760010161161f565b5061018082015160025460405163481c6a7560e01b81528b9a506001600160a01b0392831692909160209183916004918391165afa90811561034e5760009161277f575b506001600160a01b03161480612768575b1561273d5760208201516001600160401b039182169116036127125760018060401b03602082015116610abd61175d8351604051928391602083019586615527565b51902094856000526009602052604060002060018060a01b03821660005260205260406000209460405195611791876147f9565b8054875260018101546001600160401b0380821660208a0152604091821c6001600160a01b0316828a01526002830154811660608a015260038301546080808b0191909152600484015460a08b0152600584015480831660c0808d018290529482901c841660e08d01529181901c9092166101008b0152911c6101208901526006909101546001600160801b0316610140880152156126e75760008781526009602052604090206001015460a01c6001600160401b03166126ba5760008781526009602081815260408084206001600160a01b0387168552808352908420938b9052918152600182018054600160a01b600160e01b0319164260a01b600160a01b600160e01b031617905561010086015190890151929b919691926001600160401b039182169116036126905760018060401b03610120890151166040860151036126665760808501516001546001600160a01b0391821691160361263b57604088015160a08601516001600160a01b03908116911681149081612623575b5080612603575b156125d85760a088015160c086015160011b036125ad5761010085015161197c9061194b906001600160401b031642615079565b610320870151611966906001600160401b031682101561580e565b6103408701516001600160401b03161015615843565b86016080878203126101d85786356001600160401b0381116101d857816119a4918901615878565b60208801356001600160401b0381116101d857826119c3918a01615878565b6040890135939092906001600160401b0385116101d85781601f868c010112156101d857899185830135906119f782614964565b96611a056040519889614882565b828852602088019160208396838660051b91010101116101d857908c602083820101925b60208560051b8284010101841061259257505050505060608a01356001600160a01b03811690036101d857611a5f368783614b85565b60208151910120610300890151036125675761018088015160405163489fec3960e11b81529190602090839060049082906001600160a01b03165afa91821561034e57600092612522575b509561024091611ad097604051809981948293633742fb8b60e01b845260048401615725565b03916001600160a01b03165afa94851561034e5760009561239c575b50611b0b91611b1d604051938492606060208501526080840190615900565b828103601f1901604084015285615900565b818103601f19016060830152855180825260209091019060005b81811061237a575050611b53925003601f198101835282614882565b602081519101206102008601510361234f5760c08501516040516391032df360e01b81526004810191909152906060826024818b8401356001600160a01b03165afa91821561034e576000926122f9575b5060208201519081600019810111610ec3576001600160a01b0391611bcf9160001990910190614bbc565b511660608801356001600160a01b0316036122ce5760400180518251106122a357519081600019810111610ec3576001600160401b0391611c169160001990910190614bbc565b516040909701516102a085015191909716966001600160a01b03908116911603612278576020830151611c54916001600160401b0390911690615ac7565b60c083810151604080516369bb8a9960e11b8152600481019290925283516001600160401b039081166024840152602085015116604483015283015160ff1660648201526060808401516084830152608084015160a483015260a08401516001600160801b0390811660c484015292840151831660e483015260e084015190921661010482015261010083015163ffffffff908116610124830152610120840151811661014483015261014084015116610164820152959192919060009087906101849082908501356001600160a01b03165afa95861561034e576000966121f7575b506020611d5e966040518098819262b67b0b60e01b8352846004840152602483019061500d565b038160608501356001600160a01b03165afa95861561034e576000966121c3575b5060208301516001600160401b0316870361219857604080516060909201356001600160a01b03166020830190815260068383015290825290611dc181614815565b5190206101a08401510361216d576060830151808a556102c084015160028b0180546001600160401b0319166001600160401b039283161790556001860180546001600160a01b0319166001600160a01b039094169390931790925561036084015161038085015160e086015160808601516102209097015161012096870151604051929a9487169893871697929663ffffffff91909116959194939287019081119087111761215757600080516020615c838339815191529a6102009a6101009861012089016040528a8952602089015260408801526060870152608086015260a085015260c084015260e083015282820152604051926020840152602081015160408401526040810151606084015260608101516080840152608081015160a084015260a081015160c084015260c081015160e084015260e08101518284015201516101208201526101208152611f198161484b565b602081519101206003820155611f4460405191611f368389615586565b60016101608401910161561c565ba260025460405163481c6a7560e01b81526001600160a01b0390911691602082600481865afa91821561034e57600092612118575b5060405163127d8c8360e31b815291602090839060049082906001600160a01b03165afa801561034e576004926000916120f9575b5062ffffff90602090611fd9906001600160801b0390611fd090851648615043565b16935a90615079565b946040519485809263481c6a7560e01b82525afa92831561034e576000936120ba575b5060405163297f542b60e21b815292602090849060049082906001600160a01b03165afa801561034e5760069461205094600092612087575b506001600160801b039261204a921690615043565b16615662565b9101805490916001600160801b0390811681831601908111610ec3576001600160801b03166001600160801b031991909116179055005b61204a92506120ad9060203d6020116120b3575b6120a58183614882565b81019061556b565b91612035565b503d61209b565b92506020833d6020116120f1575b816120d560209383614882565b810103126101d85760206120ea6004946148a5565b9350611ffc565b3d91506120c8565b612112915060203d6020116120b3576120a58183614882565b85611fae565b91506020823d60201161214f575b8161213360209383614882565b810103126101d85760206121486004936148a5565b9250611f79565b3d9150612126565b634e487b7160e01b600052604160045260246000fd5b606460405162461bcd60e51b81526020600482015260046024820152635252534560e01b6044820152fd5b60405162461bcd60e51b815260206004820152600360248201526244434960e81b6044820152606490fd5b9095506020813d6020116121ef575b816121df60209383614882565b810103126101d85751948a611d7f565b3d91506121d2565b95503d806000883e6122098188614882565b8601956020818803126101d8578051906001600160401b0382116101d857019580601f880112156101d85786519061224082614b6a565b9061224e6040519283614882565b8282526020838a0101116101d857612271602092611d5e99848085019101614fea565b9650611d37565b60405162461bcd60e51b8152602060048201526003602482015262222a2b60e91b6044820152606490fd5b60405162461bcd60e51b815260206004820152600360248201526221a7a360e91b6044820152606490fd5b60405162461bcd60e51b8152602060048201526003602482015262454e4560e81b6044820152606490fd5b9091506060813d606011612347575b8161231560609383614882565b810103126101d857604080519161232b83614815565b805183526020810151602084015201516040820152908c611ba4565b3d9150612308565b60405162461bcd60e51b815260206004820152600360248201526243484560e81b6044820152606490fd5b84516001600160401b0316835260209485019486945090920191600101611b37565b909450610240813d6102401161251a575b816123bb6102409383614882565b810103126101d857604051906001600160401b036102408301908111908311176121575761024082016040526123f081614950565b82526123fe60208201614950565b602083015261240f604082016158de565b6040830152612420606082016158de565b60608301526080810151608083015260a081015160a083015261244560c082016158ec565b60c083015261245660e082016158ec565b60e083015261246861010082016158ec565b61010083015261247b61012082016158ec565b61012083015261248e61014082016158ec565b6101408301526101606124a28183016158ec565b908301526124b36101808201615032565b6101808301526101a06124c7818301615032565b908301526101c06124d9818301615032565b908301526101e06124eb818301615032565b908301526102006124fd818301615032565b9083015261250f610220809201615032565b90820152938d611aec565b3d91506123ad565b9150956020823d60201161255f575b8161253e60209383614882565b810103126101d857611ad096612556610240936148a5565b92509096611aaa565b3d9150612531565b60405162461bcd60e51b815260206004820152600360248201526245524560e81b6044820152606490fd5b60208080946125a08761470c565b8152019401939250611a29565b606460405162461bcd60e51b81526020600482015260046024820152632320a62b60e11b6044820152fd5b60405162461bcd60e51b8152602060048201526003602482015262232a2b60e91b6044820152606490fd5b506102808501516102a08601516001600160a01b03908116911614611917565b6102808701516001600160a01b03161490508c611910565b606460405162461bcd60e51b8152602060048201526004602482015263544e454f60e01b6044820152fd5b60405162461bcd60e51b8152602060048201526002602482015261544960f01b6044820152606490fd5b60405162461bcd60e51b815260206004820152600260248201526114d560f21b6044820152606490fd5b60405162461bcd60e51b81526020600482015260056024820152642b2a18272d60d91b6044820152606490fd5b60405162461bcd60e51b815260206004820152600360248201526221aa2d60e91b6044820152606490fd5b60405162461bcd60e51b815260206004820152600360248201526210d25160ea1b6044820152606490fd5b60405162461bcd60e51b81526020600482015260036024820152624d434560e81b6044820152606490fd5b506101608201516001600160a01b0316301461171b565b90506020813d6020116127b1575b8161279a60209383614882565b810103126101d8576127ab906148a5565b8a61170a565b3d915061278d565b506020813d6020116127e5575b816127d360209383614882565b810103126101d8576116a29051611696565b3d91506127c6565b90506020813d60201161281f575b8161280860209383614882565b810103126101d857612819906148a5565b8b61164d565b3d91506127fb565b9091503d806000833e61283a8183614882565b60208282810103126101d8578151916001600160401b0383116101d8576103c083820183830103126101d857604051926001600160401b036103c0850190811190851117612157576103c084016040528181018051855261289d90602001614950565b60208501528181016040818101519086015260608082015190860152608080820151908601526128cf9060a0016148a5565b60a085015260c0818301015160c085015260e0818301015160e08501526101006128fc8183850101614950565b9085015261012061291081838501016148a5565b9085015261014061292481838501016148a5565b9085015261016061293881838501016148a5565b9085015261018061294c81838501016148a5565b908501528181016101a081810151908601526101c080820151908601526101e090612978908201614950565b9085015281810161020081810151908601526102208082015190860152610240906129a4908201614950565b908501526102606129b88183850101614950565b908501526102806129cc81838501016148a5565b908501526102a06129e081838501016148a5565b908501526102c06129f48183850101614950565b908501526102e0612a088183850101614950565b9085015261030080828401015190850152610320612a298183850101614950565b90850152610340612a3d8183850101614950565b90850152610360612a518183850101614950565b90850152610380612a658183850101614950565b908501528181016103a00151906001600160401b0382116101d857612a8e93830192010161577e565b6103a0820152908961161b565b612ab4915060203d60201161075a5761074c8183614882565b8f6115dd565b612acf91503d806000833e6106c28183614882565b38611588565b9099506020813d602011612b09575b81612af160209383614882565b810103126101d857612b02906148a5565b988b61153f565b3d9150612ae4565b346101d85760603660031901126101d857612b2a6146f6565b6024356001600160401b0381116101d857612b4990369060040161477e565b9160443591906001600160401b0383116101d857612b6e612b8693369060040161477e565b93909161023360018060a01b036001541633146147ae565b60025460405163481c6a7560e01b815293906001600160a01b0316602085600481845afa94851561034e57600095612db5575b50602060049160405192838092635c60da1b60e01b82525afa90811561034e57600091612d7b575b5060005b828110612bee57005b612bfc61064b8285876148b9565b60405163b288706d60e01b81526001600160401b0390911660048201526000816024816001600160a01b038b165afa90811561034e57612c6e9160e091600091612d60575b508051612c58906001600160401b03161515614aa2565b0151612c686106de848b8a6148b9565b90615a95565b15612d365780612c856106de612d31938a896148b9565b6001600160401b03612c9b61064b84888a6148b9565b16600090815260046020526040902080546001600160a01b0319166001600160a01b03909216919091179055612cd561064b8286886148b9565b612ce36106de838b8a6148b9565b604080516001600160401b0390931683526001600160a01b039182166020840152908516917f8f2bbe31353a40442717cf80cfd6882db22eae2e1ca9ffd699967549fd26fafc9190a2614b5b565b612be5565b60405162461bcd60e51b8152602060048201526002602482015261534960f01b6044820152606490fd5b612d7591503d806000833e6106c28183614882565b8a612c41565b90506020813d602011612dad575b81612d9660209383614882565b810103126101d857612da7906148a5565b86612be1565b3d9150612d89565b9094506020813d602011612dee575b81612dd160209383614882565b810103126101d8576020612de66004926148a5565b959150612bb9565b3d9150612dc4565b346101d8576020806003193601126101d857612e106146a0565b6001546001600160a01b03918291612e2b90831633146147ae565b169081600052600a835260018060401b03806001604060002001541615159081613005575b5015612fda576000828152600a8452604090206001810180546001600160401b0319811682559193909190612f1d5750612e9e9147915460401c166000526008845260406000205490615079565b9054809110612eee57600080808093335af1612eb8614f1d565b5015612ec057005b6064906040519062461bcd60e51b8252600482015260076024820152664554483a20534560c81b6044820152fd5b60405162461bcd60e51b815260048101839052600760248201526622aa241d1024a360c91b6044820152606490fd5b905060401c166040516370a0823160e01b81523060048201528381602481855afa801561034e57600090612fab575b612f659150826000526008855260406000205490615079565b9154809210612f7a5761001b92503390615086565b60405162461bcd60e51b815260048101849052600960248201526822a92199181d1024a360b91b6044820152606490fd5b508381813d8311612fd3575b612fc18183614882565b810103126101d857612f659051612f4c565b503d612fb7565b60405162461bcd60e51b81526004810184905260036024820152622baa2760e91b6044820152606490fd5b90506001604060002001541642101584612e50565b6101203660031901126101d85761302f6146f6565b6024356001600160401b03811690036101d85761304a6146e0565b606480356001600160401b03811690036101d85760c4356001600160a01b03811681036101d8575a91604051602081019061308e81610abd60843560243586615527565b5190206000818152600960205260409020600101549094906001600160a01b0316613778576001600160401b0386811642909116111561374e5784600052600960205260406000203360005260205260018060401b03600560406000200154166137265760008581526009602052604090819020600201546001600160401b03911c81164390911611156136fd57600085815260096020526040902061314190436001600160401b031690600201615542565b6001600160a01b038316613637576611c37937e0800060e435818101808211610ec357340361360b578061317491615043565b908082018211610ec3576131a19060018060a01b0386166000526008602052604060002092018254615043565b90555b81358160401b0160243560801b018660c01b01600052600b60205260018060401b0360016040600020015416156134d8575b60025460405163481c6a7560e01b815290602090829060049082906001600160a01b03165afa90811561034e57600091613499575b5060405163127d8c8360e31b815290602090829060049082906001600160a01b03165afa90811561034e5760009161347a575b506001600160801b03906132579062ffffff1648615043565b169260405196613266886147f9565b60008089526001600160401b039182166020808b019182526001600160a01b039485166040808d0191825260608d0185905260e43560808e0181905260a08e015242861660c08e015260e08d018590529685166101008d0152963584166101208c01526101408b01979097528882526009875284822033835290965292909220875181559351600185018054919093166001600160401b03199182161783559251600694939261331a929190911690615050565b606086015160028301805483166001600160401b039283161790556080870151600384015560a0870151600484015560c087015160058401805490931690821617825560e087015161336d911682615542565b610100860151815460018060c01b031961012089015160c01b1691600160801b600160c01b039060801b169060018060801b031617179055019261014060018060801b03910151169260018060801b0319938482541617905581600052600960205260406000203360005260205281600080516020615c83833981519152610200604060002083600052600960205261341f60016040600020016134146040518094615586565b61016083019061561c565ba26001600160801b0390613434905a90615079565b1690600052600960205260406000203360005260205260066040600020019182549161346f60018060801b039160018060801b038516615662565b169116179055600080f35b613493915060203d6020116120b3576120a58183614882565b8761323e565b90506020813d6020116134d0575b816134b460209383614882565b810103126101d85760206134c96004926148a5565b915061320b565b3d91506134a7565b6040600020600c5483358360401b0160243560801b018860c01b011160001461353c57600c8054825560019190910180546001600160401b031916426001600160401b031617905560c087901b60243560801b604084901b853501010190556131d6565b61010435908160005260406000209160018060401b03600184015416151590816135ef575b50806135d3575b156135a9578154815560010180546001600160401b031916426001600160401b031617905560c087901b60243560801b604084901b853501010190556131d6565b8360405162461bcd60e51b81526020600482015260046024820152630564c4e560e41b6044820152fd5b50815484358460401b0160243560801b018960c01b0111613568565b905084358460401b0160243560801b018960c01b011089613561565b60405162461bcd60e51b815260206004820152600560248201526412518ad35160da1b60448201528490fd5b6611c37937e0800034036136d55761366660e4356136608130336001600160a01b038916614ddd565b80615043565b60018060a01b03841660005260086020526136876040600020918254615043565b90556000805260086020527f5eff886ea0ce6ca488a3d6e336d6c0f75f46d19b42c06ce5ee98e42c96d256c780546611c37937e0800081018111610ec3576611c37937e080000190556131a4565b5060405162461bcd60e51b815260206004820152600260248201526124a360f11b6044820152fd5b5060405162461bcd60e51b815260206004820152600360248201526226212760e91b6044820152fd5b5060405162461bcd60e51b815260206004820152600260248201526110d560f21b6044820152fd5b5060405162461bcd60e51b815260206004820152600460248201526329aa27a360e11b6044820152fd5b5060405162461bcd60e51b8152602060048201526002602482015261434560f01b6044820152fd5b346101d85760003660031901126101d8576002546040516001600160a01b039091168152602090f35b346101d85760003660031901126101d8576020600554604051908152f35b346101d85760203660031901126101d8576001600160401b036138086146f6565b166000526004602052602060018060a01b0360406000205416604051908152f35b60403660031901126101d8576001600160a01b036138456146a0565b168061384d57005b61001b906024359030903390614ddd565b346101d85760003660031901126101d857600054604080516001600160801b0383168152608083901c6001600160401b0316602082015260c09290921c90820152606090f35b346101d8576101003660031901126101d8576138be6146f6565b6138c66146b6565b6001600160401b036044358181116101d8576138e690369060040161474d565b939060403660631901126101d85760a4358381116101d85761390c90369060040161477e565b93909160c4358281116101d85761392790369060040161477e565b93909160e4359560018060a01b03998a88168098036101d8578a926108a861395c9361023360019d979d9e8f541633146147ae565b6139678588146150d5565b1660005b86811061397457005b8061398461064b8b938a8c6148b9565b60405190602091878382019287845216604082015260608a8183015281526139ab81614867565b519020906139ba8389886148b9565b359180600052600792838352604060002054106139db575b5050500161396b565b613a0892613a00926139ee868c8b6148b9565b35926000525260406000205490615079565b30338a614ddd565b8a80806139d2565b346101d85760203660031901126101d8576060613a2b6146a0565b600060408051613a3a81614815565b828152826020820152015260018060a01b03809116600052600a602052604060002090604051613a6981614815565b600183549384835201549060208101836040600180821b03938486168452019360401c1683526040519485525116602084015251166040820152f35b346101d85760403660031901126101d857613abe6146a0565b60243560018060a01b038092613ad9826001541633146147ae565b16806000526020600a815260018060401b038060016040600020015416613c7257906004918186600254166040519485809263481c6a7560e01b82525afa801561034e578693600091613c39575b50829060046040518099819363c7715ffd60e01b8352165afa95861561034e57600096613bd8575b5090613bc782606096959493613b7a63ffffffff600080516020615cc38339815191529a1642615043565b1693604051613b8881614815565b878152848101928684526001604083019289845289600052600a88526040600020905181550193511660018060401b0319845416178355511690615050565b6040519384528301526040820152a1005b9550939291908086813d8311613c32575b613bf38183614882565b810103126101d857613bc785606096613b7a63ffffffff613c22600080516020615cc38339815191529b615032565b9a50505050919293949550613b4f565b503d613be9565b809450838092503d8311613c6b575b613c528183614882565b810103126101d85781613c6587946148a5565b90613b27565b503d613c48565b60405162461bcd60e51b815260048101839052600360248201526229242160e91b6044820152606490fd5b346101d85760203660031901126101d8576020613cbb60043561547a565b6040519015158152f35b346101d8576101e03660031901126101d857613cdf6146a0565b613ce76146b6565b90613cf06146e0565b906084356001600160401b0381116101d857613d10903690600401614720565b93906101203660a31901126101d8576101c435936001600160401b0385116101d857613d4160049536908701614720565b929096602060018060a01b03600254166040519889809263481c6a7560e01b82525afa96871561034e57600097614649575b5060405163b288706d60e01b81526001600160401b03841660048201526000816024816001600160a01b038c165afa90811561034e578660e0613dc3936115909360009161462e57500151615a95565b604051633b43f9c160e21b81529460208680613de3858760048401615725565b038160006001600160a01b0386165af192831561034e57613e10600094613e2c98869161460f575061574d565b60405180978194829363737726bb60e01b845260048401615725565b03916001600160a01b03165afa92831561034e57600093614536575b5060005b6040516315edfbf960e11b81526020816004816001600160a01b038b165afa90811561034e576000916144fc575b506020613e8b8360c0880151614bbc565b51604051631da4b94960e21b8152600481019190915291829060249082906001600160a01b03165afa801561034e576000906144c8575b613ece915015156157dc565b60c0840151516000198101908111610ec3578114613eee57600101613e4c565b50859450613f0c610abd916040519283916064359060208401615527565b6020815191012093846000526009602052604060002060018060a01b03851660005260205260406000209160405192613f44846147f9565b805484526001808201546001600160401b03808216602080890191909152604092831c6001600160a01b03168389015260028501548216606089015260038501546080808a0191909152600486015460a08a0152600586015480841660c0808c019190915281861c851660e08c01529181901c9093166101008a01529190911c6101208801526006909301546001600160801b031661014087015260008981526009909352909120613ff6910161567e565b80519091906001600160a01b0387811691160361449d5760208201516001600160401b0316156144725760408201516001600160401b03166144455782016020838203126101d8578235906001600160401b0382116101d85780601f8386010112156101d857818401359161406a83614964565b946140786040519687614882565b838652602086019260208560051b8484010101116101d85780820160200192915b60208560051b8284010101841061443157505050505060405160a435602082015260c435604082015260e43560608201526101043560808201526101243560a08201526101443560c08201526101643560e0820152610184356101008201526101a43561012082015261012081526141108161484b565b602081519101206080820151036144065760405160208101614144826141368684614bd0565b03601f198101845283614882565b6101843591519020036143db57602001516141969061416c906001600160401b031642615079565b61418360a4356001600160401b031682101561580e565b60c4356001600160401b03161015615843565b82516001600160401b031661010435036143b0576141ba6020840191825190615a5f565b908115614396575b501561436b576040820151610124350361433e5760608201516101443503614314576141f360e43561016435615043565b6080830151036142e9576020015160a0909101516001600160401b03908116911681811091826142c3575b5050156142985760008281526009602081815260408084206002810180546001600160401b031916426001600160401b03161790556001600160a01b0390951684528482528084209386905291905251600080516020615c8383398151915292610200926142959160010190613414908490615586565ba2005b60405162461bcd60e51b81526020600482015260036024820152621494d560ea1b6044820152606490fd5b0390506001600160401b038111610ec3576001600160401b03166101a43511838061421e565b60405162461bcd60e51b815260206004820152600360248201526211105560ea1b6044820152606490fd5b60405162461bcd60e51b8152602060048201526002602482015261111560f21b6044820152606490fd5b60405162461bcd60e51b81526020600482015260056024820152642220a2222960d91b6044820152606490fd5b60405162461bcd60e51b81526020600482015260036024820152624d494360e81b6044820152606490fd5b516001546001600160a01b039081169116149050856141c2565b606460405162461bcd60e51b81526020600482015260046024820152631110d25160e21b6044820152fd5b60405162461bcd60e51b81526020600482015260036024820152620a49a960eb1b6044820152606490fd5b606460405162461bcd60e51b81526020600482015260046024820152630564448360e41b6044820152fd5b602080809486358152019401939250614099565b60405162461bcd60e51b81526020600482015260056024820152642b2a18a72d60d91b6044820152606490fd5b606460405162461bcd60e51b81526020600482015260046024820152632b2a182d60e11b6044820152fd5b60405162461bcd60e51b8152602060048201526003602482015262574e4560e81b6044820152606490fd5b506020813d6020116144f4575b816144e260209383614882565b810103126101d857613ece9051613ec2565b3d91506144d5565b90506020813d60201161452e575b8161451760209383614882565b810103126101d857614528906148a5565b88613e7a565b3d915061450a565b9092503d806000833e6145498183614882565b60208282810103126101d8578151916001600160401b0383116101d85760e083820183830103126101d857604051926001600160401b0360e08501908111908511176121575760e084016040526145a1818301614950565b8452818101602081810151908601526040808201519086015260608082015190860152608080820151908601526145da9060a001614950565b60a085015281810160c00151906001600160401b0382116101d85761460393830192010161577e565b60c08201529186613e48565b614628915060203d60201161075a5761074c8183614882565b8c6115dd565b61464391503d806000833e6106c28183614882565b8d611588565b9096506020813d60201161467d575b8161466560209383614882565b810103126101d857614676906148a5565b9588613d73565b3d9150614658565b346101d85760003660031901126101d8576020906003548152f35b600435906001600160a01b03821682036101d857565b602435906001600160a01b03821682036101d857565b35906001600160a01b03821682036101d857565b604435906001600160401b03821682036101d857565b600435906001600160401b03821682036101d857565b35906001600160401b03821682036101d857565b9181601f840112156101d8578235916001600160401b0383116101d857602083818601950101116101d857565b9181601f840112156101d8578235916001600160401b0383116101d85760208085019461024085020101116101d857565b9181601f840112156101d8578235916001600160401b0383116101d8576020808501948460051b0101116101d857565b156147b557565b606460405162461bcd60e51b815260206004820152602060248201527f4f776e61626c653a2063616c6c6572206973206e6f7420746865206f776e65726044820152fd5b61016081019081106001600160401b0382111761215757604052565b606081019081106001600160401b0382111761215757604052565b604081019081106001600160401b0382111761215757604052565b61014081019081106001600160401b0382111761215757604052565b608081019081106001600160401b0382111761215757604052565b601f909101601f19168101906001600160401b0382119082101761215757604052565b51906001600160a01b03821682036101d857565b91908110156148c95760051b0190565b634e487b7160e01b600052603260045260246000fd5b356001600160a01b03811681036101d85790565b908160209103126101d8575180151581036101d85790565b1561491257565b60405162461bcd60e51b8152602060048201526002602482015261454960f01b6044820152606490fd5b356001600160401b03811681036101d85790565b51906001600160401b03821682036101d857565b6001600160401b0381116121575760051b60200190565b90602080838303126101d85782516001600160401b03938482116101d85701926101009384818503126101d85760405194850185811083821117612157576040526149c581614950565b8552808301516001600160c01b03811681036101d857838601526149eb60408201614950565b60408601526149fc60608201614950565b6060860152614a0d60808201614950565b6080860152614a1e60a08201614950565b60a086015260c081015160c086015260e08101519182116101d857019180601f840112156101d8578251614a5181614964565b93614a5f6040519586614882565b818552838086019260051b8201019283116101d8578301905b828210614a8b575050505060e082015290565b838091614a97846148a5565b815201910190614a78565b15614aa957565b60405162461bcd60e51b8152602060048201526002602482015261434960f01b6044820152606490fd5b91908082526020809201929160005b828110614af0575050505090565b909192938280600192838060a01b03614b08896146cc565b16815201950193929101614ae2565b91908082526020809201929160005b828110614b34575050505090565b909192938280600192838060401b03614b4c8961470c565b16815201950193929101614b26565b6000198114610ec35760010190565b6001600160401b03811161215757601f01601f191660200190565b929192614b9182614b6a565b91614b9f6040519384614882565b8294818452818301116101d8578281602093846000960137010152565b80518210156148c95760209160051b010190565b6020908160408183019282815285518094520193019160005b828110614bf7575050505090565b835185529381019392810192600101614be9565b6005811015614d0a5780614c1c5750565b60018103614c645760405162461bcd60e51b815260206004820152601860248201527745434453413a20696e76616c6964207369676e617475726560401b6044820152606490fd5b60028103614cb15760405162461bcd60e51b815260206004820152601f60248201527f45434453413a20696e76616c6964207369676e6174757265206c656e677468006044820152606490fd5b600314614cba57565b60405162461bcd60e51b815260206004820152602260248201527f45434453413a20696e76616c6964207369676e6174757265202773272076616c604482015261756560f01b6064820152608490fd5b634e487b7160e01b600052602160045260246000fd5b906041815114600014614d4e57614d4a916020820151906060604084015193015160001a90614d58565b9091565b5050600090600290565b9291906fa2a8918ca85bafe22016d0b997e4df60600160ff1b038311614dd15791608094939160ff602094604051948552168484015260408301526060820152600093849182805260015afa15614dc45781516001600160a01b03811615614dbe579190565b50600190565b50604051903d90823e3d90fd5b50505050600090600390565b6040516323b872dd60e01b60208201526001600160a01b03928316602482015292909116604483015260648083019390935291815260a08101918183106001600160401b0384111761215757614e3592604052614e37565b565b604051614e95916001600160a01b0316614e5082614830565b6000806020958685527f5361666545524332303a206c6f772d6c6576656c2063616c6c206661696c656487860152868151910182855af1614e8f614f1d565b91614f4d565b805190828215928315614f05575b50505015614eae5750565b6084906040519062461bcd60e51b82526004820152602a60248201527f5361666545524332303a204552433230206f7065726174696f6e20646964206e6044820152691bdd081cdd58d8d9595960b21b6064820152fd5b614f1593508201810191016148f3565b388281614ea3565b3d15614f48573d90614f2e82614b6a565b91614f3c6040519384614882565b82523d6000602084013e565b606090565b91929015614faf5750815115614f61575090565b3b15614f6a5790565b60405162461bcd60e51b815260206004820152601d60248201527f416464726573733a2063616c6c20746f206e6f6e2d636f6e74726163740000006044820152606490fd5b825190915015614fc25750805190602001fd5b60405162461bcd60e51b815260206004820152908190614fe690602483019061500d565b0390fd5b60005b838110614ffd5750506000910152565b8181015183820152602001614fed565b9060209161502681518092818552858086019101614fea565b601f01601f1916010190565b519063ffffffff821682036101d857565b91908201809211610ec357565b8054600160401b600160e01b03191660409290921b600160401b600160e01b0316919091179055565b91908203918211610ec357565b60405163a9059cbb60e01b60208201526001600160a01b03909216602483015260448083019390935291815260808101916001600160401b0383118284101761215757614e3592604052614e37565b156150dc57565b60405162461bcd60e51b815260206004820152600360248201526214d41360ea1b6044820152606490fd5b91908110156148c957610240020190565b356001600160801b03811681036101d85790565b9160005b8181106153715750506002546040805163481c6a7560e01b8152936001600160a01b03935060209283908690600490829088165afa94851561532757600095615332575b5082846024819385519485938492632edbe4ef60e21b845216998a6004840152165afa90811561532757906151b09160009161530a575061490b565b60643580156152e157846000526006835263ffffffff9283600181818660002001541601166084359485168095036101d85784036152b9579060049392918660005260068152600183600020838155018463ffffffff19825416179055808660025416845196878092635c60da1b60e01b82525afa9485156152ae57600095615258575b5082519687528601528401521690600080516020615d0383398151915290606090a2565b90948582813d83116152a7575b61526f8183614882565b810103126152a4575091600080516020615d03833981519152959391615297606096946148a5565b9550919395929092615234565b80fd5b503d615265565b83513d6000823e3d90fd5b60649083519062461bcd60e51b825260048201526002602482015261564560f01b6044820152fd5b815162461bcd60e51b8152600481018490526002602482015261292d60f11b6044820152606490fd5b6153219150843d861161075a5761074c8183614882565b38610726565b82513d6000823e3d90fd5b90948382813d831161536a575b6153498183614882565b810103126152a457508284602461536082946148a5565b9793505050615174565b503d61533f565b61537f61064b828486615107565b6020906001600160401b03806153a08461539a87898b615107565b0161493c565b169116101561544e576153c06101406153ba848688615107565b01615118565b6153d16101606153ba858789615107565b620186a0916001600160801b03919082168390066154235716066153f85750600101615130565b6064906040519062461bcd60e51b8252600490818301526024820152635746493160e01b6044820152fd5b60405162461bcd60e51b815260048082018690526024820152630574649360e41b6044820152606490fd5b6064906040519062461bcd60e51b82526004820152600560248201526443304c433160d81b6044820152fd5b600052600b60205260408060002090600181519261549784614815565b8054845201546001600160401b0381166020840181905290821c60ff16151582840190815290156154fd575115915180156000146154d457505090565b60019160ff91600052600b60205282816000200154901c16151514816154f8575090565b905090565b815162461bcd60e51b815260206004820152600360248201526255435960e81b6044820152606490fd5b6001600160401b039091168152602081019190915260400190565b8054600160401b600160801b03191660409290921b600160401b600160801b0316919091179055565b908160209103126101d8575162ffffff811681036101d85790565b8054825260018101546001600160401b0380821660208501526001600160a01b03604092831c16828501526002830154811660608501526003830154608080860191909152600484015460a0860152600584015480831660c0808801919091529381901c831660e08701529081901c909116610100850152901c610120830152600601546001600160801b031661014090910152565b80546001600160a01b038116835260a01c6001600160401b03908116602084015260018201548082166040808601919091521c1660608301526002015460809190910152565b6001600160801b039182169082160290811691908203610ec357565b6040516001600160401b03929160a082018481118382101761215757604090815281546001600160a01b038116845260a01c85166020840152600182015480861684830152901c90931660608201526002909201546080830152565b6001600160401b039182169082160191908211610ec357565b156156fa57565b606460405162461bcd60e51b81526020600482015260046024820152635350564960e01b6044820152fd5b90918060409360208452816020850152848401376000828201840152601f01601f1916010190565b1561575457565b60405162461bcd60e51b81526020600482015260026024820152612b2360f11b6044820152606490fd5b81601f820112156101d85780519161579583614964565b926157a36040519485614882565b808452602092838086019260051b8201019283116101d8578301905b8282106157cd575050505090565b815181529083019083016157bf565b156157e357565b60405162461bcd60e51b815260206004820152600360248201526212509360ea1b6044820152606490fd5b1561581557565b60405162461bcd60e51b815260206004820152600660248201526526a4a72a27a360d11b6044820152606490fd5b1561584a57565b60405162461bcd60e51b815260206004820152600660248201526526a0ac2a27a360d11b6044820152606490fd5b81601f820112156101d85780359161588f83614964565b9261589d6040519485614882565b808452602092838086019260051b8201019283116101d8578301905b8282106158c7575050505090565b8380916158d3846146cc565b8152019101906158b9565b519060ff821682036101d857565b51906001600160801b03821682036101d857565b90815180825260208080930193019160005b828110615920575050505090565b83516001600160a01b031685529381019392810192600101615912565b6000908152600b60205260409020600101805460ff60401b1916600160401b179055565b4260780180607811610ec3576001600160401b0390828216908110159081615a47575b81615a38575b5015615a0d5760005490808260801c1690431611156159e2576001600160801b0390811660010191818311610ec3576001600160c01b031960c09190911b169116600160801b600160c01b034360801b161717600055565b60405162461bcd60e51b8152602060048201526003602482015262424e4560e81b6044820152606490fd5b606460405162461bcd60e51b815260206004820152600460248201526313d1915560e21b6044820152fd5b905060005460c01c103861598a565b9050610708428101809111610ec35781111590615984565b9060005b8251811015615a8d57615a768184614bbc565b518214615a8557600101615a63565b505050600190565b505050600090565b9060005b8251811015615a8d576001600160a01b0380615ab58386614bbc565b511690831614615a8557600101615a99565b604090815190615ad6826147f9565b600080835280602084015280848401528060608401528060808401528060a08401528060c08401528060e08401526101009381858501526101209180838601526101408095015260018060401b0395868085511691169081148015615c73575b15615c495783518716908103615bdf57508583511695602084015116948184015160ff16608085015160a086015190600160801b60019003918260c0890151169183868a015116938a8a0151169463ffffffff97886101808c01511698806101c08d0151169b6102000151169c81519e8f90615bb1826147f9565b8152602001528d015260608c015260808b015260a08a015260c089015260e088015286015284015282015290565b949560208401511695606084015160ff1660a0850151608086015190600160801b60019003918260e0890151169183888a015116936101608a0151169463ffffffff97886101a08c01511698806101e08d0151169b6102200151169c81519e8f90615bb1826147f9565b815162461bcd60e51b815260206004820152600360248201526253434960e81b6044820152606490fd5b50866020850151168114615b3656fe1cf9b9f121ee5926c69fe70cbd7482b0d10e60431ba4f285fd6ce12b19c0aa0f3cb86960d27f10c36827a013566ea74ce60fe0402128cb82d020889177c124298be6a6805a6d0644a1441caf6cd521d524d1678f15c122c02382b708b09b525e0b91b68f980e47803e7858fa5a270c37d18f436399f86db162b14fbd0f376d5414ebfe1d09c7ff607d095a4d8c41180cfc5ce6a29321b1b0b8ed086408acca4aa164736f6c6343000811000a",
  "linkReferences": {},
  "deployedLinkReferences": {}
}