{
  "_format": "hh-sol-artifact-1",
  "contractName": "ORMakerDeposit",
  "sourceName": "contracts/ORMakerDeposit.sol",
  "abi": [
    {
      "anonymous": false,
      "inputs": [
        {
          "indexed": true,
          "internalType": "bytes32",
          "name": "challengeId",
          "type": "bytes32"
        },
        {
          "components": [
            {
              "internalType": "uint256",
              "name": "sourceTxFrom",
              "type": "uint256"
            },
            {
              "internalType": "uint64",
              "name": "sourceTxTime",
              "type": "uint64"
            },
            {
              "internalType": "address",
              "name": "freezeToken",
              "type": "address"
            },
            {
              "internalType": "uint64",
              "name": "challengeUserRatio",
              "type": "uint64"
            },
            {
              "internalType": "uint256",
              "name": "freezeAmount0",
              "type": "uint256"
            },
            {
              "internalType": "uint256",
              "name": "freezeAmount1",
              "type": "uint256"
            },
            {
              "internalType": "uint64",
              "name": "challengeTime",
              "type": "uint64"
            },
            {
              "internalType": "uint64",
              "name": "abortTime",
              "type": "uint64"
            },
            {
              "internalType": "uint256",
              "name": "gasUsed",
              "type": "uint256"
            }
          ],
          "indexed": false,
          "internalType": "struct IORMakerDeposit.ChallengeStatement",
          "name": "statement",
          "type": "tuple"
        },
        {
          "components": [
            {
              "internalType": "address",
              "name": "winner",
              "type": "address"
            },
            {
              "internalType": "uint64",
              "name": "verifiedTime0",
              "type": "uint64"
            },
            {
              "internalType": "uint64",
              "name": "verifiedTime1",
              "type": "uint64"
            },
            {
              "internalType": "bytes32",
              "name": "verifiedDataHash0",
              "type": "bytes32"
            }
          ],
          "indexed": false,
          "internalType": "struct IORMakerDeposit.ChallengeResult",
          "name": "result",
          "type": "tuple"
        }
      ],
      "name": "ChallengeInfoUpdated",
      "type": "event"
    },
    {
      "anonymous": false,
      "inputs": [
        {
          "indexed": true,
          "internalType": "address",
          "name": "impl",
          "type": "address"
        },
        {
          "indexed": false,
          "internalType": "bytes32",
          "name": "columnArrayHash",
          "type": "bytes32"
        },
        {
          "indexed": false,
          "internalType": "address[]",
          "name": "dealers",
          "type": "address[]"
        },
        {
          "indexed": false,
          "internalType": "address[]",
          "name": "ebcs",
          "type": "address[]"
        },
        {
          "indexed": false,
          "internalType": "uint64[]",
          "name": "chainIds",
          "type": "uint64[]"
        }
      ],
      "name": "ColumnArrayUpdated",
      "type": "event"
    },
    {
      "anonymous": false,
      "inputs": [
        {
          "indexed": true,
          "internalType": "address",
          "name": "impl",
          "type": "address"
        },
        {
          "indexed": false,
          "internalType": "uint256[]",
          "name": "responseMakers",
          "type": "uint256[]"
        }
      ],
      "name": "ResponseMakersUpdated",
      "type": "event"
    },
    {
      "anonymous": false,
      "inputs": [
        {
          "indexed": true,
          "internalType": "address",
          "name": "impl",
          "type": "address"
        },
        {
          "indexed": false,
          "internalType": "address",
          "name": "ebc",
          "type": "address"
        },
        {
          "components": [
            {
              "internalType": "bytes32",
              "name": "root",
              "type": "bytes32"
            },
            {
              "internalType": "uint32",
              "name": "version",
              "type": "uint32"
            }
          ],
          "indexed": false,
          "internalType": "struct RuleLib.RootWithVersion",
          "name": "rootWithVersion",
          "type": "tuple"
        }
      ],
      "name": "RulesRootUpdated",
      "type": "event"
    },
    {
      "anonymous": false,
      "inputs": [
        {
          "indexed": true,
          "internalType": "address",
          "name": "impl",
          "type": "address"
        },
        {
          "indexed": false,
          "internalType": "uint64",
          "name": "chainId",
          "type": "uint64"
        },
        {
          "indexed": false,
          "internalType": "address",
          "name": "spv",
          "type": "address"
        }
      ],
      "name": "SpvUpdated",
      "type": "event"
    },
    {
      "inputs": [
        {
          "internalType": "uint64",
          "name": "sourceChainId",
          "type": "uint64"
        },
        {
          "internalType": "bytes32",
          "name": "sourceTxHash",
          "type": "bytes32"
        },
        {
          "internalType": "uint64",
          "name": "sourceTxTime",
          "type": "uint64"
        },
        {
          "internalType": "address",
          "name": "freezeToken",
          "type": "address"
        },
        {
          "internalType": "uint256",
          "name": "freezeAmount1",
          "type": "uint256"
        }
      ],
      "name": "challenge",
      "outputs": [],
      "stateMutability": "payable",
      "type": "function"
    },
    {
      "inputs": [
        {
          "internalType": "uint64",
          "name": "sourceChainId",
          "type": "uint64"
        },
        {
          "internalType": "bytes32",
          "name": "sourceTxHash",
          "type": "bytes32"
        },
        {
          "internalType": "uint256[]",
          "name": "verifiedData0",
          "type": "uint256[]"
        },
        {
          "internalType": "address[]",
          "name": "challenger",
          "type": "address[]"
        }
      ],
      "name": "checkChallenge",
      "outputs": [],
      "stateMutability": "nonpayable",
      "type": "function"
    },
    {
      "inputs": [],
      "name": "columnArrayHash",
      "outputs": [
        {
          "internalType": "bytes32",
          "name": "",
          "type": "bytes32"
        }
      ],
      "stateMutability": "view",
      "type": "function"
    },
    {
      "inputs": [
        {
          "internalType": "address",
          "name": "token",
          "type": "address"
        },
        {
          "internalType": "uint256",
          "name": "amount",
          "type": "uint256"
        }
      ],
      "name": "deposit",
      "outputs": [],
      "stateMutability": "payable",
      "type": "function"
    },
    {
      "inputs": [
        {
          "internalType": "address",
          "name": "token",
          "type": "address"
        }
      ],
      "name": "freezeAssets",
      "outputs": [
        {
          "internalType": "uint256",
          "name": "",
          "type": "uint256"
        }
      ],
      "stateMutability": "view",
      "type": "function"
    },
    {
      "inputs": [],
      "name": "getVersionAndEnableTime",
      "outputs": [
        {
          "internalType": "uint128",
          "name": "version",
          "type": "uint128"
        },
        {
          "internalType": "uint64",
          "name": "blockNumber",
          "type": "uint64"
        },
        {
          "internalType": "uint64",
          "name": "enableTime",
          "type": "uint64"
        }
      ],
      "stateMutability": "view",
      "type": "function"
    },
    {
      "inputs": [
        {
          "internalType": "address",
          "name": "owner_",
          "type": "address"
        }
      ],
      "name": "initialize",
      "outputs": [],
      "stateMutability": "nonpayable",
      "type": "function"
    },
    {
      "inputs": [],
      "name": "mdcFactory",
      "outputs": [
        {
          "internalType": "address",
          "name": "",
          "type": "address"
        }
      ],
      "stateMutability": "view",
      "type": "function"
    },
    {
      "inputs": [],
      "name": "owner",
      "outputs": [
        {
          "internalType": "address",
          "name": "",
          "type": "address"
        }
      ],
      "stateMutability": "view",
      "type": "function"
    },
    {
      "inputs": [],
      "name": "responseMakersHash",
      "outputs": [
        {
          "internalType": "bytes32",
          "name": "",
          "type": "bytes32"
        }
      ],
      "stateMutability": "view",
      "type": "function"
    },
    {
      "inputs": [
        {
          "internalType": "address",
          "name": "ebc",
          "type": "address"
        }
      ],
      "name": "rulesRoot",
      "outputs": [
        {
          "components": [
            {
              "internalType": "bytes32",
              "name": "root",
              "type": "bytes32"
            },
            {
              "internalType": "uint32",
              "name": "version",
              "type": "uint32"
            }
          ],
          "internalType": "struct RuleLib.RootWithVersion",
          "name": "",
          "type": "tuple"
        }
      ],
      "stateMutability": "view",
      "type": "function"
    },
    {
      "inputs": [
        {
          "internalType": "uint64",
          "name": "chainId",
          "type": "uint64"
        }
      ],
      "name": "spv",
      "outputs": [
        {
          "internalType": "address",
          "name": "",
          "type": "address"
        }
      ],
      "stateMutability": "view",
      "type": "function"
    },
    {
      "inputs": [
        {
          "internalType": "uint64",
          "name": "enableTime",
          "type": "uint64"
        },
        {
          "internalType": "address[]",
          "name": "dealers",
          "type": "address[]"
        },
        {
          "internalType": "address[]",
          "name": "ebcs",
          "type": "address[]"
        },
        {
          "internalType": "uint64[]",
          "name": "chainIds",
          "type": "uint64[]"
        }
      ],
      "name": "updateColumnArray",
      "outputs": [],
      "stateMutability": "nonpayable",
      "type": "function"
    },
    {
      "inputs": [
        {
          "internalType": "uint64",
          "name": "enableTime",
          "type": "uint64"
        },
        {
          "internalType": "bytes[]",
          "name": "responseMakerSignatures",
          "type": "bytes[]"
        }
      ],
      "name": "updateResponseMakers",
      "outputs": [],
      "stateMutability": "nonpayable",
      "type": "function"
    },
    {
      "inputs": [
        {
          "internalType": "uint64",
          "name": "enableTime",
          "type": "uint64"
        },
        {
          "internalType": "address",
          "name": "ebc",
          "type": "address"
        },
        {
          "components": [
            {
              "internalType": "uint64",
              "name": "chainId0",
              "type": "uint64"
            },
            {
              "internalType": "uint64",
              "name": "chainId1",
              "type": "uint64"
            },
            {
              "internalType": "uint8",
              "name": "status0",
              "type": "uint8"
            },
            {
              "internalType": "uint8",
              "name": "status1",
              "type": "uint8"
            },
            {
              "internalType": "uint256",
              "name": "token0",
              "type": "uint256"
            },
            {
              "internalType": "uint256",
              "name": "token1",
              "type": "uint256"
            },
            {
              "internalType": "uint128",
              "name": "minPrice0",
              "type": "uint128"
            },
            {
              "internalType": "uint128",
              "name": "minPrice1",
              "type": "uint128"
            },
            {
              "internalType": "uint128",
              "name": "maxPrice0",
              "type": "uint128"
            },
            {
              "internalType": "uint128",
              "name": "maxPrice1",
              "type": "uint128"
            },
            {
              "internalType": "uint128",
              "name": "withholdingFee0",
              "type": "uint128"
            },
            {
              "internalType": "uint128",
              "name": "withholdingFee1",
              "type": "uint128"
            },
            {
              "internalType": "uint32",
              "name": "tradingFee0",
              "type": "uint32"
            },
            {
              "internalType": "uint32",
              "name": "tradingFee1",
              "type": "uint32"
            },
            {
              "internalType": "uint32",
              "name": "responseTime0",
              "type": "uint32"
            },
            {
              "internalType": "uint32",
              "name": "responseTime1",
              "type": "uint32"
            },
            {
              "internalType": "uint32",
              "name": "compensationRatio0",
              "type": "uint32"
            },
            {
              "internalType": "uint32",
              "name": "compensationRatio1",
              "type": "uint32"
            }
          ],
          "internalType": "struct RuleLib.Rule[]",
          "name": "rules",
          "type": "tuple[]"
        },
        {
          "components": [
            {
              "internalType": "bytes32",
              "name": "root",
              "type": "bytes32"
            },
            {
              "internalType": "uint32",
              "name": "version",
              "type": "uint32"
            }
          ],
          "internalType": "struct RuleLib.RootWithVersion",
          "name": "rootWithVersion",
          "type": "tuple"
        },
        {
          "internalType": "uint64[]",
          "name": "sourceChainIds",
          "type": "uint64[]"
        },
        {
          "internalType": "uint256[]",
          "name": "pledgeAmounts",
          "type": "uint256[]"
        }
      ],
      "name": "updateRulesRoot",
      "outputs": [],
      "stateMutability": "payable",
      "type": "function"
    },
    {
      "inputs": [
        {
          "internalType": "uint64",
          "name": "enableTime",
          "type": "uint64"
        },
        {
          "internalType": "address",
          "name": "ebc",
          "type": "address"
        },
        {
          "components": [
            {
              "internalType": "uint64",
              "name": "chainId0",
              "type": "uint64"
            },
            {
              "internalType": "uint64",
              "name": "chainId1",
              "type": "uint64"
            },
            {
              "internalType": "uint8",
              "name": "status0",
              "type": "uint8"
            },
            {
              "internalType": "uint8",
              "name": "status1",
              "type": "uint8"
            },
            {
              "internalType": "uint256",
              "name": "token0",
              "type": "uint256"
            },
            {
              "internalType": "uint256",
              "name": "token1",
              "type": "uint256"
            },
            {
              "internalType": "uint128",
              "name": "minPrice0",
              "type": "uint128"
            },
            {
              "internalType": "uint128",
              "name": "minPrice1",
              "type": "uint128"
            },
            {
              "internalType": "uint128",
              "name": "maxPrice0",
              "type": "uint128"
            },
            {
              "internalType": "uint128",
              "name": "maxPrice1",
              "type": "uint128"
            },
            {
              "internalType": "uint128",
              "name": "withholdingFee0",
              "type": "uint128"
            },
            {
              "internalType": "uint128",
              "name": "withholdingFee1",
              "type": "uint128"
            },
            {
              "internalType": "uint32",
              "name": "tradingFee0",
              "type": "uint32"
            },
            {
              "internalType": "uint32",
              "name": "tradingFee1",
              "type": "uint32"
            },
            {
              "internalType": "uint32",
              "name": "responseTime0",
              "type": "uint32"
            },
            {
              "internalType": "uint32",
              "name": "responseTime1",
              "type": "uint32"
            },
            {
              "internalType": "uint32",
              "name": "compensationRatio0",
              "type": "uint32"
            },
            {
              "internalType": "uint32",
              "name": "compensationRatio1",
              "type": "uint32"
            }
          ],
          "internalType": "struct RuleLib.Rule[]",
          "name": "rules",
          "type": "tuple[]"
        },
        {
          "components": [
            {
              "internalType": "bytes32",
              "name": "root",
              "type": "bytes32"
            },
            {
              "internalType": "uint32",
              "name": "version",
              "type": "uint32"
            }
          ],
          "internalType": "struct RuleLib.RootWithVersion",
          "name": "rootWithVersion",
          "type": "tuple"
        },
        {
          "internalType": "uint64[]",
          "name": "sourceChainIds",
          "type": "uint64[]"
        },
        {
          "internalType": "uint256[]",
          "name": "pledgeAmounts",
          "type": "uint256[]"
        },
        {
          "internalType": "address",
          "name": "token",
          "type": "address"
        }
      ],
      "name": "updateRulesRootERC20",
      "outputs": [],
      "stateMutability": "nonpayable",
      "type": "function"
    },
    {
      "inputs": [
        {
          "internalType": "uint64",
          "name": "enableTime",
          "type": "uint64"
        },
        {
          "internalType": "address[]",
          "name": "spvs",
          "type": "address[]"
        },
        {
          "internalType": "uint64[]",
          "name": "chainIds",
          "type": "uint64[]"
        }
      ],
      "name": "updateSpvs",
      "outputs": [],
      "stateMutability": "nonpayable",
      "type": "function"
    },
    {
      "inputs": [
        {
          "internalType": "address",
          "name": "spvAddress",
          "type": "address"
        },
        {
          "internalType": "address",
          "name": "challenger",
          "type": "address"
        },
        {
          "internalType": "bytes",
          "name": "proof",
          "type": "bytes"
        },
        {
          "internalType": "bytes32[2]",
          "name": "spvBlockHashs",
          "type": "bytes32[2]"
        },
        {
          "components": [
            {
              "internalType": "uint256[]",
              "name": "data",
              "type": "uint256[]"
            },
            {
              "components": [
                {
                  "internalType": "address",
                  "name": "account",
                  "type": "address"
                },
                {
                  "internalType": "bytes32",
                  "name": "key",
                  "type": "bytes32"
                },
                {
                  "internalType": "uint256",
                  "name": "value",
                  "type": "uint256"
                }
              ],
              "internalType": "struct IORChallengeSpv.VerifyInfoSlot[]",
              "name": "slots",
              "type": "tuple[]"
            }
          ],
          "internalType": "struct IORChallengeSpv.VerifyInfo",
          "name": "verifyInfo",
          "type": "tuple"
        },
        {
          "internalType": "uint256[]",
          "name": "verifiedData0",
          "type": "uint256[]"
        },
        {
          "internalType": "bytes",
          "name": "rawDatas",
          "type": "bytes"
        }
      ],
      "name": "verifyChallengeDest",
      "outputs": [],
      "stateMutability": "nonpayable",
      "type": "function"
    },
    {
      "inputs": [
        {
          "internalType": "address",
          "name": "spvAddress",
          "type": "address"
        },
        {
          "internalType": "address",
          "name": "challenger",
          "type": "address"
        },
        {
          "internalType": "bytes",
          "name": "proof",
          "type": "bytes"
        },
        {
          "internalType": "bytes32[2]",
          "name": "spvBlockHashs",
          "type": "bytes32[2]"
        },
        {
          "components": [
            {
              "internalType": "uint256[]",
              "name": "data",
              "type": "uint256[]"
            },
            {
              "components": [
                {
                  "internalType": "address",
                  "name": "account",
                  "type": "address"
                },
                {
                  "internalType": "bytes32",
                  "name": "key",
                  "type": "bytes32"
                },
                {
                  "internalType": "uint256",
                  "name": "value",
                  "type": "uint256"
                }
              ],
              "internalType": "struct IORChallengeSpv.VerifyInfoSlot[]",
              "name": "slots",
              "type": "tuple[]"
            }
          ],
          "internalType": "struct IORChallengeSpv.VerifyInfo",
          "name": "verifyInfo",
          "type": "tuple"
        },
        {
          "internalType": "bytes",
          "name": "rawDatas",
          "type": "bytes"
        }
      ],
      "name": "verifyChallengeSource",
      "outputs": [],
      "stateMutability": "nonpayable",
      "type": "function"
    },
    {
      "inputs": [
        {
          "internalType": "uint64",
          "name": "enableTime",
          "type": "uint64"
        }
      ],
      "name": "versionIncreaseAndEnableTime",
      "outputs": [],
      "stateMutability": "nonpayable",
      "type": "function"
    },
    {
      "inputs": [
        {
          "internalType": "address",
          "name": "token",
          "type": "address"
        },
        {
          "internalType": "uint256",
          "name": "amount",
          "type": "uint256"
        }
      ],
      "name": "withdraw",
      "outputs": [],
      "stateMutability": "nonpayable",
      "type": "function"
    },
    {
      "stateMutability": "payable",
      "type": "receive"
    }
  ],
  "bytecode": "0x6080806040523461003357786400000000000000010000000000000000000000000000000160005561533090816100398239f35b600080fdfe608080604052600436101561001d575b50361561001b57600080fd5b005b60003560e01c90816302f17ed314613d5c5750806334bc98de14613bf057806337eb044314613baa57806347e7ef2414613b7557806349c4bb7614613b335780634b4c85c414613b155780634c20cb2414613aec578063539cb3a5146138335780635bcb4037146137f9578063671ecbfe146137825780636d9437b1146135d3578063701146cb146130355780638adac2c514612cf65780638da5cb5b14612ccd5780638f2c40681461230f5780638f5520d914611f575780639dad22c6146105ae578063a531ffd814610592578063b315019c14610365578063c4d66de8146102bf5763f3fef3a314610111573861000f565b346102a75760403660031901126102a75761012a613db7565b600154602435916001600160a01b03916101479083163314613e6f565b1690816101f15761017561016c829347906000526008602052604060002054906146d7565b600a54906146d7565b106101c257600080808093335af161018b6145c2565b501561019357005b60405162461bcd60e51b81526020600482015260076024820152664554483a20534560c81b6044820152606490fd5b60405162461bcd60e51b815260206004820152600760248201526622aa241d1024a360c91b6044820152606490fd5b6040516370a0823160e01b8152306004820152602092908381602481855afa80156102b357839160009161027b575b50610239908360005260088652604060002054906146d7565b1061024a5761001b925033906146e4565b60405162461bcd60e51b815260048101849052600960248201526822a92199181d1024a360b91b6044820152606490fd5b809250858092503d83116102ac575b6102948183613f43565b810103126102a757518290610239610220565b600080fd5b503d61028a565b6040513d6000823e3d90fd5b346102a75760203660031901126102a7576102d8613db7565b600154906001600160a01b039081831661033a57168015610310576001600160a01b0319918216176001556002805490911633179055005b60405162461bcd60e51b815260206004820152600260248201526127ad60f11b6044820152606490fd5b606460405162461bcd60e51b81526020600482015260046024820152632fa7a72d60e11b6044820152fd5b346102a75760403660031901126102a75761037e613d77565b6001600160401b036024358181116102a75761039e903690600401613e12565b92906103bf60018060a01b03926103ba84600154163314613e6f565b614f82565b60405193602094858101903082528681526103d981613eba565b519020916103e68261400f565b946103f46040519687613f43565b828652601f1993846104058561400f565b01368989013760005b8481106104d557876004888b8960405161043c83820192826104308986614275565b03908101835282613f43565b51902060055580826002541660405194858092635c60da1b60e01b82525afa9081156102b357600091610492575b506000805160206152e4833981519152925061048d604051928392169482614275565b0390a2005b905082813d83116104ce575b6104a88183613f43565b810103126102a7576104c86000805160206152e483398151915292613f66565b8461046a565b503d61049e565b7b0ca2ba3432b932bab69029b4b3b732b21026b2b9b9b0b3b29d05199960211b60005281601c52603c600020908060051b850135601e19863603018112156102a75785019182358581116102a7578b84019080360382136102a75761053981614246565b946105476040519687613f43565b8186528d8236920101116102a757848b9360008f846105749561057c978361058d9c0137840101526143c5565b9190916142b0565b16610587828b614261565b52614206565b61040e565b346102a75760203660031901126102a75761001b6103ba613d77565b346102a75760031960e0368201126102a7576105c8613db7565b906105d1613da1565b906044356001600160401b0381116102a7576105f1903690600401613e42565b90913660a4116102a7576001600160401b0360a435116102a75760409060a435360301126102a75760c4356001600160401b0381116102a757610638903690600401613e42565b91909460018060a01b0360025416936040519163481c6a7560e01b8352602083600481895afa9283156102b357600093611f1b575b5061067d600460a4350180614c64565b156117fe5760405163b288706d60e01b815290356001600160401b0316600482015292600090849060249082906001600160a01b03165afa9384156102b3576106e16106dc8360e061072a98602098600091611ef8575b5001516150b6565b614215565b60405184810190610709816106fb60a43560040185614c99565b03601f198101835282613f43565b5190206040516390c80a5560e01b8152958694859384939160048501614d84565b03916001600160a01b03165afa80156102b35761074f91600091611ec9575b50614dbc565b61075e600460a4350180614c64565b156117fe57610772600460a4350180614c64565b600192919210156117fe5760405160208082019391926107a69284926106fb9291013590356001600160401b031686614af6565b51902060008181526009602090815260408083206001600160a01b03881684529091529020600501549094906001600160401b031615611e9e5760008581526009602052604090206001015460a01c6001600160401b0316611e7157610811600460a4350180614c64565b600710156117fe5760008681526009602090815260408083206001600160a01b03891684529091529020600101546001600160401b0390811660e0909201351603611e4757610865600460a4350180614c64565b600210156117fe576001546001600160a01b039081166040909201351603611e1c576102c08183810103126102a7576001600160401b038135116102a7576108b282820182358301614ded565b6001600160401b036020830135116102a7576108d683830160208401358401614ded565b6001600160401b036040840135116102a757838301601f604085013585010112156102a75761090b604084013584013561400f565b916109196040519384613f43565b604084013584018035808552602080860192839289890160059190911b909101909101116102a75760206040870135870101905b60408701358701803560051b016020018210611e045750506060850135956001600160a01b03871687036102a757610240908601869003607f1901126102a757604051946001600160401b03610240870190811190871117611814576102a0610ae49161024088016040526109c460808201613d8d565b88526109d260a08201613d8d565b60208901526109e360c08201614e53565b60408901526109f460e08201614e53565b6060890152610100810135608089015261012081013560a0890152610a1c6101408201614e61565b60c0890152610a2e6101608201614e61565b60e0890152610a406101808201614e61565b610100890152610a536101a08201614e61565b610120890152610a666101c08201614e61565b610140890152610a796101e08201614e61565b610160890152610a8c6102008201614797565b610180890152610a9f6102208201614797565b6101a0890152610ab26102408201614797565b6101c0890152610ac56102608201614797565b6101e0890152610ad86102808201614797565b61020089015201614797565b610220860152610afe602460a4350160a435600401614e75565b156117fe57610b0c90613f8a565b60405163481c6a7560e01b81526020816004818c5afa9081156102b357600091611dca575b506001600160a01b03908116911603611d9d57610b53600460a4350180614c64565b156117fe5760405160208101913582526002604082015260408152610b7781613f0d565b519020610b8e602460a4350160a435600401614e75565b919091156117fe57600181018111611a1a5760016020910191013503611d7057610bbd600460a4350180614c64565b600710156117fe5760e0610bd3910135426146d7565b610be7602460a4350160a435600401614e75565b156117fe57610c0590604001356001600160401b0316821015614eaa565b610c19602460a4350160a435600401614e75565b919091156117fe57610c3d91604090810135901c6001600160401b03161015614edf565b610c51602460a4350160a435600401614e75565b600110156117fe576060610c659101613f8a565b60405163481c6a7560e01b81526020816004818c5afa9081156102b357600091611d36575b506001600160a01b03908116911603611d0b57610cac600460a4350180614c64565b156117fe57610cc0600460a4350180614c64565b600492919210156117fe5760405160208101929091610cf49183916106fb916080013590356001600160401b031686614af6565b5190206040519060208201526003604082015260408152610d1481613f0d565b60208151910120610d2f602460a4350160a435600401614e75565b600192919210156117fe57600181018111611a1a5760016080910191013503611ce05760008981526009602090815260408083206001600160a01b038c811685529252918290206001015490911c16610d9160a4356024810190600401614e75565b600110156117fe5760a001356001600160a01b031603611cb557610dbf602460a4350160a435600401614e75565b600210156117fe5760c0610dd39101613f8a565b60405163481c6a7560e01b81526020816004818c5afa9081156102b357600091611c7b575b506001600160a01b03908116911603611c5057610e1f602460a4350160a435600401614e75565b600210156117fe5760e0600691013503611c2557610e47602460a4350160a435600401614e75565b600210156117fe57896000526009602052604060002060018060a01b038a1660005260205260046040600020015490610e8a60a43560040160a435600401614c64565b600592919210156117fe57620f424091610eb69161010001356001600160401b03169060a00135614c51565b0411611bfa57610eda91610eec604051938492606060208501526080840190614f14565b828103601f1901604084015285614f14565b818103601f19016060830152855180825260209091019060005b818110611bd8575050610f22925003601f198101835282613f43565b60208151910120610f3d602460a4350160a435600401614e75565b600310156117fe57610120610f529101613f8a565b306001600160a01b0390911603611bad57610f77602460a4350160a435600401614e75565b600310156117fe57610140600391013503611b8257610fa0602460a4350160a435600401614e75565b600310156117fe57610160013503611b5757610fc1600460a4350180614c64565b600592919210156117fe576040516391032df360e01b815260a0929092013560048301526060826024816001600160a01b0389165afa9182156102b357600092611aeb575b5060208201519081600019810111611a1a576001600160a01b03916110319160001990910190614261565b51166001600160a01b03851603611ac0576040018051825110611a9557519081600019810111611a1a576001600160401b03916110749160001990910190614261565b51169261108b602460a4350160a435600401614e75565b600410156117fe5760206110a461018060049301613f8a565b926040519283809263481c6a7560e01b82525afa9081156102b357600091611a5b575b506001600160a01b03908116911603611a30576110e9600460a4350180614c64565b600a10156117fe5760405161110c816106fb610140602083019501358886614af6565b51902060405160208101918252600360408201526040815261112d81613f0d565b519020611144602460a4350160a435600401614e75565b600492919210156117fe57600181018111611a1a5760016101a09101910135036119ef5760008581526009602090815260408083206001600160a01b0388811685529252918290206001015490911c166111a760a4356024810190600401614e75565b600410156117fe576101c001356001600160a01b0316036119c4576111d6602460a4350160a435600401614e75565b600510156117fe5730906001600160a01b03906111f6906101e001613f8a565b160361199957611210602460a4350160a435600401614e75565b600510156117fe5761020060059101350361196e57611239602460a4350160a435600401614e75565b600610156117fe5730906001600160a01b03906112599061024001613f8a565b160361194357604080516001600160a01b0384166020820190815260068284015291815261128681613f0d565b51902061129d602460a4350160a435600401614e75565b600610156117fe576102600135036119185760405160018060401b03825116602082015260018060401b03602083015116604082015260ff604083015116606082015260ff6060830151166080820152608082015160a082015260a082015160c082015260018060801b0360c08301511660e082015260018060801b0360e08301511661010082015260018060801b036101008301511661012082015260018060801b036101208301511661014082015260018060801b036101408301511661016082015260018060801b036101608301511661018082015263ffffffff610180830151166101a082015263ffffffff6101a0830151166101c082015263ffffffff6101c0830151166101e082015263ffffffff6101e08301511661020082015263ffffffff6102008301511661022082015263ffffffff6102208301511661024082015261024081528061026081011060018060401b03610260830111176118145761026081016040528051602082012061141e600460a4350180614c64565b600810156117fe576101000135036118e85750611440600460a4350180614c64565b919091156117fe5761145c91356001600160401b0316906150e8565b61146b600460a4350180614c64565b600592919210156117fe57604080516369bb8a9960e11b815260a093840135600482015282516001600160401b03908116602483015260208401511660448201529082015160ff16606482015260608201516084820152608082015160a4820152918101516001600160801b0390811660c484015260c0820151811660e484015260e08201511661010483015261010081015163ffffffff90811661012484015261012082015181166101448401526101409091015116610164820152600081610184816001600160a01b0386165afa9081156102b35760009161185c575b5060209061157392604051808095819462b67b0b60e01b835286600484015260248301906146b2565b03916001600160a01b03165afa9081156102b35760009161182a575b5061159f600460a4350180614c64565b600710156117fe5760e090856000526009602052604060002060018060a01b03861660005260205201356040600020556115e3602460a4350160a435600401614e75565b600210156117fe5760008581526009602081815260408084206001600160a01b03891680865281845282862060020180546001600160401b03191661010098890135851c6001600160401b0390811691909117909155958b905293909252600190910180546001600160e01b0319164260a01b600160a01b600160e01b031617909217909155519391840190811190841117611814576101008301604052611695602460a4350160a435600401614e75565b156117fe576040013560801c6001600160401b031683526116bf60a4356024810190600401614e75565b156117fe576040013560801c6001600160401b031660208401526116e8600460a4350180614c64565b156117fe573560408401526060830152611707600460a4350180614c64565b600910156117fe5761012001356080830152611728600460a4350180614c64565b600a10156117fe57610140013560a083015260c0820152611753602460a4350160a435600401614e75565b600310156117fe57610160013560e082015260405160208101916000835b600882106117e857505050610100815261178a81613ed5565b51902082600052600960205260036040600020015560406000209060018060a01b03166000526020526000805160206152c4833981519152604060002082600052600960205260016040600020019061048d60405192839283614b3a565b6020806001928551815201930191019091611771565b634e487b7160e01b600052603260045260246000fd5b634e487b7160e01b600052604160045260246000fd5b90506020813d602011611854575b8161184560209383613f43565b810103126102a757518461158f565b3d9150611838565b90503d91826000833e61186f8383613f43565b60208284810103126102a7578151926001600160401b0384116102a757808301601f8585010112156102a75783830151936118a985614246565b916118b76040519384613f43565b85835284016020868387010101116102a75761157394602094856118e09381860192010161468f565b91509161154a565b61026060649162461bcd60e51b8282015260206102648201526002610284820152610a4960f31b6102a482015201fd5b60405162461bcd60e51b815260206004820152600360248201526252524b60e81b6044820152606490fd5b60405162461bcd60e51b815260206004820152600360248201526252524160e81b6044820152606490fd5b606460405162461bcd60e51b8152602060048201526004602482015263524d484b60e01b6044820152fd5b606460405162461bcd60e51b8152602060048201526004602482015263524d484160e01b6044820152fd5b60405162461bcd60e51b8152602060048201526003602482015262222a2b60e91b6044820152606490fd5b60405162461bcd60e51b815260206004820152600360248201526244544b60e81b6044820152606490fd5b634e487b7160e01b600052601160045260246000fd5b60405162461bcd60e51b815260206004820152600360248201526244544160e81b6044820152606490fd5b90506020813d602011611a8d575b81611a7660209383613f43565b810103126102a757611a8790613f66565b876110c7565b3d9150611a69565b60405162461bcd60e51b815260206004820152600360248201526221a7a360e91b6044820152606490fd5b60405162461bcd60e51b8152602060048201526003602482015262454e4560e81b6044820152606490fd5b9091506060813d606011611b4f575b81611b0760609383613f43565b810103126102a757604051906001600160401b036060830190811190831117611814576040906060830182528051835260208101516020840152015160408201529088611006565b3d9150611afa565b606460405162461bcd60e51b815260206004820152600460248201526321a0a42b60e11b6044820152fd5b606460405162461bcd60e51b81526020600482015260046024820152634341484b60e01b6044820152fd5b606460405162461bcd60e51b81526020600482015260046024820152634341484160e01b6044820152fd5b84516001600160401b0316835260209485019486945090920191600101610f06565b606460405162461bcd60e51b81526020600482015260046024820152632320a62b60e11b6044820152fd5b60405162461bcd60e51b815260206004820152600360248201526246414b60e81b6044820152606490fd5b60405162461bcd60e51b815260206004820152600360248201526246414160e81b6044820152606490fd5b90506020813d602011611cad575b81611c9660209383613f43565b810103126102a757611ca790613f66565b8b610df8565b3d9150611c89565b60405162461bcd60e51b8152602060048201526003602482015262232a2b60e91b6044820152606490fd5b60405162461bcd60e51b815260206004820152600360248201526246544b60e81b6044820152606490fd5b60405162461bcd60e51b815260206004820152600360248201526246544160e81b6044820152606490fd5b90506020813d602011611d68575b81611d5160209383613f43565b810103126102a757611d6290613f66565b8b610c8a565b3d9150611d44565b60405162461bcd60e51b8152602060048201526005602482015264564353544b60d81b6044820152606490fd5b60405162461bcd60e51b8152602060048201526005602482015264564353544160d81b6044820152606490fd5b90506020813d602011611dfc575b81611de560209383613f43565b810103126102a757611df690613f66565b8b610b31565b3d9150611dd8565b60208091611e1184613d8d565b81520191019061094d565b606460405162461bcd60e51b8152602060048201526004602482015263544e454f60e01b6044820152fd5b60405162461bcd60e51b815260206004820152600260248201526114d560f21b6044820152606490fd5b60405162461bcd60e51b81526020600482015260056024820152642b2a18272d60d91b6044820152606490fd5b60405162461bcd60e51b815260206004820152600360248201526221aa2d60e91b6044820152606490fd5b611eeb915060203d602011611ef1575b611ee38183613f43565b810190613f9e565b86610749565b503d611ed9565b611f1591503d806000833e611f0d8183613f43565b810190614026565b8e6106d4565b9092506020813d602011611f4f575b81611f3760209383613f43565b810103126102a757611f4890613f66565b918861066d565b3d9150611f2a565b346102a75760803660031901126102a757611f70613d77565b6024356001600160401b0381116102a757611f8f903690600401613e12565b6044356001600160401b0381116102a757611fae903690600401613e12565b909290606435906001600160401b0382116102a757611fd4611fec923690600401613e12565b9290966103ba60018060a01b03600154163314613e6f565b600a841080612305575b806122fb575b156122ce5760025460405163481c6a7560e01b81526001600160a01b039091169390602081600481885afa9081156102b357600091612294575b5060005b838110612213575060005b84811061218857505090600492916020866104306120a28a8c6040519384918a61209261207e8a86019960608b5260808701908d61417e565b8c601f19978888840301604089015261417e565b91858584030160608601526141c2565b519020958660035560405195868092635c60da1b60e01b82525afa9384156102b35760009461212a575b506000805160206152a48339815191529661048d94939261210361211193604051998a998a52608060208b015260808a019161417e565b91878303604089015261417e565b84810360608601526001600160a01b03909216966141c2565b90929193506020813d602011612180575b8161214860209383613f43565b810103126102a7576000805160206152a48339815191529661048d9461210361217361211194613f66565b96505092939150966120cc565b3d915061213b565b61219b61219682878c613f7a565b613fe7565b60405163b288706d60e01b81526001600160401b039091166004820152906000826024816001600160a01b0387165afa9182156102b3576001926121f2916000916121f8575b50838060401b03905116151561414d565b01612045565b61220d91503d806000833e611f0d8183613f43565b8c6121e1565b61222661222182868b613f7a565b613f8a565b604051632edbe4ef60e21b81526001600160a01b03918216600482015291906020908390602490829087165afa9182156102b35760019261226f91600091612275575b50613fb6565b0161203a565b61228e915060203d602011611ef157611ee38183613f43565b8c612269565b90506020813d6020116122c6575b816122af60209383613f43565b810103126102a7576122c090613f66565b88612036565b3d91506122a2565b60405162461bcd60e51b81526020600482015260056024820152642222a1a7a360d91b6044820152606490fd5b5060648210611ffc565b50600a8110611ff6565b346102a75760803660031901126102a757612328613d77565b6044356001600160401b0381116102a757612347903690600401613e12565b9091906064356001600160401b0381116102a757612369903690600401613e12565b9390604051612382816106fb6024358860208401614af6565b6020815191012090816000526009602052604060002060018060a01b03600160406000200154166000526020526040600020926006604051946123c486613ed5565b8054865260018101546001600160401b038082166020808a0191909152604092831c6001600160a01b0316838a01526002840154821660608a015260038401546080808b0191909152600485015460a08b0152600585015480841660c08c0152841c831660e08b0152949093015461010089015260008781526009909352918190209051929091908301908111908311176118145760808201604090815260018201546001600160a01b038116845260a01c6001600160401b039081166020850152600283015416908301526003015460608201526000968796879695949392915b8a881061250b578a8a8a816124e2575b50506611c37937e0800090818102918183041490151715611a1a576124dd90600a546146d7565b600a55005b60018060a01b0316600052600860205261250260406000209182546146d7565b905581806124b6565b90919293948096979850600052600960205260406000208a6125386122218b60018060a01b03938a613f7a565b16600052602052604060002098604051996125528b613ed5565b80548b5260018101546001600160401b0380821660208e0152604091821c6001600160a01b0316828e01526002830154811660608e0152600383015460808e0152600483015460a08e0152600583015480821660c08f01819052921c1660e08d01526006909101546101008c015215612ca25760e08a01516001600160401b0316612c785760408401516125ef906001600160401b031615614be0565b60025460405163481c6a7560e01b815290602090829060049082906001600160a01b03165afa9081156102b357600091612c3e575b5060208501516001600160401b03166127d25760405163b288706d60e01b81526001600160401b038416600482015290600090829060249082906001600160a01b03165afa9081156102b3576000916127b7575b506060015160208b01516001600160401b0391612699918316908316614c38565b1642111561278c576126c2612780916126bc8c60a0608082015191015190614765565b90614765565b6040909a01516001600160a01b0316985b87600052600960205260406000208c6126f76122218460018060a01b03938c613f7a565b1660005260205261271760018060401b0342166005604060002001614b11565b87600052600960205260406000208c61273b6122218460018060a01b03938c613f7a565b16600052602052876000805160206152c4833981519152604060002082600052600960205260016040600020019061277860405192839283614b3a565b0390a2614206565b969594939291906124a6565b606460405162461bcd60e51b81526020600482015260046024820152631590d4d560e21b6044820152fd5b6127cc91503d806000833e611f0d8183613f43565b8c612678565b6040516020810190602082526127f0816106fb60408201898c614c14565b519020606086015103612c135760408501516001600160401b0342811691161115612be85783156117fe5760405163b288706d60e01b815286356001600160401b0316600482015290600090829060249082906001600160a01b03165afa9081156102b357600091612bcd575b5060a0015160208b01516001600160401b039161287e918316908316614c38565b16421115612ba2576128946122218a8d89613f7a565b84516001600160a01b03828116911603612aa7575060808a015160608b0151620f4240916128cb916001600160401b031690614c51565b0460808b01518111612a7c576128f4816128ef8d60a0608082015191015190614765565b6146d7565b8b5160408d01519192916001600160a01b03918216918e9116806129f8575050600080809381935af16129256145c2565b50156129c85784516001600160a01b0316906611c37937e0800081018111611a1a5760008080936611c37937e08000829401905af16129626145c2565b501561299857612983612780915b60808c015160a08d01516126bc91614765565b6040909a01516001600160a01b0316986126d3565b60405162461bcd60e51b815260206004820152600860248201526722aa241d1029a29960c11b6044820152606490fd5b60405162461bcd60e51b81526020600482015260086024820152674554483a2053453160c01b6044820152606490fd5b82612a30600096879694612a1888979688976611c37937e08000976146e4565b604001518c516001600160a01b0390811691166146e4565b5af1612a3a6145c2565b5015612a4c5761298361278091612970565b60405162461bcd60e51b81526020600482015260086024820152674554483a2053453360c01b6044820152606490fd5b606460405162461bcd60e51b81526020600482015260046024820152632aa0a7a360e11b6044820152fd5b8a5189511480612b84575b80612b66575b80612b48575b80612b37575b1515600114612adb575b5061298361278091612970565b600080806611c37937e08000819460018060a01b03165af1612afb6145c2565b5015612b07578b612ace565b60405162461bcd60e51b81526020600482015260086024820152671155120e8814d14d60c21b6044820152606490fd5b5060808b810151908a015114612ac4565b5060608b810151908a01516001600160401b03908116911614612abe565b5060408b810151908a01516001600160a01b03908116911614612ab8565b5060208b810151908a01516001600160401b03908116911614612ab2565b606460405162461bcd60e51b81526020600482015260046024820152631590d11560e21b6044820152fd5b612be291503d806000833e611f0d8183613f43565b8c61285d565b60405162461bcd60e51b815260206004820152600360248201526215911160ea1b6044820152606490fd5b60405162461bcd60e51b81526020600482015260036024820152620ac88960eb1b6044820152606490fd5b90506020813d602011612c70575b81612c5960209383613f43565b810103126102a757612c6a90613f66565b8c612624565b3d9150612c4c565b60405162461bcd60e51b8152602060048201526002602482015261434160f01b6044820152606490fd5b60405162461bcd60e51b8152602060048201526003602482015262434e4560e81b6044820152606490fd5b346102a75760003660031901126102a7576001546040516001600160a01b039091168152602090f35b60a03660031901126102a757612d0a613d77565b6044906001600160401b038235818116908190036102a7576001600160a01b039260649290833585811691908290036102a7576040519460209586810190612d5b816106fb60249687359086614af6565b519020968760005260098752600160406000200154166130105783421697858910612fea57876000526009875260406000203360005287528460056040600020015416612fc55783612f7d576084356611c37937e080008101809111612f68573403612f405750505b600a54906611c37937e080008201809211612f2c575085966006936000805160206152c48339815191529793612ef093600a5560843596612e058880614765565b8260005260088a52612e1d6040600020918254614765565b905560405197612e2c89613ed5565b600089528989019182526040890192835260608901916000835260808a019082825260a08b0192835260c08b0196875260e08b0194600086526101008c019960008b5260005260098d526040600020336000528d5260406000209b518c558660018d01925116825491600160401b600160e01b03905160401b169163ffffffff60e01b16171790558460028b019351169260018060401b031993848254161790555160038a0155516004890155826005890194511690845416178355511690614b11565b51910155826000526009815260406000203360005281526009604060002091846000525260016040600020019061048d60405192839283614b3a565b634e487b7160e01b60009081526011600452fd5b6412518ad35160da1b87916005856040519462461bcd60e51b86526004860152840152820152fd5b83634e487b7160e01b60005260116004526000fd5b6611c37937e080003403612fa0575050612f9b608435303385614482565b612dc4565b6124a360f11b87916002856040519462461bcd60e51b86526004860152840152820152fd5b6110d560f21b87916002856040519462461bcd60e51b86526004860152840152820152fd5b6329aa27a360e11b87916004856040519462461bcd60e51b865282860152840152820152fd5b60405162461bcd60e51b81526004810187905260028184015261434560f01b818a0152fd5b346102a757600319610100368201126102a757613050613db7565b90613059613da1565b6044356001600160401b0381116102a757613078903690600401613e42565b90923660a4116102a7576001600160401b0360a435116102a75760409060a435360301126102a75760c4356001600160401b0381116102a7576130bf903690600401613e12565b909390929060e4356001600160401b0381116102a757613128916130e96020923690600401613e42565b989095604051613104816106fb60a435600401888301614c99565b8051908501206040516390c80a5560e01b8152958694859384939160048501614d84565b03916001600160a01b03165afa80156102b35761314c916000916135b45750614dbc565b61315b600460a4350180614c64565b156117fe5761316f600460a4350180614c64565b600192919210156117fe5760405160208082019391926131a39284926106fb9291013590356001600160401b031686614af6565b51902060008181526009602052604090206001015490959060a01c6001600160401b031615613589576000868152600960205260409020600201546131f1906001600160401b031615614be0565b82016020838203126102a7578235906001600160401b0382116102a75780601f8386010112156102a75781840135916132298361400f565b946132376040519687613f43565b838652602086019260208560051b8484010101116102a75780820160200192915b60208560051b8284010101841061357557505050505060405160208101906020825261328c816106fb60408201888a614c14565b5190208560005260096020526003604060002001540361354a5760405160208101906132bc816106fb8685614275565b51902083600710156117fe5760e08501350361351f5760008581526009602090815260408083206001600160a01b039094168352929052206001015461330b906001600160401b0316426146d7565b82156117fe5761331e8435821015614eaa565b82600110156117fe576133379060208501351015614edf565b613346600460a4350180614c64565b156117fe5782600310156117fe5760608401359035036134f45761336f600460a4350180614c64565b600292919210156117fe57604061338892013590615080565b156134c95780600410156117fe576133a5600460a4350180614c64565b600310156117fe576060013560808301350361349c5780600510156117fe576133d3600460a4350180614c64565b600410156117fe5760806133ee91013560a084013514614f51565b80600610156117fe57600210156117fe578060c060406134129301359101356146d7565b613421600460a4350180614c64565b600592919210156117fe5760a061343a92013514614f51565b60008181526009602081815260408084206002810180546001600160401b031916426001600160401b03161790553385528083528185209486905292909152516000805160206152c4833981519152929091829161048d916001019083614b3a565b60405162461bcd60e51b81526020600482015260056024820152642220a2222960d91b6044820152606490fd5b60405162461bcd60e51b81526020600482015260036024820152624d494360e81b6044820152606490fd5b606460405162461bcd60e51b81526020600482015260046024820152631110d25160e21b6044820152fd5b60405162461bcd60e51b81526020600482015260036024820152620a49a960eb1b6044820152606490fd5b606460405162461bcd60e51b81526020600482015260046024820152630564448360e41b6044820152fd5b602080809486358152019401939250613258565b606460405162461bcd60e51b81526020600482015260046024820152632b2a182d60e11b6044820152fd5b6135cd915060203d602011611ef157611ee38183613f43565b87610749565b60e03660031901126102a7576135e7613d77565b6135ef613da1565b6001600160401b0391906044358381116102a757613611903690600401613de1565b909360403660631901126102a75760a4358181116102a757613637903690600401613e12565b9060c435918383116102a75761365761367c939692963690600401613e12565b93909560018060a01b039961367660019a6103ba8d8d54163314613e6f565b846147a8565b613687838214614733565b60009760009216915b8181106136ca578834106136a057005b60405162461bcd60e51b815260206004820152600260248201526124ab60f11b6044820152606490fd5b6136d861219682848a613f7a565b6040519060209187838201928784521660408201526060600081830152815261370081613f28565b5190209061370f83878a613f7a565b35908260005260079182825260406000205410613749575b908392916137378c95898c613f7a565b35926000525260406000205501613690565b9a906137778493926126bc8e848f98613764908f8e90613f7a565b35918760005252604060002054906146d7565b9b9091929350613727565b346102a75760203660031901126102a75761379b613db7565b600060206040516137ab81613eba565b828152015260018060a01b03166000526006602052604080600020600182516137d381613eba565b602083549384835263ffffffff9384910154169101908152835192835251166020820152f35b346102a75760203660031901126102a7576001600160a01b0361381a613db7565b1660005260086020526020604060002054604051908152f35b346102a75760603660031901126102a75761384c613d77565b6024356001600160401b0381116102a75761386b903690600401613e12565b6044359291906001600160401b0384116102a7576138906138a8943690600401613e12565b9490936103ba60018060a01b03600154163314613e6f565b60025460405163481c6a7560e01b815293906001600160a01b0316602085600481845afa9485156102b357600095613aab575b50602060049160405192838092635c60da1b60e01b82525afa9081156102b357600091613a71575b5060005b86811061391057005b61391e612196828986613f7a565b60405163b288706d60e01b81526001600160401b039091166004820152906000826024816001600160a01b038b165afa9182156102b3576106dc60e0613a519461399793600091613a56575b508051613981906001600160401b0316151561414d565b0151613991612221858a8c613f7a565b906150b6565b6139a5612221828789613f7a565b6001600160401b036139bb612196848c89613f7a565b16600090815260046020526040902080546001600160a01b0319166001600160a01b039092169190911790556139f5612196828a87613f7a565b613a0361222183888a613f7a565b604080516001600160401b0390931683526001600160a01b039182166020840152908516917f8f2bbe31353a40442717cf80cfd6882db22eae2e1ca9ffd699967549fd26fafc9190a2614206565b613907565b613a6b91503d806000833e611f0d8183613f43565b8c61396a565b90506020813d602011613aa3575b81613a8c60209383613f43565b810103126102a757613a9d90613f66565b86613903565b3d9150613a7f565b9094506020813d602011613ae4575b81613ac760209383613f43565b810103126102a7576020613adc600492613f66565b9591506138db565b3d9150613aba565b346102a75760003660031901126102a7576002546040516001600160a01b039091168152602090f35b346102a75760003660031901126102a7576020600554604051908152f35b346102a75760203660031901126102a7576001600160401b03613b54613d77565b166000526004602052602060018060a01b0360406000205416604051908152f35b60403660031901126102a7576001600160a01b03613b91613db7565b1680613b9957005b61001b906024359030903390614482565b346102a75760003660031901126102a757600054604080516001600160801b0383168152608083901c6001600160401b0316602082015260c09290921c90820152606090f35b346102a7576101003660031901126102a757613c0a613d77565b613c12613da1565b6001600160401b036044358181116102a757613c32903690600401613de1565b939060403660631901126102a75760a4358381116102a757613c58903690600401613e12565b93909160c4358281116102a757613c73903690600401613e12565b93909160e4359560018060a01b03998a88168098036102a7578a92613676613ca8936103ba60019d979d9e8f54163314613e6f565b613cb3858814614733565b1660005b868110613cc057005b80613cd06121968b938a8c613f7a565b60405190602091878382019287845216604082015260608a818301528152613cf781613f28565b51902090613d06838988613f7a565b35918060005260079283835260406000205410613d27575b50505001613cb7565b613d5492613d4c92613d3a868c8b613f7a565b359260005252604060002054906146d7565b30338a614482565b8a8080613d1e565b346102a75760003660031901126102a7576020906003548152f35b600435906001600160401b03821682036102a757565b35906001600160401b03821682036102a757565b602435906001600160a01b03821682036102a757565b600435906001600160a01b03821682036102a757565b35906001600160a01b03821682036102a757565b9181601f840112156102a7578235916001600160401b0383116102a75760208085019461024085020101116102a757565b9181601f840112156102a7578235916001600160401b0383116102a7576020808501948460051b0101116102a757565b9181601f840112156102a7578235916001600160401b0383116102a757602083818601950101116102a757565b15613e7657565b606460405162461bcd60e51b815260206004820152602060248201527f4f776e61626c653a2063616c6c6572206973206e6f7420746865206f776e65726044820152fd5b604081019081106001600160401b0382111761181457604052565b61012081019081106001600160401b0382111761181457604052565b61016081019081106001600160401b0382111761181457604052565b606081019081106001600160401b0382111761181457604052565b608081019081106001600160401b0382111761181457604052565b601f909101601f19168101906001600160401b0382119082101761181457604052565b51906001600160a01b03821682036102a757565b91908110156117fe5760051b0190565b356001600160a01b03811681036102a75790565b908160209103126102a7575180151581036102a75790565b15613fbd57565b60405162461bcd60e51b8152602060048201526002602482015261454960f01b6044820152606490fd5b356001600160401b03811681036102a75790565b51906001600160401b03821682036102a757565b6001600160401b0381116118145760051b60200190565b90602080838303126102a75782516001600160401b03938482116102a75701926101009384818503126102a757604051948501858110838211176118145760405261407081613ffb565b8552808301516001600160c01b03811681036102a7578386015261409660408201613ffb565b60408601526140a760608201613ffb565b60608601526140b860808201613ffb565b60808601526140c960a08201613ffb565b60a086015260c081015160c086015260e08101519182116102a757019180601f840112156102a75782516140fc8161400f565b9361410a6040519586613f43565b818552838086019260051b8201019283116102a7578301905b828210614136575050505060e082015290565b83809161414284613f66565b815201910190614123565b1561415457565b60405162461bcd60e51b8152602060048201526002602482015261434960f01b6044820152606490fd5b91908082526020809201929160005b82811061419b575050505090565b909192938280600192838060a01b036141b389613dcd565b1681520195019392910161418d565b91908082526020809201929160005b8281106141df575050505090565b909192938280600192838060401b036141f789613d8d565b168152019501939291016141d1565b6000198114611a1a5760010190565b1561421c57565b60405162461bcd60e51b8152602060048201526002602482015261534960f01b6044820152606490fd5b6001600160401b03811161181457601f01601f191660200190565b80518210156117fe5760209160051b010190565b6020908160408183019282815285518094520193019160005b82811061429c575050505090565b83518552938101939281019260010161428e565b60058110156143af57806142c15750565b600181036143095760405162461bcd60e51b815260206004820152601860248201527745434453413a20696e76616c6964207369676e617475726560401b6044820152606490fd5b600281036143565760405162461bcd60e51b815260206004820152601f60248201527f45434453413a20696e76616c6964207369676e6174757265206c656e677468006044820152606490fd5b60031461435f57565b60405162461bcd60e51b815260206004820152602260248201527f45434453413a20696e76616c6964207369676e6174757265202773272076616c604482015261756560f01b6064820152608490fd5b634e487b7160e01b600052602160045260246000fd5b9060418151146000146143f3576143ef916020820151906060604084015193015160001a906143fd565b9091565b5050600090600290565b9291906fa2a8918ca85bafe22016d0b997e4df60600160ff1b0383116144765791608094939160ff602094604051948552168484015260408301526060820152600093849182805260015afa156144695781516001600160a01b03811615614463579190565b50600190565b50604051903d90823e3d90fd5b50505050600090600390565b6040516323b872dd60e01b60208201526001600160a01b03928316602482015292909116604483015260648083019390935291815260a08101918183106001600160401b03841117611814576144da926040526144dc565b565b60405161453a916001600160a01b03166144f582613eba565b6000806020958685527f5361666545524332303a206c6f772d6c6576656c2063616c6c206661696c656487860152868151910182855af16145346145c2565b916145f2565b8051908282159283156145aa575b505050156145535750565b6084906040519062461bcd60e51b82526004820152602a60248201527f5361666545524332303a204552433230206f7065726174696f6e20646964206e6044820152691bdd081cdd58d8d9595960b21b6064820152fd5b6145ba9350820181019101613f9e565b388281614548565b3d156145ed573d906145d382614246565b916145e16040519384613f43565b82523d6000602084013e565b606090565b919290156146545750815115614606575090565b3b1561460f5790565b60405162461bcd60e51b815260206004820152601d60248201527f416464726573733a2063616c6c20746f206e6f6e2d636f6e74726163740000006044820152606490fd5b8251909150156146675750805190602001fd5b60405162461bcd60e51b81526020600482015290819061468b9060248301906146b2565b0390fd5b60005b8381106146a25750506000910152565b8181015183820152602001614692565b906020916146cb8151809281855285808601910161468f565b601f01601f1916010190565b91908203918211611a1a57565b60405163a9059cbb60e01b60208201526001600160a01b03909216602483015260448083019390935291815260808101916001600160401b03831182841017611814576144da926040526144dc565b1561473a57565b60405162461bcd60e51b815260206004820152600360248201526214d41360ea1b6044820152606490fd5b91908201809211611a1a57565b91908110156117fe57610240020190565b356001600160801b03811681036102a75790565b359063ffffffff821682036102a757565b9160005b8181106149ed5750506002546040805163481c6a7560e01b8152936001600160a01b03935060209283908690600490829088165afa9485156149a3576000956149ae575b5082846024819385519485938492632edbe4ef60e21b845216998a6004840152165afa9081156149a3579061482c916000916149865750613fb6565b606435801561495d57846000526006835263ffffffff9283600181818660002001541601166084359485168095036102a7578403614935579060049392918660005260068152600183600020838155018463ffffffff19825416179055808660025416845196878092635c60da1b60e01b82525afa94851561492a576000956148d4575b508251968752860152840152169060008051602061530483398151915290606090a2565b90948582813d8311614923575b6148eb8183613f43565b8101031261492057509160008051602061530483398151915295939161491360609694613f66565b95509193959290926148b0565b80fd5b503d6148e1565b83513d6000823e3d90fd5b60649083519062461bcd60e51b825260048201526002602482015261564560f01b6044820152fd5b815162461bcd60e51b8152600481018490526002602482015261292d60f11b6044820152606490fd5b61499d9150843d8611611ef157611ee38183613f43565b38612269565b82513d6000823e3d90fd5b90948382813d83116149e6575b6149c58183613f43565b810103126149205750828460246149dc8294613f66565b97935050506147f0565b503d6149bb565b6149fb612196828486614772565b6020906001600160401b0380614a1c84614a1687898b614772565b01613fe7565b1691161015614aca57614a3c610140614a36848688614772565b01614783565b614a4d610160614a36858789614772565b620186a0916001600160801b0391908216839006614a9f571606614a7457506001016147ac565b6064906040519062461bcd60e51b8252600490818301526024820152635746493160e01b6044820152fd5b60405162461bcd60e51b815260048082018690526024820152630574649360e41b6044820152606490fd5b6064906040519062461bcd60e51b82526004820152600560248201526443304c433160d81b6044820152fd5b6001600160401b039091168152602081019190915260400190565b8054600160401b600160801b03191660409290921b600160401b600160801b0316919091179055565b815481526001808301546001600160401b0380821660208501526001600160a01b03604092831c8116838601526002808701548316606087015260038701546080870152600487015460a080880191909152600588015480851660c089015290941c831660e0870152600690960154610100860152865490811661012086015290911c811661014084015290840154166101608201529101546101808201526101a00190565b15614be757565b60405162461bcd60e51b81526020600482015260056024820152642b2a18a72d60d91b6044820152606490fd5b81835290916001600160fb1b0383116102a75760209260051b809284830137010190565b6001600160401b039182169082160191908211611a1a57565b81810292918115918404141715611a1a57565b903590601e19813603018212156102a757018035906001600160401b0382116102a757602001918160051b360383136102a757565b602080825292919036829003601e1901908235828112156102a7576001600160401b0393908101803592908701918584116102a7578360051b360383136102a757614cf1604093848a85015260609586850191614c14565b9488820135908112156102a757019387853595019585116102a757838502360386136102a757879596979183601f9695949619828403019101528381520194926000905b838210614d455750505050505090565b909192939496958380600192838060a01b03614d608a613dcd565b168152888b01358b8201528489013585820152989998019796019493920190614d35565b9392918060a09160609360808852816080890152838801376000868201830152601f01601f1916850101936040606460208301370152565b15614dc357565b60405162461bcd60e51b81526020600482015260026024820152612b2360f11b6044820152606490fd5b81601f820112156102a757803591614e048361400f565b92614e126040519485613f43565b808452602092838086019260051b8201019283116102a7578301905b828210614e3c575050505090565b838091614e4884613dcd565b815201910190614e2e565b359060ff821682036102a757565b35906001600160801b03821682036102a757565b903590601e19813603018212156102a757018035906001600160401b0382116102a7576020019160608202360383136102a757565b15614eb157565b60405162461bcd60e51b815260206004820152600660248201526526a4a72a27a360d11b6044820152606490fd5b15614ee657565b60405162461bcd60e51b815260206004820152600660248201526526a0ac2a27a360d11b6044820152606490fd5b90815180825260208080930193019160005b828110614f34575050505090565b83516001600160a01b031685529381019392810192600101614f26565b15614f5857565b60405162461bcd60e51b8152602060048201526002602482015261111560f21b6044820152606490fd5b4260780180607811611a1a576001600160401b0390828216908110159081615068575b81615059575b501561502e5760005490808260801c169043161115615003576001600160801b0390811660010191818311611a1a576001600160c01b031960c09190911b169116600160801b600160c01b034360801b161717600055565b60405162461bcd60e51b8152602060048201526003602482015262424e4560e81b6044820152606490fd5b606460405162461bcd60e51b815260206004820152600460248201526313d1915560e21b6044820152fd5b905060005460c01c1038614fab565b9050610708428101809111611a1a5781111590614fa5565b9060005b82518110156150ae576150978184614261565b5182146150a657600101615084565b505050600190565b505050600090565b9060005b82518110156150ae576001600160a01b03806150d68386614261565b5116908316146150a6576001016150ba565b6040908151906150f782613ef1565b600080835280602084015280848401528060608401528060808401528060a08401528060c08401528060e08401526101009381858501526101209180838601526101408095015260018060401b0395868085511691169081148015615294575b1561526a578351871690810361520057508583511695602084015116948184015160ff16608085015160a086015190600160801b60019003918260c0890151169183868a015116938a8a0151169463ffffffff97886101808c01511698806101c08d0151169b6102000151169c81519e8f906151d282613ef1565b8152602001528d015260608c015260808b015260a08a015260c089015260e088015286015284015282015290565b949560208401511695606084015160ff1660a0850151608086015190600160801b60019003918260e0890151169183888a015116936101608a0151169463ffffffff97886101a08c01511698806101e08d0151169b6102200151169c81519e8f906151d282613ef1565b815162461bcd60e51b815260206004820152600360248201526253434960e81b6044820152606490fd5b5086602085015116811461515756fe3cb86960d27f10c36827a013566ea74ce60fe0402128cb82d020889177c12429b34c6b0952401c7584d6a56d126b411ce3760bf8e4b48bb722e945984524936e0b91b68f980e47803e7858fa5a270c37d18f436399f86db162b14fbd0f376d5414ebfe1d09c7ff607d095a4d8c41180cfc5ce6a29321b1b0b8ed086408acca4aa164736f6c6343000811000a",
  "linkReferences": {},
  "deployedLinkReferences": {}
}