{
  "_format": "hh-sol-artifact-1",
  "contractName": "ORSpvData",
  "sourceName": "contracts/ORSpvData.sol",
  "abi": [
    {
      "inputs": [
        {
          "internalType": "address",
          "name": "manager_",
          "type": "address"
        }
      ],
      "stateMutability": "nonpayable",
      "type": "constructor"
    },
    {
      "anonymous": false,
      "inputs": [
        {
          "indexed": false,
          "internalType": "uint64",
          "name": "blockInterval",
          "type": "uint64"
        }
      ],
      "name": "BlockIntervalUpdated",
      "type": "event"
    },
    {
      "anonymous": false,
      "inputs": [
        {
          "indexed": true,
          "internalType": "uint256",
          "name": "startBlockNumber",
          "type": "uint256"
        },
        {
          "indexed": false,
          "internalType": "bytes32",
          "name": "blocksRoot",
          "type": "bytes32"
        },
        {
          "indexed": false,
          "internalType": "uint256",
          "name": "blockInterval",
          "type": "uint256"
        }
      ],
      "name": "HistoryBlocksRootSaved",
      "type": "event"
    },
    {
      "anonymous": false,
      "inputs": [
        {
          "indexed": false,
          "internalType": "address",
          "name": "injectOwner",
          "type": "address"
        }
      ],
      "name": "InjectOwnerUpdated",
      "type": "event"
    },
    {
      "inputs": [],
      "name": "blockInterval",
      "outputs": [
        {
          "internalType": "uint64",
          "name": "",
          "type": "uint64"
        }
      ],
      "stateMutability": "view",
      "type": "function"
    },
    {
      "inputs": [
        {
          "internalType": "uint256",
          "name": "startBlockNumber",
          "type": "uint256"
        }
      ],
      "name": "getBlocksRoot",
      "outputs": [
        {
          "internalType": "bytes32",
          "name": "",
          "type": "bytes32"
        }
      ],
      "stateMutability": "view",
      "type": "function"
    },
    {
      "inputs": [
        {
          "internalType": "uint256",
          "name": "blockNumber0",
          "type": "uint256"
        },
        {
          "internalType": "uint256",
          "name": "blockNumber1",
          "type": "uint256"
        },
        {
          "components": [
            {
              "internalType": "uint256",
              "name": "startBlockNumber",
              "type": "uint256"
            },
            {
              "internalType": "bytes32",
              "name": "blocksRoot",
              "type": "bytes32"
            }
          ],
          "internalType": "struct IORSpvData.InjectionBlocksRoot[]",
          "name": "injectionBlocksRoots",
          "type": "tuple[]"
        }
      ],
      "name": "injectBlocksRoots",
      "outputs": [],
      "stateMutability": "nonpayable",
      "type": "function"
    },
    {
      "inputs": [],
      "name": "injectOwner",
      "outputs": [
        {
          "internalType": "address",
          "name": "",
          "type": "address"
        }
      ],
      "stateMutability": "view",
      "type": "function"
    },
    {
      "inputs": [],
      "name": "saveHistoryBlocksRoots",
      "outputs": [],
      "stateMutability": "nonpayable",
      "type": "function"
    },
    {
      "inputs": [
        {
          "internalType": "uint64",
          "name": "blockInterval_",
          "type": "uint64"
        }
      ],
      "name": "updateBlockInterval",
      "outputs": [],
      "stateMutability": "nonpayable",
      "type": "function"
    },
    {
      "inputs": [
        {
          "internalType": "address",
          "name": "injectOwner_",
          "type": "address"
        }
      ],
      "name": "updateInjectOwner",
      "outputs": [],
      "stateMutability": "nonpayable",
      "type": "function"
    }
  ],
  "bytecode": "0x6080346100aa57601f610a3038819003918201601f19168301916001600160401b038311848410176100af578084926020946040528339810103126100aa57516001600160a01b038116908190036100aa57600054908015610080576001600160e01b031990911617600360a61b1760005560405161096a90816100c68239f35b60405162461bcd60e51b815260206004820152600260248201526126ad60f11b6044820152606490fd5b600080fd5b634e487b7160e01b600052604160045260246000fdfe60806040526004361015610013575b600080fd5b6000803560e01c9081635148c480146100a2575080635cb14eea14610099578063847e3376146100905780639b9774cb14610087578063b1317a441461007e578063c4c22e98146100755763f434eaeb1461006d57600080fd5b61000e61037e565b5061000e610350565b5061000e610255565b5061000e61022b565b5061000e610144565b5061000e6100ce565b346100cb5760203660031901126100cb5760409060043581526002602052205460805260206080f35b80fd5b503461000e57602036600319011261000e576004356001600160a01b038181169182900361000e577f410ee710833ae831ae659691f03ec28e9dc5793a8f36e2ce69437e26dc8ff7cf9161012960209260005416331461056d565b600180546001600160a01b03191682179055604051908152a1005b503461000e576000806003193601126100cb5761017061016482546103ec565b6001600160401b031690565b610179436103fb565b6101838282610437565b80610222575b509061019b816000198443030161044d565b916101a7831515610463565b83905b8382106101b5578480f35b8281806101c3600194610495565b836101cd836103dc565b541580610219575b6101e6575b505050019101906101aa565b8160008051602061093e83398151915292610200856103dc565b55604080519182526020820192909252a28038836101da565b508115156101d5565b82030138610189565b503461000e57600036600319011261000e576001546040516001600160a01b039091168152602090f35b503461000e57602036600319011261000e576004356001600160401b03811680820361000e5761029060018060a01b0360005416331461056d565b60028110159081610343575b501561031857610313816102d460017f0411a4c5f1ca9d6be36cb6a46f7bc31bd7661cd5f696c372b7d50bb3497a0cc99416156105c5565b60008054600160a01b600160e01b03191660a083901b600160a01b600160e01b03161790556040516001600160401b0390911681529081906020820190565b0390a1005b60405162461bcd60e51b815260206004820152600360248201526224a7a360e91b6044820152606490fd5b610100915011153861029c565b503461000e57600036600319011261000e5760005460405160a09190911c6001600160401b03168152602090f35b503461000e57606036600319011261000e576044356001600160401b0380821161000e573660238301121561000e57816004013590811161000e573660248260061b8401011161000e5760246103da9201602435600435610828565b005b6000526002602052604060002090565b60a01c6001600160401b031690565b60ff1981019190821161040a57565b634e487b7160e01b600052601160045260246000fd5b50634e487b7160e01b600052601260045260246000fd5b8115610441570690565b610449610420565b0690565b8115610457570490565b61045f610420565b0490565b1561046a57565b60405162461bcd60e51b815260206004820152600360248201526212509360ea1b6044820152606490fd5b906000906104b86101646104a984546103ec565b60011c60016001603f1b031690565b92604080519460059281841b870183528590875b838310610543575050505b600180821115610538578590875b8383106104fc57505050600181811c9116016104d7565b60206002918685891b8c01805183528786880110610520575b5050019201916104e5565b81518151815290840151848201522081528638610515565b505050509190505190565b8451600184811b8401804083528101406020808401919091529187902083529390930192016104cc565b1561057457565b60405162461bcd60e51b8152602060048201526024808201527f466f7262696464656e3a2063616c6c6572206973206e6f7420746865206d616e60448201526330b3b2b960e11b6064820152608490fd5b156105cc57565b60405162461bcd60e51b815260206004820152600260248201526124ab60f11b6044820152606490fd5b156105fd57565b60405162461bcd60e51b815260206004820152602960248201527f466f7262696464656e3a2063616c6c6572206973206e6f742074686520696e6a60448201526832b1ba1037bbb732b960b91b6064820152608490fd5b1561065b57565b606460405162461bcd60e51b8152602060048201526004602482015263534e4c4560e01b6044820152fd5b1561068d57565b60405162461bcd60e51b815260206004820152600260248201526129ad60f11b6044820152606490fd5b156106be57565b60405162461bcd60e51b815260206004820152600260248201526122ad60f11b6044820152606490fd5b91908110156106f85760061b0190565b634e487b7160e01b600052603260045260246000fd5b60408136031261000e576040805191908201906001600160401b0382118383101761074757602091604052803583520135602082015290565b634e487b7160e01b600052604160045260246000fd5b1561076457565b60405162461bcd60e51b8152602060048201526005602482015264049424c45360dc1b6044820152606490fd5b1561079857565b60405162461bcd60e51b8152602060048201526005602482015264494247453160d81b6044820152606490fd5b156107cc57565b60405162461bcd60e51b815260206004820152600360248201526224a4a160e91b6044820152606490fd5b156107fe57565b60405162461bcd60e51b8152602060048201526002602482015261424560f01b6044820152606490fd5b600180549094919290610845906001600160a01b031633146105f6565b610850818410610654565b61086461085c846103dc565b541515610686565b610878610870826103dc565b5415156106b7565b600091825b81811061088d5750505050505050565b806108a261089d8993858a6106e8565b61070e565b6108ae8151881061075d565b6108ba81518611610791565b6108db6108d582516108cf6101648a546103ec565b90610437565b156107c5565b6108ef6108e882516103dc565b54156107f7565b60008051602061093e8339815191526020820191825161090f82516103dc565b5551915161091d88546103ec565b604080519283526001600160401b0391909116602083015290a20161087d56fea0931ef79bb27304f1e23de0015fa57daf588e65d343788faa6415a3cdd7fd37a164736f6c6343000811000a",
  "linkReferences": {},
  "deployedLinkReferences": {}
}