{
  "_format": "hh-sol-artifact-1",
  "contractName": "ORSpvData",
  "sourceName": "contracts/ORSpvData.sol",
  "abi": [
    {
      "inputs": [
        {
          "internalType": "address",
          "name": "manager_",
          "type": "address"
        }
      ],
      "stateMutability": "nonpayable",
      "type": "constructor"
    },
    {
      "anonymous": false,
      "inputs": [
        {
          "indexed": false,
          "internalType": "uint64",
          "name": "blockInterval",
          "type": "uint64"
        }
      ],
      "name": "BlockIntervalUpdated",
      "type": "event"
    },
    {
      "anonymous": false,
      "inputs": [
        {
          "indexed": true,
          "internalType": "uint256",
          "name": "blkNumber",
          "type": "uint256"
        },
        {
          "indexed": false,
          "internalType": "bytes32",
          "name": "blockHash",
          "type": "bytes32"
        }
      ],
      "name": "HistoryBlockSaved",
      "type": "event"
    },
    {
      "inputs": [
        {
          "internalType": "uint256",
          "name": "blkNumber",
          "type": "uint256"
        }
      ],
      "name": "getBlockHash",
      "outputs": [
        {
          "internalType": "bytes32",
          "name": "",
          "type": "bytes32"
        }
      ],
      "stateMutability": "view",
      "type": "function"
    },
    {
      "inputs": [],
      "name": "getBlockInterval",
      "outputs": [
        {
          "internalType": "uint64",
          "name": "",
          "type": "uint64"
        }
      ],
      "stateMutability": "view",
      "type": "function"
    },
    {
      "inputs": [
        {
          "internalType": "uint256",
          "name": "startBlockNumber",
          "type": "uint256"
        },
        {
          "internalType": "uint256",
          "name": "endBlockNumber",
          "type": "uint256"
        },
        {
          "components": [
            {
              "internalType": "uint256",
              "name": "blkNumber",
              "type": "uint256"
            },
            {
              "internalType": "bytes32",
              "name": "blockHash",
              "type": "bytes32"
            }
          ],
          "internalType": "struct IORSpvData.InjectionBlock[]",
          "name": "injectionBlocks",
          "type": "tuple[]"
        }
      ],
      "name": "injectBlocksByManager",
      "outputs": [],
      "stateMutability": "nonpayable",
      "type": "function"
    },
    {
      "inputs": [],
      "name": "saveHistoryBlocks",
      "outputs": [],
      "stateMutability": "nonpayable",
      "type": "function"
    },
    {
      "inputs": [
        {
          "internalType": "uint64",
          "name": "blockInterval",
          "type": "uint64"
        }
      ],
      "name": "updateBlockInterval",
      "outputs": [],
      "stateMutability": "nonpayable",
      "type": "function"
    }
  ],
  "bytecode": "0x6080346100aa57601f61061d38819003918201601f19168301916001600160401b038311848410176100af578084926020946040528339810103126100aa57516001600160a01b038116908190036100aa57600054908015610080576001600160e01b031990911617600560a21b1760005560405161055790816100c68239f35b60405162461bcd60e51b815260206004820152600260248201526126ad60f11b6044820152606490fd5b600080fd5b634e487b7160e01b600052604160045260246000fdfe6040608081526004908136101561001557600080fd5b600091823560e01c806305f72ead146102275780635c4dd7b614610175578063b1317a44146100b2578063d5cd402c146100825763ee82ac5e1461005857600080fd5b3461007e57602036600319011261007e5760209282913581526001845220549051908152f35b8280fd5b5050346100ae57816003193601126100ae579054905160a09190911c6001600160401b03168152602090f35b5080fd5b50903461007e57602036600319011261007e5781356001600160401b0381169290838103610171578454916100f1336001600160a01b038516146104d2565b84156101495750600160a01b600160e01b031990911660a09190911b600160a01b600160e01b0316178355519081527f0411a4c5f1ca9d6be36cb6a46f7bc31bd7661cd5f696c372b7d50bb3497a0cc990602090a180f35b606490602085519162461bcd60e51b8352820152600260248201526124ab60f11b6044820152fd5b8480fd5b503461007e578260031936011261007e57610100805b610193578380f35b80430343811161021457845460a01c6001600160401b03168015610201578106156101c4575b50600019018061018b565b80855260206001815284862054156101dd575b506101b9565b60008051602061052b83398151915290824080878920558651908152a238806101d7565b634e487b7160e01b865260128452602486fd5b634e487b7160e01b855260118352602485fd5b503461007e57606036600319011261007e578035916001600160401b0391602491908235906044803591908683116104ce57366023840112156104ce5782820135958787116104ca576006983682898c1b870101116104c65761029460018060a01b038c541633146104d2565b8581101561049f57808b52600194602098868a52888d20541561047957878d52868a52888d205415610453578c5b8181106102cd578d80f35b878101908d1b83018a602319823603011261044f578a51808c018e81118282101761043b578c528c8888840135918284528301930135835286101561040f5780518b11156103e3578f5460a01c8e16838102908015908204851417156103cf5786018087116103cf578151036103a5578f8c908b8f8451835252205461037c578f60008051602061052b833981519152918b8f928f9086519284518252855220555192518d51908152a26102c2565b5050895162461bcd60e51b81528088018c905260028187015261424560f01b8188015260649150fd5b5050895162461bcd60e51b81528088018c90526003818701526224a4a160e91b8188015260649150fd5b5050634e487b7160e01b8f5260118852858ffd5b5050895162461bcd60e51b81528088018c90526005818701526422a622a4a160d91b8188015260649150fd5b5050895162461bcd60e51b81528088018c90526005818701526429a3a2a4a160d91b8188015260649150fd5b5050634e487b7160e01b8f5260418852858ffd5b8e80fd5b885162461bcd60e51b81528087018b90526002818601526122ad60f11b81870152606490fd5b885162461bcd60e51b81528087018b90526002818601526129ad60f11b81870152606490fd5b5063534e4c4560e01b6064928488519362461bcd60e51b8552602082860152840152820152fd5b8a80fd5b8980fd5b8880fd5b156104d957565b60405162461bcd60e51b8152602060048201526024808201527f466f7262696464656e3a2063616c6c6572206973206e6f7420746865206d616e60448201526330b3b2b960e11b6064820152608490fdfe46fbbc94c5fb2b3d477462618350d40195ac5516ab901fd482df4a14b0c651c7a164736f6c6343000811000a",
  "linkReferences": {},
  "deployedLinkReferences": {}
}